:020000022000DC
:10700000000004201972020001720200C92F03005F
:1070100005720200077202000972020000000000FF
:107020000000000000000000000000000B720200E1
:107030000D720200000000000F72020011720200C7
:107040003195020013720200419502001372020092
:1070500013720200137202008D8F0200137202007D
:107060001372020013720200137202001372020004
:1070700013720200137202001372020013720200F4
:1070800013720200AD2F030013720200137202008C
:1070900013720200137202001372020013720200D4
:1070A00013720200137202001372020013720200C4
:1070B00013720200137202000000000000000000C2
:1070C00013720200137202001372020013720200A4
:1070D0001372020013720200137202002DD202001A
:1070E000137202001372020013720200000000000B
:1070F0000000000013720200000000001372020082
:10710000000000000000000000000000000000007F
:10711000000000000000000000000000000000006F
:10712000000000000000000000000000000000005F
:10713000000000000000000000000000000000004F
:10714000000000000000000000000000000000003F
:10715000000000000000000000000000000000002F
:10716000000000000000000000000000000000001F
:10717000000000000000000000000000000000000F
:1071800000000000000000000000000000000000FF
:1071900000000000000000000000000000000000EF
:1071A00000000000000000000000000000000000DF
:1071B00000000000000000000000000000000000CF
:1071C00000000000000000000000000000000000BF
:1071D00000000000000000000000000000000000AF
:1071E000000000000000000000000000000000009F
:1071F000000000000000000000000000000000008F
:10720000FEE7FEE7FEE7FEE7FEE7FEE7FEE7FEE756
:10721000FEE7FEE700F002B8FFF7FCBF0F484FF0B3
:107220000701884385460E4880470E48016841F4AF
:1072300070010160BFF34F8FBFF36F8F00F01AB87A
:1072400009480A490A4A884207D0521A05D00378E9
:1072500001300B700131013AF9D170470000042070
:10726000897F020088ED00E0488903006022002049
:107270004023002039493A480A1A02D00722914394
:107280008D46384938480A1A06D00722914381F3BF
:107290000988022282F3148834483549354A00F0BF
:1072A0003EF835483549364A00F039F83548364910
:1072B000364A00F034F836483649374A00F02FF89D
:1072C00036483749374A00F02AF837483749384AAC
:1072D00000F025F837483849384A00F020F8384897
:1072E0003849002200F033F837483849002200F0CE
:1072F0002EF837483749091A11F0C0F8364A904736
:1073000024482549884205D00268043003B49047D8
:1073100003BCF7E700200021304A9047FEE788428F
:1073200014D0521A12D003460B43134303242342B2
:1073300006D1036804300B600431043AF9D1704778
:10734000037801300B700131013AF9D1704788425E
:1073500002D002700130FAE77047000000000420FC
:1073600000E003200000042000000420C8BA03004D
:10737000402300209C240020E0730200E073020000
:107380001A880300C8BA03004023002040230020CD
:10739000288A0300288A0300288A0300288A030019
:1073A000288A0300288A0300288A0300288A030009
:1073B000C5BA030024BC03009C2400209C240020A8
:1073C0009C240020083100200831002008310020D2
:1073D0000831002008510020417202004976020065
:1073E00082B00190019B184602B0704782B00190B4
:1073F000019B184602B0704700B585B001900B465E
:107400008DF803300198FFF7F1FF03909DF80330EA
:10741000032B47D801A252F823F000BFA574020045
:10742000417402002D74020039740200012000F042
:107430009FFA00F097F838E0012000F0B3FA34E04A
:10744000032000F0DDFA1B4B1B78032B2CD8012204
:1074500019491A480AF090F80290029B002BF6D0C6
:10746000154B1B780A2B03D0134B1B780D2B06D121
:10747000104B1B781A46124B9A5C0F4B1A70022065
:1074800000F0BEFA0B4B1B781A460B4B19780D4BCC
:107490009954084B1B780133DAB2064B1A7000F08E
:1074A00061F801E000BF00E000BF00BF05B05DF87B
:1074B00004FB00BF9C2400202C250020288A030008
:1074C00040230020A024002000B583B003468DF89F
:1074D00007309DF80730023B0C2B3BD801A252F835
:1074E00023F000BF197502002175020055750200D6
:1074F000557502005575020055750200337502007E
:10750000497502004F75020055750200557502005D
:107510005575020029750200002000F043FA1CE0B6
:10752000002000F025FA18E007F0ECFD00F054FA16
:1075300013E006F085F8034683F00103DBB2002B6D
:107540000AD007F0D9FD07E007F016FE05E007F0C6
:10755000EDFD02E000BF00E000BF00BF03B05DF83A
:1075600004FB00BF00B587B02A4B1B78032B27D83C
:1075700001A252F823F000BF89750200977502003E
:10758000A5750200B37502002349244810F0ABFA38
:10759000034605932AE02249204810F0A4FA034646
:1075A000059323E01F491D4810F09DFA03460593FB
:1075B0001CE01D49194810F096FA0346059315E0A2
:1075C0001A4B1B781946194B5B781846174B9B785A
:1075D0001A46164BDB780193009203460A4614497B
:1075E0000E4810F080FA034605930FE0059A0B4908
:1075F000104809F075FF0490049B0393039B002B34
:1076000004D00D4AFC21039806F018FC07B05DF881
:1076100004FB00BF9C2400204C8A0300302500207E
:10762000548A03005C8A0300648A0300A0240020BB
:107630006C8A0300288A0300888A030008B50120A9
:1076400000F061FA00BF08BD00B589B000F0E6FDAA
:107650000790079B0693069B002B05D02E4A40F20D
:107660000D11069806F0EAFB002000F035FE00BF81
:1076700000F080FE034683F00103DBB2002BF7D15C
:1076800006F032FF0790079B0593059B002B05D062
:10769000214A40F21711059806F0D0FBFFF7CEFF04
:1076A0000AF048FF1D4807F04FFC0790079B049322
:1076B000049B002B05D0184A4FF48F71049806F0F4
:1076C000BDFB1748FFF78CFE0390039808F076F88F
:1076D0000790079B0293029B002B05D00E4A4FF4A4
:1076E0009171029806F0AAFB07F0DCFC0790079B5B
:1076F0000193019B002B06D0074A40F22711019805
:1077000006F09CFB00BF00BF07F0DEFF0346002B26
:10771000FAD120BFF7E700BF888A0300D48A0300AC
:10772000288A0300BFF34F8F00BF064BDB6803F4CA
:10773000E0620449044B1343CB60BFF34F8F00BF9B
:1077400000BFFDE700ED00E00400FA0500B583B0DE
:107750000190019B1B68184600F0E5F80346002BDA
:1077600004D10B494FF4F6700BF05CFD019B1B68D4
:107770001F2B02D84FF0A04306E0019B1B6803F0CB
:107780001F02019B1A60034B184603B05DF804FB0F
:10779000E08A03000003005000B585B00190084660
:1077A00011461A4603468DF803300B468DF8023019
:1077B00013468DF8013001AB1846FFF7C7FF039061
:1077C0009DF803209DF802305B001A439DF80130BC
:1077D0009B001A439DF818301B0242EA03019DF8F2
:1077E0001C301B04019A1943039B02F5E07243F815
:1077F000221000BF05B05DF804FB00B585B0039012
:107800000023019300230093002301220121039808
:10781000FFF7C2FF00BF05B05DF804FB00B585B0FF
:1078200003900B468DF80B309DF80B30002201922F
:1078300000220092002200210398FFF7ADFF00BF55
:1078400005B05DF804FB00B585B0019001AB1846AA
:10785000FFF77CFF0390019B012202FA03F3194614
:10786000039800F04CF800BF05B05DF804FB00B5CC
:1078700085B0019001AB1846FFF768FF0390019BAC
:10788000012202FA03F31946039800F042F800BF00
:1078900005B05DF804FB00B585B0019001AB18465A
:1078A000FFF754FF0390039BD3F804350293029B28
:1078B000DA43019B012101FA03F31A40039BC3F849
:1078C0000825019B01229A40029B1A40039BC3F8A2
:1078D0000C2500BF05B05DF804FB00B583B0019036
:1078E0000091009B002B03D10198FFF7C0FF02E03D
:1078F0000198FFF7A8FF00BF03B05DF804FB82B05A
:1079000001900091019B009AC3F8082500BF02B0C6
:10791000704782B001900091019B009AC3F80C253A
:1079200000BF02B0704784B00190019B5B090293D5
:1079300000230393029B002B03D0029B012B04D056
:1079400007E04FF0FF33039303E04FF6FF73039319
:1079500000BF019B03F01F030193039A019B22FACE
:1079600003F303F00103DBB2184604B070470000D4
:1079700000B583B00190019B032B03D90749412037
:107980000BF050FC064A019B13441B78002118465B
:10799000FFF7A3FF00BF03B05DF804FB108B0300EB
:1079A0004C8B030000B583B00190019B032B03D9DE
:1079B000074947200BF036FC064A019B13441B780D
:1079C00001211846FFF789FF00BF03B05DF804FBF3
:1079D000108B03004C8B030000B583B00023019390
:1079E00005E00198FFF7DEFF019B01330193019B46
:1079F000032BF6D900BF00BF03B05DF804FB000005
:107A000000B583B00190019B032B03D907495F2088
:107A10000BF008FC064A019B13441B781846FFF73D
:107A20003AFF00BF03B05DF804FB00BF108B0300FA
:107A30004C8B030008B54FF01023D3F8043303F048
:107A40000703072B21D1124B0122C3F8042500BFE5
:107A50000F4BD3F80034002BFAD04FF01023D3F89B
:107A6000043323F007034FF0102243F00403C2F85D
:107A70000433074B0022C3F8042500BF044BD3F89E
:107A80000034002BFAD0FFF74DFE00BF08BD00BF49
:107A900000E0014000B583B04FF08043D3F840369A
:107AA00003F00103002B01D0FFF7C4FF0023019373
:107AB00009E0094A019B13441B781846FFF79DFE15
:107AC000019B01330193019B032BF2D9FFF784FF44
:107AD00000BF03B05DF804FB4C8B030000B583B01E
:107AE0000023019307E0262303211846FFF796FEA3
:107AF000019B01330193019B002BF4D000BF00BF19
:107B000003B05DF804FB00B583B00190019B03F066
:107B10000103002B01D0FFF7BDFF019B03F002031F
:107B2000002B01D0FFF7DAFF00BF03B05DF804FBC4
:107B300000B587B00390029101920F4B1B68002B98
:107B400003D10E492F200BF06DFB019B04331B6802
:107B500004AA0B4918460FF025FF049BDBB20E3335
:107B60008DF81730044B1B689DF817201046984776
:107B700000BF07B05DF804FB70250020D48B030024
:107B8000188C030000B587B00390029101920E4B50
:107B90001B68002B03D10D4939200BF043FB019BDF
:107BA00004331B6804AA0A4918460FF0FBFE049B25
:107BB0008DF81730044B1B689DF817201046984726
:107BC00000BF07B05DF804FB70250020D48B0300D4
:107BD000188C0300BFF34F8F00BF064BDB6803F424
:107BE000E0620449044B1343CB60BFF34F8F00BFE7
:107BF00000BFFDE700ED00E00400FA0582B0164B7F
:107C00001B680193154B1B680093019B082B1FD128
:107C1000009B052B1AD801A252F823F0357C0200F4
:107C2000397C02003D7C0200417C0200457C020060
:107C3000497C020001230CE001230AE0012308E053
:107C4000012306E0012304E0012302E0012300E018
:107C50000023184602B070473001001034010010B4
:107C600082B0164B1B680193154B1B680093019B58
:107C7000082B1FD1009B052B1AD801A252F823F024
:107C8000997C02009D7C0200A17C0200A57C020080
:107C9000A97C0200AD7C020001230CE001230AE074
:107CA000012308E0012306E0012304E0012302E0B0
:107CB000012300E00023184602B070473001001095
:107CC0003401001082B0164B1B680193154B1B68E2
:107CD0000093019B082B1FD1009B052B1AD801A2F2
:107CE00052F823F0FD7C0200017D0200057D0200B8
:107CF000097D02000D7D0200117D020001230CE0D0
:107D000000230AE0002308E0002306E0002304E04B
:107D1000002302E0002300E00023184602B0704771
:107D2000300100103401001082B0164B1B68019323
:107D3000154B1B680093019B082B1FD1009B052B43
:107D40001AD801A252F823F0617D0200657D02007D
:107D5000697D02006D7D0200717D0200757D02006B
:107D600001230CE000230AE0002308E0002306E0E2
:107D7000002304E0002302E0002300E00023184673
:107D800002B07047300100103401001082B0164B71
:107D90001B680193154B1B680093019B082B1FD197
:107DA000009B052B1AD801A252F823F0C57D0200D2
:107DB000C97D0200CD7D0200D17D0200D57D02008B
:107DC000D97D020001230CE000230AE0002308E033
:107DD000002306E0002304E0002302E0002300E08B
:107DE0000023184602B07047300100103401001023
:107DF00082B0164B1B680193154B1B680093019BC7
:107E0000082B1FD1009B052B1AD801A252F823F092
:107E1000297E02002D7E0200317E0200357E0200A6
:107E2000397E02003D7E020001230CE000230AE0BF
:107E3000002308E0002306E0002304E0002302E022
:107E4000002300E00023184602B070473001001004
:107E50003401001082B0164B1B680193154B1B6850
:107E60000093019B082B1FD1009B052B1AD801A260
:107E700052F823F08D7E0200917E0200957E020072
:107E8000997E02009D7E0200A17E020001230CE08B
:107E900001230AE0012308E0012306E0012304E0B6
:107EA000012302E0012300E00023184602B07047DE
:107EB000300100103401001082B0164B1B68019392
:107EC000154B1B680093019B082B1FD1009B052BB2
:107ED0001AD801A252F823F0F17E0200F57E0200CA
:107EE000F97E0200FD7E0200017F0200057F020094
:107EF00000230CE000230AE0002308E0002306E052
:107F0000012304E0012302E0012300E000231846DE
:107F100002B07047300100103401001008B5FFF7BF
:107F2000CBFF0346002B07D04FF010234FF08042C9
:107F3000D3F80832C2F8583500BF08BD00BF044B63
:107F4000D3F80034002BFAD000BF00BF704700BF49
:107F500000E0014000B583B00190054A019BC2F8E2
:107F60000435FFF7EBFF00BF03B05DF804FB00BF73
:107F700000E00140024B034A1A6000BF704700BF97
:107F8000482300200090D00308B5FFF737FE0346D2
:107F9000002B0ED04FF080430022C3F80C214FF08D
:107FA00080430022C3F810214FF080430022C3F821
:107FB0003825FFF755FE0346002B76D04FF080534F
:107FC000734AD3F80434C2F820354FF08053704A16
:107FD000D3F80834C2F824354FF080536C4AD3F8F4
:107FE0000C34C2F828354FF08053694AD3F8103466
:107FF000C2F82C354FF08053654AD3F81434C2F8D8
:1080000030354FF08053624AD3F81834C2F8343513
:108010004FF080535E4AD3F81C34C2F840354FF01D
:1080200080535B4AD3F82034C2F844354FF0805374
:10803000574AD3F82434C2F848354FF08053544A95
:10804000D3F82834C2F84C354FF08053504AD3F857
:108050002C34C2F850354FF080534D4AD3F83034A9
:10806000C2F854354FF08053494AD3F83434C2F83B
:1080700060354FF08053464AD3F83834C2F864353F
:108080004FF08053424AD3F83C34C2F868354FF081
:1080900080533F4AD3F84034C2F86C354FF08053D8
:1080A0003B4AD3F84434C2F87035FFF70BFE034661
:1080B000002B02D0374B384A1A60FFF735FE0346D3
:1080C000002B03D0354BFB22C3F81825FFF75EFECB
:1080D0000346002B0AD0324B1B6823F00F02314BB2
:1080E0001B6803F00F032E4913430B60FFF780FE5C
:1080F0000346002B03D02C4B4FF400721A60FFF79D
:10810000A9FE0346002B0DD04FF08043D3F8003476
:1081100003F00103002B05D04FF080436FF0010204
:10812000C3F80024214BD3F88830204A43F470036D
:10813000C2F88830BFF34F8F00BFBFF36F8F00BF0F
:10814000FFF7ECFE4FF01023D3F80032002B05DBD5
:108150004FF01023D3F80432002B15DA0120FFF77B
:10816000F9FE4FF010231222C3F80022FFF7E6FEBB
:108170004FF010231222C3F80422FFF7DFFE002085
:10818000FFF7E8FEFFF726FDFFF7F4FE00BF08BD8E
:1081900000C000408C5600404881030000F00040C1
:1081A000E40E0040580200104096024000ED00E04E
:1081B0004FF08043D3F818341B0C03F00103002B5D
:1081C00014BF01230023DBB21846704708B5FFF740
:1081D000EFFF0346184608BD044BD3F80034002BCC
:1081E00014BF01230023DBB2184670470000014092
:1081F00008B500F02BFC00BF08BD000008B500F07A
:108200003FFC024B00225A7000BF08BD74250020BD
:10821000014B1B78184670477425002000B583B0C9
:1082200000230193144B1B78002B02D0852301936C
:1082300014E0114B00229A600F4B00225A600E4B43
:1082400000221A610C4B0022DA600C4800F0A4FBFB
:10825000019000F0C7FB084B01221A70FFF7BCFF2A
:108260000346002B02D0044B01229A70019B184652
:1082700003B05DF804FB00BF74250020DD8402001C
:1082800084B001900091019B1B68039306E0039A60
:10829000009B9A420DD0039B1B680393039B002B0A
:1082A000F5D1019B1A68009B1A60019B009A1A6025
:1082B00000E000BF04B0704784B00190019B1B68D0
:1082C0000393039B002B03D0039B1A68019B1A6046
:1082D000039B184604B0704700B583B00190224B51
:1082E0001B78002B03D12149F6200AF09BFF1E4B7F
:1082F0009B78DBB2002B12D0019B002B03D0019B9B
:108300005B680120984700200AF03AFA164BDB68B8
:108310000133154AD36000200AF046FA17E0002026
:108320000AF02EFA019B002B03D001991048FFF7A9
:10833000A7FF0D4BDB68002B01D100F06DFB0A4B52
:10834000DB680133084AD36000200AF02DFA064B9F
:10835000DB68002B04D105494FF489700AF062FFF5
:1083600000BF03B05DF804FB74250020A08C03005F
:108370008425002008B5074B1B78002B04D1064943
:1083800040F225100AF04EFFFFF720FF0346184683
:1083900008BD00BF74250020A08C030000B583B089
:1083A0000190234B1B78002B04D1224940F233105B
:1083B0000AF038FF1E4B5B78DBB2002B12D0019B1A
:1083C000002B03D0019B5B680020984700200AF037
:1083D000D7F9174B5B680133154A536000200AF048
:1083E000E3F917E000200AF0CBF9019B002B03D042
:1083F00001991148FFF744FF0D4B5B68002B01D139
:10840000FFF7F6FE0A4B5B680133094A5360002010
:108410000AF0CAF9064B5B68002B04D1054940F20B
:108420004F100AF0FFFE00BF03B05DF804FB00BF71
:1084300074250020A08C03007C25002008B5124B79
:108440001B78002B04D111494FF4AA700AF0EAFE00
:108450000D4B5B68002B04D10C4940F255100AF01B
:10846000E1FE00200AF08CF9074B5B68013B064AED
:108470005360054B5B68002B01D1FFF7BFFE002066
:108480000AF092F900BF08BD74250020A08C0300FB
:1084900000B585B003468DF807309DF80730002BF6
:1084A00002D10C4B039301E00B4B03930398FFF7AE
:1084B00003FF0290029B002B06D0029B5B689DF895
:1084C000072010469847F1E700BF00BF05B05DF8F0
:1084D00004FB00BF7C2500208425002000B583B06C
:1084E00003468DF807309DF80730002B05D10A4B65
:1084F00001225A700020FFF7CBFF9DF80730012BB7
:1085000005D1054B01229A700120FFF7C1FF00BF82
:1085100003B05DF804FB00BF7425002000B585B0F2
:1085200001900D4B1B78002B01D085230FE0019BA0
:10853000002B01D1094B0193019800F0F3FE039049
:10854000039B002B02D1044B01221A70039B184697
:1085500005B05DF804FB00BF88250020EC8C03000B
:1085600000B583B0019000F00AF8019800F008FF10
:1085700000F022FF0023184603B05DF804FB08B5A5
:1085800000F021FF00F026FF00BF08BD00B589B054
:1085900001900091009B0793019B1B788DF80C3094
:1085A000019B5B680493019B9B68DBB28DF81430E0
:1085B000019BDB680693074A079B52F82330064964
:1085C000079A51F8221003AA1046984700BF09B035
:1085D0005DF804FB8C2500209425002000B589B0AF
:1085E00001900091009B0793019B1B788DF80C3044
:1085F000019B5B680493019B9B68DBB28DF8143090
:10860000019BDB680693074A079B52F82330064913
:10861000079A51F8221003AA1046984700BF09B0E4
:108620005DF804FB8C2500209425002030B58FB028
:10863000039002910192039B1B780C932C490C9B95
:10864000019A41F82320029B1A692A490C9B41F8A0
:1086500023200C9B012B07D1029B5B7F002B03D1B6
:10866000254976200AF0DEFD029B5B7F1946234AEE
:108670000C9B13440A461A70029B04AC1D460FCD96
:108680000FC495E80F0084E80F000C9B08930023AB
:108690000D93039B1B781A46184B9B5C002B0DD047
:1086A000039B181D019B002B01D0154A00E00022FE
:1086B00004AB194602F0AEF90D9014E0039B1B7851
:1086C0001A460E4B9B5C002B0DD1039B03F10C0053
:1086D000019B002B01D00B4A00E0002204AB19469D
:1086E00001F020FB0D900D9B18460FB030BD00BF70
:1086F0008C25002094250020F08C03009C25002070
:108700008D850200DD85020010B487B001900091D4
:10871000019B009A53E8004F04EA020043E800017D
:1087200091F0000FF6D1059404900391059B184633
:1087300007B05DF8044B704782B003468DF80730F0
:108740009DF90730002B0CDB9DF8073003F01F026A
:1087500005499DF907305B09012000FA02F241F852
:10876000232000BF02B0704700E100E082B0034662
:1087700000918DF807309DF90730002B0ADB009B34
:10878000DAB20C499DF907305201D2B20B4483F89A
:1087900000230BE0009BDAB207499DF8073003F095
:1087A0000F03043B5201D2B20B441A7600BF02B051
:1087B000704700BF00E100E000ED00E082B00190F2
:1087C000019B1B0B5BB2184602B0704700B583B02B
:1087D00003460A468DF8073013468DF806309DF89B
:1087E0000630072B03D908496B200AF01BFD9DF8C2
:1087F00006209DF9073011461846FFF7B7FF00BF66
:1088000003B05DF804FB00BF388D030000B583B0F2
:1088100003468DF807309DF907301846FFF78CFFA7
:1088200000BF03B05DF804FB82B003468DF807304B
:108830000F4A9DF90730002B00DA1F335B115BB242
:1088400052F823209DF90730594203F01F0301F02D
:108850001F0158BF4B425BB222FA03F303F001033E
:10886000002B14BF01230023DBB2184602B070476F
:1088700000E100E082B001904FF08042019BC2F81D
:10888000043300BF02B0704782B001904FF08042C5
:10889000019BC2F8083300BF02B0704782B00346A4
:1088A0008DF807309DF8073003F1804301221A60EC
:1088B00000BF02B0704784B00346ADF80630BDF883
:1088C000063003F1804300221A60BDF8063003F140
:1088D00080431B680393039B00BF04B0704782B0C2
:1088E0000346ADF80630BDF8063003F180431B683F
:1088F000002B14BF01230023DBB2184602B07047DF
:1089000082B001904FF08042019BC2F8183500BF41
:1089100002B0704782B003468DF807304FF08043B5
:10892000D3F80C3403F001129DF8073043F4803380
:108930009A420CBF01230023DBB2184602B07047F5
:1089400000B583B006238DF807304FF08040FFF765
:1089500035FF03461846FFF767FF034683F0010320
:10896000DBB2002B13D04FF08040FFF727FF034608
:108970001A469DF8073019461046FFF727FF4FF0BB
:108980008040FFF71BFF03461846FFF73FFF00BF7D
:1089900003B05DF804FB000000B585B00190019BB9
:1089A000002B03D10D49A4200AF03CFC00230393C3
:1089B0000B4B1B79002B02D08523039308E0084A58
:1089C000019B1360064B01221A71054B00225A715C
:1089D000039B184605B05DF804FB00BF708D0300D3
:1089E000A025002008B5094B1B79002B03D10849AD
:1089F000BD200AF017FCFFF7A3FF0120FFF780FF5F
:108A0000044B01221A7000BF08BD00BFA025002042
:108A1000708D0300A825002008B50A4B1B79002B98
:108A200003D10949EA200AF0FDFB4FF48270FFF7F9
:108A300042FF0220FFF71EFF0820FFF72FFF00BFB5
:108A400008BD00BFA0250020708D030008B50A4BAB
:108A50001B79002B04D109494FF481700AF0E2FB25
:108A60004FF48070FFF727FF0120FFF703FF00207E
:108A7000FFF714FF00BF08BDA0250020708D030084
:108A800008B50F4B1B79002B04D10E494FF48570AC
:108A90000AF0C8FB0120FFF7F7FE4FF48070FFF7E4
:108AA0000AFF0420FFF7FAFE00BF0120FFF732FFA4
:108AB0000346002BF9D1024B00225A7100BF08BDBA
:108AC000A0250020708D030008B54FF48070FFF7DB
:108AD00006FF0346002B14D04FF48070FFF7EBFE27
:108AE0000120FFF7D1FE114B5B7983F00103DBB26C
:108AF000002B06D00D4B01225A710C4B1B68002035
:108B000098474FF48270FFF7EAFE0346002B0AD025
:108B10004FF48270FFF7CFFE0220FFF7B5FE034B44
:108B20001B680120984700BF08BD00BFA02500209A
:108B300000B583B00346ADF80630BDF806301846E0
:108B400000F026F803461B68012B0CBF012300230D
:108B5000DBB2184603B05DF804FB00B585B00346F0
:108B6000ADF80630BDF80630184600F011F803469F
:108B70001A4600231360BDF80630184600F008F8C6
:108B800003461B680393039B00BF05B05DF804FB1D
:108B900082B00346ADF80630BDF8063003F18043DD
:108BA00003F5C043184602B07047000082B0019040
:108BB000034BD3F80423019B1340184602B07047BF
:108BC0000060004082B00190054A019B03F5A2734A
:108BD00052F823301B0A03F03F03184602B07047D7
:108BE0000060004082B00190064A019B03F5A27329
:108BF00052F823301B0C03F00303DBB2184602B01B
:108C0000704700BF0060004000B583B00190019B39
:108C10001B68184600F0AAF80346002B04D10B4944
:108C20004FF4F6700AF0FEFA019B1B681F2B02D866
:108C30004FF0A04306E0019B1B6803F01F02019B5D
:108C40001A60034B184603B05DF804FBE88D03007F
:108C50000003005000B585B001900B468DF803303D
:108C600001AB1846FFF7D0FF0390019A039B02F572
:108C7000E07253F82230019A23F44031039B02F54D
:108C8000E07243F82210019A039B02F5E07253F858
:108C900022109DF803301B04019A1943039B02F52F
:108CA000E07243F8221000BF05B05DF804FB00B588
:108CB00085B0019001AB1846FFF7A6FF0390019A1B
:108CC000039B02F5E07253F822301B0C03F0030300
:108CD000DBB2184605B05DF804FB000088B00390D5
:108CE00002910192164A05AB92E8030083E8030063
:108CF000039B079319E0079B9B0020336B4453F8B9
:108D00000C3CD3F82025019B1A60079B9B00203365
:108D10006B4453F80C3C019A1268C3F82025019B60
:108D200004330193079B01330793039A029B134477
:108D3000079A9A42DFD300BF00BF08B0704700BF58
:108D4000188E030000B585B0019001AB1846FFF7FF
:108D50005BFF0390019B012202FA03F31A46039B77
:108D6000C3F8202500BF05B05DF804FB84B0019076
:108D7000019B5B09029300230393029B002B03D00A
:108D8000029B012B04D007E04FF0FF33039303E075
:108D90004FF6FF73039300BF019B03F01F03019382
:108DA000039A019B22FA03F303F00103DBB2184696
:108DB00004B0704784B001900091009B0393019B25
:108DC000DB080293019B03F0070301930122019B3F
:108DD00002FA03F30399029A0A44127813401846E0
:108DE00004B0704782B00190044A019B13443033B1
:108DF00093F90030184602B0704700BFAC25002040
:108E000082B00190034A019B52F82330184602B009
:108E1000704700BFAC25002084B00190074A019B39
:108E20001344603393F900308DF80F309DF80F3004
:108E300023F0C003184604B0704700BFAC250020E3
:108E400084B00190074A019B1344603393F90030CA
:108E50008DF80F309DF80F309B09DBB2184604B037
:108E6000704700BFAC25002000B585B00190019A85
:108E700002210020FFF732FF002303930BE0039B46
:108E80009B00019A13441B68002B01D0012306E0CC
:108E9000039B01330393039B012BF0D90023184656
:108EA00005B05DF804FB000000B587B00190002319
:108EB00005935BE0344A059B1344603393F900301B
:108EC000B3F1FF3F4ED00598FFF7A6FF049001993C
:108ED0000498FFF76FFF0346002B44D00598FFF777
:108EE000AFFF03468DF80F300498FFF7E0FE03460E
:108EF0008DF80E309DF80E30022B01D1032300E0D7
:108F000002238DF80D309DF80D3019460498FFF7B7
:108F1000A1FE0498FFF716FF0498FFF763FF0346CE
:108F20001846FFF76DFF0290029B002B1BD09DF8A7
:108F30000F30032B0FD09DF80E30022B03D19DF87C
:108F40000F30012B07D09DF80E30032B0BD19DF86D
:108F50000F30022B07D19DF80F20029B1146049879
:108F6000984700E000BF059B01330593059B032B49
:108F7000A0D90198FFF778FF0346002B97D100BFD7
:108F800000BF07B05DF804FBAC25002000B58BB036
:108F90000023089301AB00221A605A604FF48073DB
:108FA000ADF81A30012309930023079321E0BDF89F
:108FB0001A301846FFF7BCFD0346002B0ED0099867
:108FC000FFF7F4FD0346002B08D0BDF81A30184611
:108FD000FFF7C3FD089A099B13430893099B5B00A5
:108FE0000993BDF81A300433ADF81A30079B0133EA
:108FF0000793079B072BDAD94FF4BE70FFF798FD54
:109000000346002B0DD04FF4BE70FFF7A6FD089B62
:1090100043F00043089301AB1A4602210020FFF7FA
:109020005DFE089BDBB2002B29D0012309930023AE
:10903000079321E0099A089B1340002B16D007984C
:10904000FFF7C0FD05900798FFF7CCFD03468DF8AC
:1090500013300798FFF7D4FE0390039B002B05D035
:109060009DF81320039B114605989847099B5B00C8
:109070000993079B01330793079B072BDAD9089BBA
:10908000002B03DA01AB1846FFF70EFF00BF0BB051
:109090005DF804FB82B003468DF807309DF9073078
:1090A000002B0CDB9DF8073003F01F0205499DF9EA
:1090B00007305B09012000FA02F241F8232000BFCB
:1090C00002B0704700E100E082B0034600918DF8E5
:1090D00007309DF90730002B0ADB009BDAB20C4900
:1090E0009DF907305201D2B20B4483F800230BE004
:1090F000009BDAB207499DF8073003F00F03043BE9
:109100005201D2B20B441A7600BF02B0704700BFC2
:1091100000E100E000ED00E082B00190019B1B0B3C
:109120005BB2184602B0704700B583B003460A46EA
:109130008DF8073013468DF806309DF80630072B62
:1091400003D908496B200AF06DF89DF806209DF9B7
:10915000073011461846FFF7B7FF00BF03B05DF8B0
:1091600004FB00BF708E030000B583B003468DF88A
:1091700007309DF907301846FFF78CFF00BF03B09A
:109180005DF804FB82B003468DF807300F4A9DF965
:109190000730002B00DA1F335B115BB252F823203B
:1091A0009DF90730594203F01F0301F01F0158BF1A
:1091B0004B425BB222FA03F303F00103002B14BF0E
:1091C00001230023DBB2184602B0704700E100E043
:1091D00084B00346ADF80630BDF8063003F1804395
:1091E00000221A60BDF8063003F180431B68039328
:1091F000039B00BF04B0704782B00346ADF8063051
:10920000BDF8063003F180431B68002B14BF012317
:109210000023DBB2184602B0704700B585B00346A4
:10922000ADF80630BDF806301846FFF7E5FF0346F7
:109230008DF80F309DF80F30002B04D0BDF80630AC
:109240001846FFF7C5FF9DF80F30184605B05DF8CA
:1092500004FB82B001904FF08042019BC2F80433BE
:1092600000BF02B070474FF08043D3F80433184674
:10927000704782B001904FF08042019BC2F80833E2
:1092800000BF02B0704782B003468DF807309DF8EA
:109290000730002B01D0012300E000234FF0804273
:1092A000C2F8783500BF02B0704782B003468DF82F
:1092B00007309DF80730002B01D0012300E0002388
:1092C0004FF08042C2F8803500BF02B0704700B551
:1092D00083B006238DF807304FF08040FFF71CFF66
:1092E00003461846FFF74EFF034683F00103DBB247
:1092F000002B13D04FF08040FFF70EFF03461A46B5
:109300009DF8073019461046FFF70EFF4FF08040DA
:10931000FFF702FF03461846FFF726FF00BF03B022
:109320005DF804FB00B583B00190019B002B03D1D5
:109330001149702009F076FF104B1B78002B01D0EB
:10934000852315E0019B1B78C3F34003DBB218466D
:10935000FFF7ABFF019B1B78C3F30003DBB218469A
:10936000FFF791FFFFF7B3FF044B01221A700023B0
:10937000184603B05DF804FBD08E030018260020C9
:1093800000B583B00190019B002B03D10849ED206B
:1093900009F048FF00F01EF8019B1B68002B03D06A
:1093A000019B1B68034A136000BF03B05DF804FB18
:1093B000D08E03002426002008B54FF46070FFF71C
:1093C00048FF00BF08BD08B54FF46070FFF751FFBC
:1093D00000BF08BD024B00221A6000BF704700BFEB
:1093E0002426002000B583B0FFF73DFF0190019BCC
:1093F00003F00403002B12D04FF48470FFF70DFF2D
:109400000346002B0BD0464B1B68002B04D145496B
:109410004FF48B7009F006FF414B1B689847019B86
:1094200003F02003002B13D04FF48A70FFF7F5FEF2
:109430000346002B0CD03C4B1B68002B04D1394950
:1094400040F21F1009F0EEFE374B1B6800209847D2
:10945000019B03F04003002B13D04FF48C70FFF7F7
:10946000DCFE0346002B0CD02F4B1B68002B04D1D5
:109470002C494FF4937009F0D5FE2B4B1B6801204B
:109480009847019B03F08003002B13D04FF48E709C
:10949000FFF7C3FE0346002B0CD0244B1B68002BA8
:1094A00004D1204940F22F1009F0BCFE1F4B1B686D
:1094B00000209847019B03F48073002B13D04FF4D6
:1094C0009070FFF7AAFE0346002B0CD0174B1B68C9
:1094D000002B04D113494FF49B7009F0A3FE134BEA
:1094E0001B6801209847019B03F40073002B13D0E5
:1094F0004FF49270FFF791FE0346002B0CD00B4BFC
:109500001B68002B04D1074940F23D1009F08AFE88
:10951000064B1B680220984700BF03B05DF804FBB0
:109520001C260020D08E03002026002024260020A8
:1095300008B5FFF757FFFFF7C7FA00BF08BD0000E7
:1095400008B5064B1B68002B03D10549512009F0D3
:1095500069FE024B1B68984708BD00BF2826002003
:109560001C8F030082B00190019B044A934201D1F9
:10957000034B00E00023184602B070470020004073
:109580002826002000B587B001900091019B002B98
:1095900003D11849772009F045FE0198FFF7E2FF53
:1095A0000590059B002B1ED000238DF81330002062
:1095B00009F0E6F8059B1B79002B03D001238DF8F9
:1095C000133005E0059B009A1A60059B01221A7171
:1095D000002009F0E9F89DF81330002B03D0112387
:1095E0000393039B02E000230393039B184607B0F9
:1095F0005DF804FB1C8F030000B585B00190019B52
:10960000002B03D10A499B2009F00CFE0198FFF7BB
:10961000A9FF0390039B002B05D0039B00221A6037
:10962000039B00221A7100BF05B05DF804FB00BF68
:109630001C8F030082B003468DF807309DF9073078
:10964000002B0CDB9DF8073003F01F0205499DF944
:1096500007305B09012000FA02F241F8232000BF25
:1096600002B0704700E100E082B003468DF8073099
:109670009DF90730002B13DB9DF8073003F01F0224
:1096800009499DF907305B09012000FA02F22033F5
:1096900041F82320BFF34F8F00BFBFF36F8F00BF90
:1096A00000BF02B0704700BF00E100E082B0034697
:1096B00000918DF807309DF90730002B0ADB009BE5
:1096C000DAB20C499DF907305201D2B20B4483F84B
:1096D00000230BE0009BDAB207499DF8073003F046
:1096E0000F03043B5201D2B20B441A7600BF02B002
:1096F000704700BF00E100E000ED00E082B00190A3
:10970000019B1B0B5BB2184602B0704700B583B0DB
:1097100003460A468DF8073013468DF806309DF84B
:109720000630072B03D908496B2009F07BFD9DF813
:1097300006209DF9073011461846FFF7B7FF00BF16
:1097400003B05DF804FB00BF688F030000B583B071
:1097500003468DF807309DF907301846FFF76AFF7A
:1097600000BF03B05DF804FB00B583B003468DF87D
:1097700007309DF907301846FFF776FF00BF03B0AA
:109780005DF804FB84B001900B46ADF80230BDF8E3
:109790000230019A134400221A60BDF80230019A87
:1097A00013441B680393039B00BF04B0704782B04F
:1097B00001900B46ADF80230BDF80230019A134417
:1097C0001B68002B14BF01230023DBB2184602B034
:1097D000704782B001900091019B009AC3F8042366
:1097E00000BF02B0704782B001900091019BD3F896
:1097F0000423009B1340002B14BF01230023DBB282
:10980000184602B0704782B001900091019B009A07
:10981000C3F8082300BF02B0704784B00190019BD9
:10982000D3F880340393019B039AC3F88024039BED
:10983000184604B0704782B00190019B0422C3F81F
:10984000002500BF02B0704782B00190019B00224A
:10985000C3F8002500BF02B0704784B003900291A6
:109860000192039B019AC3F81425039B029AC3F843
:109870000C2500BF04B0704700B583B001904FF0D5
:10988000FF324FF0FF310198FFF7E7FF00BF03B051
:109890005DF804FB82B00190019BD3F80C351846AB
:1098A00002B0704782B00190019BD3F8143518467E
:1098B00002B0704782B00190019BD3F8083518467A
:1098C00002B0704782B00190019BD3F81035184662
:1098D00002B0704784B0039002910192039B029AF8
:1098E000C3F80825039B019AC3F8102500BF04B0F4
:1098F000704700B583B001904FF0FF324FF0FF3159
:109900000198FFF7E7FF00BF03B05DF804FB82B0EA
:109910000190019BD3F81835DBB2184602B07047AE
:1099200082B001900B468DF803309DF80320019B17
:10993000C3F81C2500BF02B0704782B001900B46EF
:109940008DF803309DF80330019A134401221A6008
:1099500000BF02B0704782B001900B468DF8033013
:1099600013468DF802309DF803209DF80230134312
:10997000DBB21A46019BC3F86C2500BF02B07047EA
:1099800082B001900091019B009AC3F8242500BF8A
:1099900002B0704700B583B00190019B1B68184668
:1099A00000F0A4F80346002B04D10B494FF4F670E5
:1099B00009F038FC019B1B681F2B02D84FF0A04315
:1099C00006E0019B1B6803F01F02019B1A60034B1A
:1099D000184603B05DF804FB988F030000030050A5
:1099E00000B585B00190084611461A4603468DF829
:1099F00003300B468DF8023013468DF8013001AB71
:109A00001846FFF7C7FF03909DF803209DF802302A
:109A10005B001A439DF801309B001A439DF81830F3
:109A20001B0242EA03019DF81C301B04019A1943F2
:109A3000039B02F5E07243F8221000BF05B05DF809
:109A400004FB00B585B0039000230193002300932D
:109A50000023012201210398FFF7C2FF00BF05B0D8
:109A60005DF804FB00B585B003900B468DF80B3014
:109A70009DF80B300022019200220092002200216A
:109A80000398FFF7ADFF00BF05B05DF804FB00B51C
:109A900085B003900023019300230093002301224B
:109AA00000210398FFF79CFF00BF05B05DF804FBA1
:109AB00000B585B0019001AB1846FFF76BFF03902E
:109AC000019B012202FA03F31946039800F004F8FF
:109AD00000BF05B05DF804FB82B001900091019BCE
:109AE000009AC3F8082500BF02B0704784B0019007
:109AF000019B5B09029300230393029B002B03D07D
:109B0000029B012B04D007E04FF0FF33039303E0E7
:109B10004FF6FF73039300BF019B03F01F030193F4
:109B2000039A019B22FA03F303F00103DBB2184608
:109B300004B0704700B583B001900091009B1B6892
:109B4000B3F1FF3F09D0009B1B681846FFF7B0FF39
:109B5000009B1B681846FFF774FF009B5B68B3F11E
:109B6000FF3F05D0009B5B6800211846FFF77AFF96
:109B7000019B1A68009B9B6919461046FFF700FF7E
:109B8000019B1868009B597D009B1B7D1A46FFF7BF
:109B9000E2FE019B1868009B1968009B5B681A46EF
:109BA000FFF75BFE009B1B7D012B22D1009B9B6876
:109BB000B3F1FF3F05D0009B9B6800211846FFF7DB
:109BC00051FF009BDB68B3F1FF3F09D0009BDB68CE
:109BD0001846FFF76DFF009BDB681846FFF731FF63
:109BE000019B1868009BD968009B9B681A46FFF789
:109BF00071FE00BF03B05DF804FB000000B583B048
:109C000001900B468DF80330019B1B684FF48E7159
:109C10001846FFF7B7FD019B1B684FF4A271184669
:109C2000FFF7B0FD019B1B680E491846FFF7D1FDF9
:109C3000019B1B681846FFF761FD03461A469DF815
:109C4000033019461046FFF761FD019B1B6818465B
:109C5000FFF754FD03461846FFF778FD00BF03B039
:109C60005DF804FB8000020000B583B00190019B09
:109C70001B6808491846FFF7C6FD019B1B6818467C
:109C8000FFF73CFD03461846FFF76EFD00BF03B02B
:109C90005DF804FB8402020000B587B00190019BCF
:109CA0001B681846FFF7F6FD0590019B1B681846D8
:109CB000FFF7F8FD0490019B1B681846FFF7FAFDBB
:109CC0000390019B1B681846FFF7FCFD0290019B67
:109CD0001B681846FFF7D0FD019B1B681846FFF76D
:109CE00008FE059BB3F1FF3F02D00598FFF7CFFEBA
:109CF000049BB3F1FF3F02D00498FFF7C8FE029B1C
:109D0000B3F1FF3F02D00298FFF7C1FE039BB3F10E
:109D1000FF3F02D00398FFF7BAFE00BF07B05DF81F
:109D200004FB000000B587B0039002910192029BF2
:109D3000002B03D12D49AA2009F074FA039B1B794B
:109D40001A462C2302FB03F3294A134404930023ED
:109D50000593049B93F82A30002B03D00823059326
:109D6000059B3EE0039B1A68039B1B791946214B18
:109D700053F8213019461046FFF704FC0346002B28
:109D800003D011230593059B2BE002990398FFF75D
:109D9000D1FE049B019A5A60029B1A69049B1A60C7
:109DA000049B5B68002B05D0029B1B7F1946039820
:109DB000FFF724FF039B1B681846FFF73CFD049B3D
:109DC00000229A61049B0022DA61049B002283F83E
:109DD0002920049B00225A61049B012283F82A2037
:109DE000059B184607B05DF804FB00BFD08F030049
:109DF000302600201890030000B585B00190019B2B
:109E00001B791A462C2302FB03F3114A13440393D4
:109E1000019B1B681846FFF717FD039B5B68002B2F
:109E200002D00198FFF720FF0198FFF735FF019B53
:109E30001B681846FFF7E0FB039B002283F82A20EB
:109E4000039B00225A6000BF05B05DF804FB00BF11
:109E50003026002000B585B0019000914FF48E713E
:109E60000198FFF78FFC009B9A68009B1B6A1344C4
:109E70001B788DF80F30009B1B6A5A1C009B1A62DE
:109E80009DF80F3019460198FFF74AFD00BF05B055
:109E90005DF804FB00B585B001900091009B5B6903
:109EA000039316E0009B93F82830DBB2002B01D01F
:109EB000002314E04FF48E710198FFF778FC0346FD
:109EC00083F00103DBB2002BECD100990198FFF77E
:109ED000C1FF009B1B6A039A9A42EBD801231846E4
:109EE00005B05DF804FB000000B587B00390029157
:109EF0000192039B1B791A462C2302FB03F33C4A75
:109F000013440493049B93F82A30012B04D039495D
:109F10004FF48C7009F086F9029B002B04D135496F
:109F200040F2191009F07EF9019B002B04D1314950
:109F30004FF48D7009F076F9039800F05DF8034650
:109F4000002B03D011230593059B4CE0049B019A41
:109F50005A61049B029A9A60049B00221A62049B35
:109F6000002283F8282000230593039B1B684FF4ED
:109F70008E711846FFF706FC039B1B6808211846E4
:109F8000FFF7DBFC039B1B6804991846FFF762FF91
:109F9000049B5B68002B25D1039B1B680499184622
:109FA000FFF778FF034683F00103DBB2002B02D0FA
:109FB0000F23059313E000BF039B1B684FF48E71C2
:109FC0001846FFF7F4FB034683F00103DBB2002BD6
:109FD000F2D1039B1B680C211846FFF7AEFC049BD3
:109FE00000225A61059B184607B05DF804FB00BFCC
:109FF00030260020D08F030082B00190019B1B7996
:10A000001946074A2C2301FB03F3134414331B683E
:10A01000002B14BF01230023DBB2184602B07047A7
:10A020003026002010B582B001900091009B9B6902
:10A03000002B08D14FF484710198FFF7A3FB01981E
:10A04000FFF765FC13E04FF484710198FFF79AFB6A
:10A05000009BDA68009B5B6AD4180198FFF757FCF5
:10A0600003462370009B5B6A5A1C009B5A6202B035
:10A0700010BD00B589B003900291019201238DF8C3
:10A080001030029B0693019B0593039B5B68039A28
:10A09000116804AA1046984700BF09B05DF804FB98
:10A0A00000B587B00190009100238DF80830009B27
:10A0B0000493019B9B680393019B00225A61019BBF
:10A0C0005B68019A116802AA1046984700BF07B062
:10A0D0005DF804FB00B58BB0019000914FF4007166
:10A0E0000198FFF780FB0346002B39D04FF49271A3
:10A0F0000198FFF75CFB0346002B31D04FF49271BF
:10A100000198FFF73FFB4FF401710198FFF77BFBCC
:10A11000009B93F8293083F00103DBB2002B03D0BE
:10A1200004210198FFF709FC02238DF80C300198F7
:10A13000FFF773FB03460693009B9B690593009B07
:10A14000DB680493009B00229A61009B0022DA6185
:10A15000009B5B68009A116803AA1046984752E07A
:10A1600004210198FFF73FFB0346002B4BD04FF42F
:10A1700084710198FFF71BFB0346002B43D0009925
:10A180000198FFF74FFF009B9A69009B5B6A9A4218
:10A1900039D1009BDB69002B19D0009BDB68099348
:10A1A000009B5B6A0893009BDA69009B9A61009BA5
:10A1B0001A69009BDA60009B0022DA61009B002292
:10A1C0005A62099A08990098FFF753FF1BE0009B19
:10A1D00093F8293083F00103DBB2002B03D0042174
:10A1E0000198FFF7AAFB4FF401710198FFF70BFBF1
:10A1F000009B00229A61009B596A009BDB681A460B
:10A200000098FFF736FF4FF48E710198FFF7CFFAF1
:10A210000346002B24D0009B5B690793009B1B6ABD
:10A22000079A9A420DD9009B93F82830DBB283F04D
:10A230000103DBB2002B04D000990198FFF70AFE5E
:10A240000EE04FF48E710198FFF79CFA009B5B695A
:10A25000002B05D0009B5B6919460098FFF720FF93
:10A260004FF4A2710198FFF7A2FA0346002B1CD00D
:10A270004FF4A2710198FFF785FA009B93F82930FB
:10A28000002B03D000210198FFF757FB009B9B692F
:10A29000002B0AD0009B00229A61009B596A009B08
:10A2A000DB681A460098FFF7E4FE00BF0BB05DF8CC
:10A2B00004FB000008B503490348FFF70BFF00BF8C
:10A2C00008BD00BF302600200020004082B00346B9
:10A2D0008DF807309DF90730002B0CDB9DF8073017
:10A2E00003F01F0205499DF907305B09012000FAC0
:10A2F00002F241F8232000BF02B0704700E100E005
:10A3000082B003468DF807309DF90730002B13DB30
:10A310009DF8073003F01F0209499DF907305B09DA
:10A32000012000FA02F2203341F82320BFF34F8FBF
:10A3300000BFBFF36F8F00BF00BF02B0704700BF08
:10A3400000E100E082B0034600918DF807309DF9EE
:10A350000730002B0ADB009BDAB20C499DF907306D
:10A360005201D2B20B4483F800230BE0009BDAB217
:10A3700007499DF8073003F00F03043B5201D2B2A6
:10A380000B441A7600BF02B0704700BF00E100E046
:10A3900000ED00E082B00190019B03F06043B3F157
:10A3A000005F0CBF01230023DBB2184602B07047E8
:10A3B00082B00190019B1B0B5BB2184602B0704744
:10A3C00000B583B003460A468DF8073013468DF872
:10A3D00006309DF80630072B03D908496B2008F09A
:10A3E00021FF9DF806209DF9073011461846FFF71A
:10A3F000A9FF00BF03B05DF804FB00BF1C90030081
:10A4000000B583B003468DF807309DF90730184634
:10A41000FFF75CFF00BF03B05DF804FB00B583B03D
:10A4200003468DF807309DF907301846FFF768FF9F
:10A4300000BF03B05DF804FB84B001900B46ADF89B
:10A440000230BDF80230019A134400221A60BDF8B0
:10A450000230019A13441B680393039B00BF04B0AE
:10A46000704782B001900B46ADF80230BDF8023063
:10A47000019A13441B68002B14BF01230023DBB295
:10A48000184602B0704782B001900091019BD3F84A
:10A490000022009BDB431A40019BC3F8002200BF4F
:10A4A00002B0704782B001900091019B009AC3F8FE
:10A4B000042300BF02B0704782B001900091019B5D
:10A4C000009AC3F8082300BF02B0704784B001901F
:10A4D000019BD3F880340393019B039AC3F8802433
:10A4E000039B184604B0704782B00190019B08227C
:10A4F000C3F8002500BF02B0704782B00190019BF5
:10A500000022C3F8002500BF02B0704784B003905A
:10A5100002910192039B029AC3F80C25039B019AB6
:10A52000C3F8142500BF04B0704700B583B0019094
:10A530004FF0FF324FF0FF310198FFF7E7FF00BF08
:10A5400003B05DF804FB82B00190019BD3F80C3599
:10A55000184602B0704782B00190019BD3F81435C1
:10A56000184602B0704782B00190019BD3F80835BD
:10A57000184602B0704782B00190019BD3F81035A5
:10A58000184602B0704784B0039002910192039B79
:10A59000029AC3F80825039B019AC3F8102500BF4F
:10A5A00004B0704700B583B001904FF0FF324FF018
:10A5B000FF310198FFF7E7FF00BF03B05DF804FB30
:10A5C00082B001900B468DF803309DF80330019A5C
:10A5D000134401221A6000BF02B0704782B001909C
:10A5E0000B468DF8033013468DF802309DF803209A
:10A5F0009DF802301343DBB21A46019BC3F86C2569
:10A6000000BF02B0704782B001900091019B009A98
:10A61000C3F8242500BF02B0704784B003900291B4
:10A620000192029A039BC3F84425039B019AC3F845
:10A63000482500BF04B0704782B00190019BD3F859
:10A640004C35184602B0704782B00190019BD3F898
:10A650003C35184602B0704700B583B00190019BAD
:10A660001B68184600F0A4F80346002B04D10B49E0
:10A670004FF4F67008F0D6FD019B1B681F2B02D823
:10A680004FF0A04306E0019B1B6803F01F02019BF3
:10A690001A60034B184603B05DF804FB4C900300AE
:10A6A0000003005000B585B00190084611461A46D7
:10A6B00003468DF803300B468DF8023013468DF8B3
:10A6C000013001AB1846FFF7C7FF03909DF8032048
:10A6D0009DF802305B001A439DF801309B001A433D
:10A6E0009DF818301B0242EA03019DF81C301B0440
:10A6F000019A1943039B02F5E07243F8221000BF50
:10A7000005B05DF804FB00B585B00390002301930C
:10A71000002300930023012201210398FFF7C2FFC9
:10A7200000BF05B05DF804FB00B585B003900B4693
:10A730008DF80B309DF80B30002201920022009220
:10A74000002200210398FFF7ADFF00BF05B05DF8C0
:10A7500004FB00B585B00390002301930023009310
:10A760000023012200210398FFF79CFF00BF05B0E2
:10A770005DF804FB00B585B0019001AB1846FFF70A
:10A780006BFF0390019B012202FA03F31946039821
:10A7900000F004F800BF05B05DF804FB82B0019042
:10A7A0000091019B009AC3F8082500BF02B07047D2
:10A7B00084B00190019B5B09029300230393029BE9
:10A7C000002B03D0029B012B04D007E04FF0FF3396
:10A7D000039303E04FF6FF73039300BF019B03F065
:10A7E0001F030193039A019B22FA03F303F0010371
:10A7F000DBB2184604B0704700B583B001900091F9
:10A80000009B1B68B3F1FF3F09D0009B1B681846F3
:10A81000FFF7B0FF009B1B681846FFF774FF009B13
:10A820005B68B3F1FF3F05D0009B5B6800211846D1
:10A83000FFF77AFF019B1A68009B9B691946104637
:10A84000FFF7E1FE019B1868009B597D009B1B7D73
:10A850001A46FFF7C3FE019B1868009B1968009B0E
:10A860005B681A46FFF752FE009B1B7D012B22D12D
:10A87000009B9B68B3F1FF3F05D0009B9B680021C4
:10A880001846FFF751FF009BDB68B3F1FF3F09D08B
:10A89000009BDB681846FFF76DFF009BDB681846DE
:10A8A000FFF731FF019B1868009BD968009B9B68EC
:10A8B0001A46FFF768FE00BF03B05DF804FB000016
:10A8C00000B583B001900B468DF80330019B1B68E7
:10A8D0004FF488711846FFF7AFFD019B1B684FF4DA
:10A8E00090711846FFF7A8FD019B1B684FF4927109
:10A8F0001846FFF7A1FD019B1B684FF4A271184693
:10A90000FFF79AFD019B1B684FF4AC711846FFF7E7
:10A9100093FD019B1B680F491846FFF7C3FD019B80
:10A920001B681846FFF744FD03461A469DF803309E
:10A9300019461046FFF744FD019B1B681846FFF7B8
:10A9400037FD03461846FFF75BFD00BF03B05DF817
:10A9500004FB00BF1003420000B583B00190019BCF
:10A960001B6808491846FFF7A7FD019B1B6818469E
:10A97000FFF71EFD03461846FFF750FD00BF03B06A
:10A980005DF804FB1003420000B587B00190019B05
:10A990001B681846FFF7D7FD0590019B1B681846FA
:10A9A000FFF7D9FD0490019B1B681846FFF7DBFDFC
:10A9B0000390019B1B681846FFF7DDFD0290019B89
:10A9C0001B681846FFF7B1FD019B1B681846FFF78F
:10A9D000E9FD059BB3F1FF3F02D00598FFF7B9FEF3
:10A9E000049BB3F1FF3F02D00498FFF7B2FE029B35
:10A9F000B3F1FF3F02D00298FFF7ABFE039BB3F128
:10AA0000FF3F02D00398FFF7A4FE00BF07B05DF838
:10AA100004FB000000B587B0039002910192029BF5
:10AA2000002B03D12B49CF2008F0FCFB039B1B79A3
:10AA30001A461346DB0013449B00274A1344049331
:10AA400000230593049B93F82030002B03D00823A8
:10AA50000593059B3AE0039B1A68039B1B791946F3
:10AA60001E4B53F8213019461046FEF78BFD034666
:10AA7000002B03D011230593059B27E0029903982F
:10AA8000FFF7BAFE049B019A5A60029B1A69049B65
:10AA90001A60049B5B68002B05D0029B1B7F194644
:10AAA0000398FFF70DFF039B1B681846FFF71CFD7B
:10AAB000049B00229A61049B0022DA61049B00221D
:10AAC0005A61049B012283F82020059B184607B099
:10AAD0005DF804FB849003005C260020CC9003000A
:10AAE00000B585B00190019B1B791A461346DB0027
:10AAF00013449B002A4A13440393019B1B6802934F
:10AB0000039B5B68002B02D00198FFF725FF2021F3
:10AB10000298FFF7B8FC039B9B69002B08D04FF409
:10AB2000A2710298FFF788FC04210298FFF748FD04
:10AB30004FF4AC710298FFF77FFC0C210298FFF7ED
:10AB40003FFD00BF4FF4AC710298FFF78AFC03464B
:10AB500083F00103DBB2002BF4D1039B9B69002B34
:10AB60000AD04FF4A2710298FFF77BFC034683F0F2
:10AB70000103DBB2002BE5D10298FFF7BEFC019880
:10AB8000FFF702FF0298FEF737FD039B002283F8D0
:10AB90002020039B00225A6000BF05B05DF804FB33
:10ABA0005C26002000B589B0039002910192039BBE
:10ABB0001B791A461346DB0013449B00574A134483
:10ABC0000593059B93F82030012B04D0544940F2A3
:10ABD000531008F027FB029B002B04D150494FF47F
:10ABE000AA7008F01FFB019B002B04D14C4940F2D6
:10ABF000551008F017FB039B1B79002B03D1019B19
:10AC0000B3F5803F04D346494FF4AB7008F00AFB1C
:10AC10000298FFF7BFFB034683F00103DBB2002B72
:10AC200003D010230793079B73E0039800F07AF892
:10AC30000346002B03D011230793079B69E0059B74
:10AC4000019A5A61059B029A9A6000230793039B1D
:10AC50001B684FF490711846FFF7EEFB039B1B68CF
:10AC60004FF4AC711846FFF7E7FB039B1868059B90
:10AC70009968059B5B691A46FFF7CFFC039B1B682D
:10AC800008211846FFF79CFC059B5B68002B3FD111
:10AC9000039B1B684FF490711846FFF7E2FB0346D5
:10ACA0008DF81B30039B1B684FF4AC711846FFF7FF
:10ACB000D8FB03468DF81A309DF81B3083F0010352
:10ACC000DBB2002B06D09DF81A3083F00103DBB213
:10ACD000002BDDD19DF81A30002B02D00F230793F3
:10ACE00013E0039B1B680C211846FFF769FC00BFAB
:10ACF000039B1B684FF4AC711846FFF7B2FB034689
:10AD000083F00103DBB2002BF2D1059B00225A61D4
:10AD1000079B184609B05DF804FB00BF5C260020C5
:10AD20008490030082B00190019B1B791946084A68
:10AD30000B46DB000B449B00134414331B68002BB1
:10AD400014BF01230023DBB2184602B0704700BFD6
:10AD50005C26002000B589B0039002910192012386
:10AD60008DF81030029B0693019B0593039B5B6853
:10AD7000039A116804AA1046984700BF09B05DF80D
:10AD800004FB00B587B00190009100238DF80830D6
:10AD9000009B0493019B9B680393019B00225A61D3
:10ADA000019B5B68019A116802AA1046984700BF90
:10ADB00007B05DF804FB00B589B0019000914FF435
:10ADC00092710198FFF74DFB0346002B22D04FF400
:10ADD00092710198FFF730FB02238DF8083001983B
:10ADE000FFF774FB034605930198FFF72DFC03461C
:10ADF0000493009BDB680393009B00229A61009BF5
:10AE00000022DA61009B5B68009A116802AA104672
:10AE100098473BE04FF488710198FFF722FB034607
:10AE2000002B33D04FF488710198FFF705FB019890
:10AE3000FFF70AFC0790009B9B69079A9A4225D16D
:10AE4000009BDB69002B17D0009BDB680693202159
:10AE50000198FFF718FB009BDA69009B9A61009B41
:10AE60001A69009BDA60009B0022DA61069A079952
:10AE70000098FFF76FFF09E0009B00229A61009B9A
:10AE8000DB681A4607990098FFF764FF4FF4A27138
:10AE90000198FFF7E6FA0346002B18D04FF4A27191
:10AEA0000198FFF7C9FA009B9B69002B0FD0009B0C
:10AEB00000229A61009B0022DA610198FFF7C4FB2F
:10AEC0000146009BDB681A460098FFF743FF4FF4EA
:10AED00090710198FFF7C5FA0346002B14D04FF488
:10AEE00090710198FFF7A8FA0C210198FFF768FB11
:10AEF000009B5B69002B07D00198FFF79DFB034681
:10AF000019460098FFF73DFF4FF4AC710198FFF729
:10AF1000A8FA0346002B10D04FF4AC710198FFF74C
:10AF20008BFA009B5B69002B07D00198FFF784FB2D
:10AF3000034619460098FFF724FF00BF09B05DF8EB
:10AF400004FB000008B503490348FFF734FF00BFC6
:10AF500008BD00BF5C2600200020004082B00346F0
:10AF60008DF807309DF90730002B0CDB9DF807307A
:10AF700003F01F0205499DF907305B09012000FA23
:10AF800002F241F8232000BF02B0704700E100E068
:10AF900082B003468DF807309DF90730002B13DB94
:10AFA0009DF8073003F01F0209499DF907305B093E
:10AFB000012000FA02F2203341F82320BFF34F8F23
:10AFC00000BFBFF36F8F00BF00BF02B0704700BF6C
:10AFD00000E100E082B003468DF807309DF90730AC
:10AFE000002B0DDB9DF8073003F01F0206499DF989
:10AFF00007305B09012000FA02F2403341F82320B8
:10B0000000BF02B0704700BF00E100E082B003461D
:10B010008DF807309DF90730002B0DDB9DF80730C8
:10B0200003F01F0206499DF907305B09012000FA71
:10B0300002F2603341F8232000BF02B0704700BF26
:10B0400000E100E082B0034600918DF807309DF9E1
:10B050000730002B0ADB009BDAB20C499DF9073060
:10B060005201D2B20B4483F800230BE0009BDAB20A
:10B0700007499DF8073003F00F03043B5201D2B299
:10B080000B441A7600BF02B0704700BF00E100E039
:10B0900000ED00E082B00190019B03F06043B3F14A
:10B0A000005F0CBF01230023DBB2184602B07047DB
:10B0B00082B00190019B9A00024B1B681344184612
:10B0C00002B070470C92030000B583B003460A46F5
:10B0D0008DF8073013468DF806309DF80630072BA3
:10B0E00003D908496B2008F09DF89DF806209DF9CA
:10B0F000073011461846FFF7A5FF00BF03B05DF803
:10B1000004FB00BFD090030000B583B003468DF868
:10B1100007309DF907301846FFF720FF00BF03B046
:10B120005DF804FB82B003468DF807300F4A9DF9A5
:10B130000730002B00DA1F335B115BB252F823207B
:10B140009DF90730594203F01F0301F01F0158BF5A
:10B150004B425BB222FA03F303F00103002B14BF4E
:10B1600001230023DBB2184602B0704700E100E083
:10B1700000B583B003468DF807309DF907301846B7
:10B18000FFF706FF00BF03B05DF804FB00B583B016
:10B1900003468DF807309DF907301846FFF71AFF70
:10B1A00000BF03B05DF804FB00B583B003468DF823
:10B1B00007309DF907301846FFF728FF00BF03B09E
:10B1C0005DF804FB82B00190019B03F1804303F51D
:10B1D0001C33184602B0704782B00190019B03F106
:10B1E000804303F51C33184602B0704700B583B0A6
:10B1F00003468DF807309DF807301846FFF7E2FF49
:10B20000034601221A60BFF36F8F00BFBFF34F8F59
:10B2100000BF00BF03B05DF804FB00B583B0034678
:10B22000ADF80630BDF806301846FFF7CBFF0346F1
:10B2300000221A60BFF36F8F00BFBFF34F8F00BFB4
:10B2400000BF03B05DF804FB00B583B00346ADF862
:10B250000630BDF806301846FFF7BEFF03461B68F0
:10B26000002B14BF01230023DBB2184603B05DF8A6
:10B2700004FB00B585B00346ADF80630BDF80630D6
:10B280001846FFF7E1FF03468DF80F309DF80F30A9
:10B29000002B04D0BDF806301846FFF7BEFF9DF81E
:10B2A0000F30184605B05DF804FB000082B0019035
:10B2B000034A019BC2F8043300BF02B0704700BFCD
:10B2C00000700240024BD3F804331846704700BFA9
:10B2D0000070024082B00190034A019BC2F808331B
:10B2E00000BF02B0704700BF00700240054B012252
:10B2F000C3F80025BFF36F8F00BFBFF34F8F00BFB0
:10B3000000BF704700700240054B0022C3F80025C3
:10B31000BFF36F8F00BFBFF34F8F00BF00BF7047F9
:10B3200000700240024BD3F800341846704700BF4B
:10B330000070024082B00190064A019BC2F80034BE
:10B34000BFF36F8F00BFBFF34F8F00BF00BF02B0CE
:10B35000704700BF0070024000B583B0FFF7E2FF06
:10B3600001900198FFF7E6FFBFF36F8F00BFBFF3B7
:10B370004F8F00BF019B184603B05DF804FB00002F
:10B3800000B585B003468DF807309DF8073003F00F
:10B390000F038DF80F309DF90730002B10DA9DF860
:10B3A0000F30072B04D911494FF4816007F03AFFA1
:10B3B0000F4A9DF80F3003F5847352F8233010E0E4
:10B3C0009DF80F30072B04D9084940F20D4007F0D3
:10B3D00029FF074A9DF80F3003F588739B0013443B
:10B3E0005B68184605B05DF804FB00BF00910300E0
:10B3F0000070024000B583B003468DF807309DF819
:10B40000073003F00803002B01D000230AE09DF869
:10B4100007301846FFF7B4FF0346012B0CBF01238A
:10B420000023DBB2184603B05DF804FB024BD3F8EF
:10B430006C341846704700BF0070024082B0019023
:10B44000064A019BC2F86C34BFF36F8F00BFBFF395
:10B450004F8F00BF00BF02B0704700BF00700240B6
:10B4600000B583B0FFF7E2FF01900198FFF7E6FF18
:10B47000019B184603B05DF804FB0000024BD3F8B3
:10B480008034DBB21846704700700240024BD3F89C
:10B490008434DBB2184670470070024082B0094B1A
:10B4A000D3F88834ADF80630064BD3F88C349BB211
:10B4B0001B029AB2BDF8063013439BB2184602B085
:10B4C000704700BF0070024082B0094BD3F890343F
:10B4D000ADF80630064BD3F894349BB21B029AB2F7
:10B4E000BDF8063013439BB2184602B0704700BF48
:10B4F0000070024082B0094BD3F89834ADF80630A2
:10B50000064BD3F89C349BB21B029AB2BDF80630AE
:10B5100013439BB2184602B0704700BF0070024050
:10B5200000B585B003468DF807309DF90730002B34
:10B5300005DA9DF8073003F00F03082B0EDD9DF9A7
:10B540000730002B05DB9DF8073003F00F03082BB5
:10B5500004DD1C4940F25F4007F064FE9DF90730AE
:10B56000002B04DA17494FF48C6007F05BFE9DF85E
:10B57000073003F00803002B0CD0134BD3F8C03472
:10B580000393039B03F48033002B01D00023039328
:10B59000039B13E09DF8073003F00803002B04D051
:10B5A000084940F26B4007F03DFE074A9DF807301E
:10B5B00003F00F0303F5947352F82330184605B0D7
:10B5C0005DF804FB009103000070024000B585B0F7
:10B5D00003468DF807309DF90730002B05DA9DF8FA
:10B5E000073003F00F03082B0EDD9DF90730002B09
:10B5F00005DB9DF8073003F00F03082B04DD184925
:10B6000040F2714007F00EFE9DF90730002B04DA7E
:10B61000134940F2724007F005FE9DF8073003F031
:10B620000803002B04D10E4940F2734007F0FAFDE5
:10B630000C4BD3F8C0340393039B002B03D14FF082
:10B64000FF33039306E0039B03F48033002B01D008
:10B6500000230393039B184605B05DF804FB00BF6D
:10B66000009103000070024000B583B003468DF8DE
:10B6700007309DF90730002B05DB9DF8073003F0FC
:10B680000803002B04D00C4940F2834007F0CAFDA8
:10B690000A4A9DF8073003F00F0303F59473002165
:10B6A00042F82310BFF36F8F00BFBFF34F8F00BF6F
:10B6B00000BF03B05DF804FB00910300007002407E
:10B6C000054B0122C3F80425BFF36F8F00BFBFF302
:10B6D0004F8F00BF00BF704700700240054B002233
:10B6E000C3F80425BFF36F8F00BFBFF34F8F00BFB8
:10B6F00000BF70470070024082B003468DF80730EB
:10B70000034A9DF80730C2F8083500BF02B0704701
:10B710000070024000B583B003460A468DF807303A
:10B7200013468DF806309DF90730002B05DA9DF899
:10B73000073003F00F03082B0EDD9DF90730002BB7
:10B7400005DB9DF8073003F00F03082B04DD1549D6
:10B7500040F2A34007F066FD9DF8073003F00803B0
:10B76000002B04D00F4940F2A44007F05BFD0E4AC5
:10B770009DF80730C2F80C35BFF34F8F00BF9DF81E
:10B7800007209DF806301B021A43074BC3F80C250F
:10B79000BFF36F8F00BFBFF34F8F00BF00BF03B079
:10B7A0005DF804FB009103000070024000B585B015
:10B7B00003468DF807309DF90730002B05DA9DF818
:10B7C000073003F00F03082B0EDD9DF90730002B27
:10B7D00005DB9DF8073003F00F03082B04DD184943
:10B7E00040F2B74007F01EFD9DF8073003F00F034D
:10B7F0008DF80F309DF90730002B0EDA114BD3F87E
:10B8000010259DF80F3022FA03F303F00103002BFB
:10B8100014BF01230023DBB20DE00A4BD3F814253B
:10B820009DF80F3022FA03F303F00103002B14BF3D
:10B8300001230023DBB2184605B05DF804FB00BF0E
:10B84000009103000070024000B585B003468DF8FA
:10B8500007309DF90730002B05DA9DF8073003F01B
:10B860000F03082B0EDD9DF90730002B05DB9DF83B
:10B87000073003F00F03082B04DD194940F2C640DE
:10B8800007F0D0FC9DF8073003F00F038DF80F3060
:10B890009DF90730002B0CDA124BD3F810259DF8D8
:10B8A0000F30012101FA03F30E491343C1F810359B
:10B8B0000BE00C4BD3F814259DF80F30012101FA51
:10B8C00003F308491343C1F81435BFF36F8F00BF6A
:10B8D000BFF34F8F00BF00BF05B05DF804FB00BF92
:10B8E000009103000070024000B585B003468DF85A
:10B8F00007309DF90730002B05DA9DF8073003F07B
:10B900000F03082B0EDD9DF90730002B05DB9DF89A
:10B91000073003F00F03082B04DD1A4940F2D7402B
:10B9200007F080FC9DF8073003F00F038DF80F300F
:10B930009DF90730002B0DDA134BD3F810259DF835
:10B940000F30012101FA03F3DB430F491340C1F823
:10B9500010350CE00C4BD3F814259DF80F30012165
:10B9600001FA03F3DB4308491340C1F81435BFF370
:10B970006F8F00BFBFF34F8F00BF00BF05B05DF8F2
:10B9800004FB00BF009103000070024000B583B0CB
:10B9900003468DF807309DF8073003F00803002BAD
:10B9A00004D00B494FF49E6007F03CFC9DF8073033
:10B9B000084A43F48073C2F81835BFF36F8F00BF95
:10B9C000BFF34F8F00BF00BF03B05DF804FB00BFA3
:10B9D000009103000070024000B583B003468DF86B
:10B9E00007309DF8073003F00803002B04D00A4904
:10B9F0004FF49F6007F016FC084A9DF80730C2F824
:10BA00001835BFF36F8F00BFBFF34F8F00BF00BF6C
:10BA100003B05DF804FB00BF00910300007002401A
:10BA200082B003468DF80730034A9DF80730C2F80C
:10BA30001C3500BF02B0704700700240024BD3F8C3
:10BA40001C35DBB21846704700700240024BD3F839
:10BA500020351846704700BF00700240024B01229B
:10BA6000C3F82C2500BF704700700240024B002233
:10BA7000C3F82C2500BF704700700240044BD3F878
:10BA80002C35002B14BF01230023DBB2184670476E
:10BA90000070024082B003468DF80730034A9DF8DB
:10BAA0000730C2F8303500BF02B070470070024066
:10BAB00000B587B00346029101928DF80F309DF9D1
:10BAC0000F30002B36DA9DF80F3003F00803002BFF
:10BAD00008D0354A029BC2F8A036334A019BC2F80F
:10BAE000A4365DE09DF80F3003F00F038DF816309B
:10BAF0009DF81630072B04D92C4940F2345007F03A
:10BB000091FB29499DF8162013469B0013449B0086
:10BB10000B4403F5C063029A1A6023499DF816206E
:10BB200013469B0013449B000B4403F20463019AE9
:10BB30001A6035E09DF80F3003F00803002B08D0A1
:10BB4000194A029BC2F8A037174A019BC2F8A437D2
:10BB500026E09DF80F3003F00F038DF817309DF8A5
:10BB60001730072B04D9114940F2435007F05AFB14
:10BB70000D499DF8172013469B0013449B000B446E
:10BB800003F5E063029A1A6007499DF817201346EF
:10BB90009B0013449B000B4403F20473019A1A6048
:10BBA00000BF07B05DF804FB007002400091030085
:10BBB00082B0164B1B680193154B1B680093019BC9
:10BBC000082B1FD1009B052B1AD801A252F823F095
:10BBD000E9BB0200EDBB0200F1BB0200F5BB0200B5
:10BBE000F9BB0200FDBB020001230CE001230AE0C7
:10BBF000012308E0012306E0012304E0012302E021
:10BC0000012300E00023184602B070473001001005
:10BC10003401001082B0164B1B680193154B1B6852
:10BC20000093019B082B1FD1009B052B1AD801A262
:10BC300052F823F04DBC020051BC020055BC02007A
:10BC400059BC02005DBC020061BC020001230CE093
:10BC500001230AE0012308E0012306E0012304E0B8
:10BC6000012302E0012300E00023184602B07047E0
:10BC7000300100103401001082B0164B1B68019394
:10BC8000154B1B680093019B082B1FD1009B052BB4
:10BC90001AD801A252F823F0B1BC0200B5BC0200D0
:10BCA000B9BC0200BDBC0200C1BC0200C5BC0200A0
:10BCB00000230CE001230AE0012308E0012306E051
:10BCC000012304E0012302E0012300E000231846E1
:10BCD00002B07047300100103401001082B0164BE2
:10BCE0001B680193154B1B680093019B082B1FD108
:10BCF000009B052B1AD801A252F823F015BD0200B3
:10BD000019BD02001DBD020021BD020025BD0200BB
:10BD100029BD020001230CE001230AE0012308E011
:10BD2000012306E0012304E0012302E0012300E0F7
:10BD30000023184602B07047300100103401001093
:10BD400000231846704708B5FFF732FF0346184630
:10BD500008BD08B5FFF75EFF0346184608BD08B5E5
:10BD6000FFF78AFF0346184608BD08B5FFF7B6FF80
:10BD70000346184608BD08B5FFF7E2FF034618461C
:10BD800008BD000000B583B003468DF807309DF96B
:10BD90000730002B05DA9DF8073003F00F03082B5E
:10BDA0000EDD9DF90730002B05DB9DF8073003F011
:10BDB0000F03082B04DD0B494FF4B97007F032FA7A
:10BDC0009DF90730002B01DA074A00E0074A9DF889
:10BDD000073003F00F035B0013441B88184603B0C1
:10BDE0005DF804FB38910300E4910300F89103002F
:10BDF00000B583B003468DF807309DF90730002B5E
:10BE000005DA9DF8073003F00F03082B0EDD9DF9CE
:10BE10000730002B05DB9DF8073003F00F03082BDC
:10BE200004DD0C4940F29B1007F0FCF99DF9073046
:10BE3000002B01DA084A00E0084A9DF8073003F0B9
:10BE40000F0313441B781A4601239340184603B08E
:10BE50005DF804FB38910300109203001C9203006C
:10BE600000B587B00390029101920093029B059365
:10BE7000019A009B9A4204D224494FF4E97007F0DA
:10BE8000D1F9059B1B68002B0CD0059B1B6818463D
:10BE9000FFF700F90346002B04D11C4940F2D310F0
:10BEA00007F0C0F9059B5B680493049A009B9A42D3
:10BEB00007D2039B00225A60039B059A12681A60FE
:10BEC00013E0039B009A5A60039B059A12681A605C
:10BED000049A009BD31A0493059B049A5A60059B0D
:10BEE0001A68009B1A44059B1A60019A009B9A42AB
:10BEF00004D1049B002B01D0012300E0002303F0B8
:10BF00000103DBB2184607B05DF804FB389103006B
:10BF100000B587B0039002910192029B0493049BA9
:10BF20001B681846FFF7B6F80346002B04D11649E4
:10BF300040F2F91007F076F9049B5B680593059AC7
:10BF4000019B9A4201D9019B0593039B049A1268B5
:10BF50001A60039B059A5A60049B5A68059BD21A83
:10BF6000049B5A60049B1A68059B1A44049B1A6040
:10BF7000049B5B68002B14BF01230023DBB218462F
:10BF800007B05DF804FB00BF3891030000B587B02F
:10BF9000039002910192029B0493049B1B68184634
:10BFA000FFF778F80346002B04D1184940F21A2015
:10BFB00007F038F9049B5B680593059A019B9A4248
:10BFC00001D9019B0593059B002B02D0049B1B68A4
:10BFD00000E00023039A1360039B059A5A60049BB8
:10BFE0005A68059BD21A049B5A60049B1A68059BE9
:10BFF0001A44049B1A60059B002B14BF01230023E5
:10C00000DBB2184607B05DF804FB00BF38910300AF
:10C0100000B589B0039002910192029B0693069BA2
:10C020001B681846FFF736F8034683F00103DBB2BE
:10C03000002B04D11E494FF40E7007F0F3F8069B55
:10C040005B68079301F0C6FD0590079A019B9A4231
:10C0500001D9019B0793079B402B04D9144940F257
:10C06000422007F0DFF8069B1B68079A19460598DF
:10C070000CF0B6FA039B059A1A60039B079A5A6064
:10C08000069B5A68079BD21A069B5A60069B1A6841
:10C09000079B1A44069B1A60069B5B68002B14BF23
:10C0A00001230023DBB2184609B05DF804FB00BF92
:10C0B0003891030000B589B0039002910192029B70
:10C0C0000693069B1B681846FEF7E4FF034683F0C1
:10C0D0000103DBB2002B04D1214940F25B2007F0C1
:10C0E000A1F8069B5B68079301F074FD0590079A21
:10C0F000019B9A4201D9019B0793079B402B04D9CE
:10C10000174940F2652007F08DF8079B002B0AD0F5
:10C11000069B1B68079A194605980CF061FA039B69
:10C12000059A1A6002E0039B00221A60039B079A9B
:10C130005A60069B5A68079BD21A069B5A60069B58
:10C140001A68079B1A44069B1A60079B002B14BFB2
:10C1500001230023DBB2184609B05DF804FB00BFE1
:10C160003891030000B583B003468DF807309DF980
:10C170000730002B05DA9DF8073003F00F03082B7A
:10C180000EDD9DF90730002B05DB9DF8073003F02D
:10C190000F03082B04DD054940F2852007F042F823
:10C1A0009DF80730184603B05DF804FB3891030092
:10C1B00000B583B003468DF807309DF90730002B9A
:10C1C00005DA9DF8073003F00F03082B0EDD9DF90B
:10C1D0000730002B05DB9DF8073003F00F03082B19
:10C1E00004DD0C4940F2922007F01CF89DF907305D
:10C1F000002B01DA042200E028229DF8073003F02A
:10C200000F03DBB29B00DBB21344DBB2184603B072
:10C210005DF804FB3891030000B583B003468DF848
:10C2200007309DF90730002B05DA9DF8073003F041
:10C230000F03082B0EDD9DF90730002B05DB9DF861
:10C24000073003F00F03082B04DD0B4940F2A22056
:10C2500006F0E8FF9DF90730002B01DA074A00E0FD
:10C26000074A9DF8073003F00F031B0113441846DB
:10C2700003B05DF804FB00BF3891030028270020BD
:10C280009826002000B583B003468DF807309DF94D
:10C290000730002B05DA9DF8073003F00F03082B59
:10C2A0000EDD9DF90730002B05DB9DF8073003F00C
:10C2B0000F03082B04DD0B4940F2B52006F0B2FF56
:10C2C0009DF90730002B01DA002200E010229DF8D2
:10C2D000073003F00F03DBB21344DBB2184603B0A0
:10C2E0005DF804FB3891030082B003468DF80730F7
:10C2F0009DF807300F2B04D99DF80730103BDBB2B7
:10C3000004E09DF8073063F07F03DBB2184602B00B
:10C310007047000008B5FFF728FD0346002B02D048
:10C32000034B82221A60034B01221A7000BF08BD22
:10C330001C7C02409426002008B5FFF716FD03463A
:10C34000002B02D0034B00221A60034B00221A700C
:10C3500000BF08BD1C7C02409426002000B583B0BD
:10C3600003468DF807309DF807301846FFF720FF89
:10C3700003461846FEF73AFF00BF03B05DF804FB22
:10C3800000B583B003468DF807309DF80730184696
:10C39000FFF780FB00BF03B05DF804FB10B586B06B
:10C3A00003468DF80730002006F0EAF99DF80730C3
:10C3B0001846FFF731FF05909DF90730002B39DB58
:10C3C000614B1B68DC439DF807301846FFF75AFFA6
:10C3D00003461A46012393402340002B05D09DF8C5
:10C3E0000730184601F0A8FC20E0059B00221A60E7
:10C3F0009DF807301846FFF745FF03461A4601230C
:10C400009340DA43504B1B6813404F4A13609DF82A
:10C4100007301846FFF736FF03461A4601239340BC
:10C42000DA434A4B1B681340484A1360059B0322BA
:10C430009A7383E09DF8073003F00803002B37D18F
:10C440009DF80730802B1CD09DF8073003F00F03B8
:10C4500003F2DA333E4A5B0013603E4B1B688DF8F3
:10C4600012309DF8123043F002038DF81230394B30
:10C470001A689DF81230374913430B60354B1B681F
:10C4800016E0334B40F2B4721A60324B1B688DF8E1
:10C4900013309DF8133043F004038DF813302D4B07
:10C4A0001A689DF813302B4913430B60294B1B6806
:10C4B000264B1B68DA43244B1B6842EA03049DF8B1
:10C4C00007301846FFF7DEFE03461A460123934065
:10C4D0002340002B32D09DF807301846FFF7D2FEDC
:10C4E00003461A4601239340DA43174B1B68134057
:10C4F000154A13609DF807301846FFF7C3FE034640
:10C500001A46012303FA02F2104B1B6813430F4A29
:10C510001360059B00221A60059B03229A73062371
:10C520008DF80C309DF807308DF80E3003238DF810
:10C530000F30094B1B6803AA10469847002006F0ED
:10C5400033F900BF06B010BD902600208C260020D5
:10C5500000780240047802408426002000B583B0B1
:10C5600003468DF807309DF807301846FFF716FF91
:10C5700000BF03B05DF804FB00B587B0214B1B681A
:10C580001B0C1B04204A1268134305932EE0059BE5
:10C590000293029B93FAA3F30193019B0393039BE2
:10C5A000002B01D1202303E0039BB3FA83F3DBB21A
:10C5B0008DF813309DF813301846FFF795FE0346AB
:10C5C00003F00803002B08D19DF813301846FFF73D
:10C5D0008BFE03461846FFF7E1FE9DF8133001225B
:10C5E00002FA03F3DB43059A13400593059B002BE6
:10C5F000CDD1044B40F2FF121A6000BF07B05DF8C6
:10C6000004FB00BF8C2600209026002008B52720C0
:10C61000FEF7BCFD00BF08BD00B583B0094B00228A
:10C620001A70094B00221A700023019301238DF820
:10C630000430064B1B6801AA1046984700BF03B0A0
:10C640005DF804FB8826002089260020842600202F
:10C6500000BF704700B583B080238DF80730FFF727
:10C660006BFE9DF807301846FFF7D6FD0090009B43
:10C670009B7B032B0ED19DF807301846FFF702FE77
:10C6800003461A4601239340DB4319460C48FCF746
:10C690003BF811E0009B1B68002B0DD19DF8073083
:10C6A0001846FFF7EFFD03461A4601239340DB438C
:10C6B00019460348FCF728F800BF03B05DF804FBF7
:10C6C0009026002000B585B003468DF807309DF90F
:10C6D0000730002B04DB264940F2B63006F0A2FDFD
:10C6E0009DF8073003F00803002B04D0204940F2E6
:10C6F000B73006F097FD9DF8073003F00F03002BCD
:10C7000004DC1B494FF46E7006F08CFDFFF714FE3D
:10C710009DF807301846FFF77FFD0390039B9B7B36
:10C72000032B0ED19DF807301846FFF7ABFD0346EB
:10C730001A4601239340DB4319460E48FBF7E4FFFA
:10C7400011E0039B1B68002B0DD19DF807301846A4
:10C75000FFF798FD03461A4601239340DB43194631
:10C760000448FBF7D1FF00BF05B05DF804FB00BF34
:10C77000389103009026002000B585B003468DF85F
:10C7800007309DF90730002B04DB28494FF4757002
:10C7900006F048FD9DF8073003F00803002B04D194
:10C7A000224940F2D53006F03DFDFFF7C5FD9DF86A
:10C7B00007301846FFF730FD0390039B9B7B032B4C
:10C7C0000ED19DF807301846FFF75CFD03461A4668
:10C7D00001239340DB4319461548FBF795FF20E002
:10C7E000039B1B68002B1CD19DF807301846FFF7F0
:10C7F00049FD03461A4601239340DB4319460C4882
:10C80000FBF782FF06238DF808309DF807308DF87E
:10C810000A3000238DF80B30064B1B6802AA104625
:10C82000984700BF05B05DF804FB00BF38910300D6
:10C83000902600208426002000B585B000238DF8C6
:10C840000F30FFF779FD9DF80F301846FFF7E4FC35
:10C850000290029B9B7B032B0ED19DF80F30184654
:10C86000FFF710FD03461A4601239340DB431946A8
:10C870001548FBF749FF23E0029B1B68002B1DD1E5
:10C880009DF80F301846FFF7FDFC03461A460123BA
:10C890009340DB4319460C48FBF736FF06238DF81F
:10C8A00004309DF80F308DF8063000238DF80730E6
:10C8B000064B1B6801AA1046984701E001F024FAD4
:10C8C00000BF05B05DF804FB902600208426002000
:10C8D00000B585B003468DF807309DF90730002B71
:10C8E00004DA2E4940F2144006F09CFC9DF8073013
:10C8F00003F00803002B04D0284940F2154006F04D
:10C9000091FC9DF8073003F00F03002B04DC234952
:10C9100040F2164006F086FCFFF70EFD9DF807304A
:10C920001846FFF779FC0390039B9B7B032B0ED1EA
:10C930009DF807301846FFF7A5FC03461A46012369
:10C940009340DB4319461648FBF7DEFE20E0039BCD
:10C950001B68002B1CD19DF807301846FFF792FC8E
:10C9600003461A4601239340DB4319460C48FBF764
:10C97000CBFE06238DF808309DF807308DF80A307D
:10C9800000238DF80B30074B1B6802AA104698470E
:10C9900000F096FA00BF05B05DF804FB3891030083
:10C9A000902600208426002000B585B003468DF82F
:10C9B00007309DF8073003F00803002B04D11B4912
:10C9C00040F23A4006F02EFCFFF7B6FC9DF8073027
:10C9D0001846FFF721FC0390039B9B7B032B20D081
:10C9E000039B1B68002B1CD19DF807301846FFF7EE
:10C9F00049FC03461A4601239340DB4319460C4881
:10CA0000FBF782FE06238DF808309DF807308DF87D
:10CA10000A3000238DF80B30064B1B6802AA104623
:10CA2000984700BF05B05DF804FB00BF38910300D4
:10CA3000902600208426002008B5FFF70BFE00BFDB
:10CA400008BD08B58120FFF73DFE00BF08BD08B551
:10CA50008220FFF737FE00BF08BD08B58320FFF72F
:10CA600031FE00BF08BD08B58420FFF72BFE00BFD4
:10CA700008BD08B58520FFF725FE00BF08BD08B535
:10CA80008620FFF71FFE00BF08BD08B58720FFF70F
:10CA900019FE00BF08BD08B58820FFF76DFE00BF76
:10CAA00008BD08B5FFF7C8FE00BF08BD08B50120E6
:10CAB000FFF70EFF00BF08BD08B50220FFF708FF13
:10CAC00000BF08BD08B50320FFF702FF00BF08BD87
:10CAD00008B50420FFF7FCFE00BF08BD08B505201F
