:020000022000DC
:1070000000000420857302006D7302006F7302009C
:1070100071730200737302007573020000000000B8
:107020000000000000000000000000007773020074
:1070300079730200000000007B7302007D73020080
:107040007F7302007F7302004D8002007F73020095
:107050007F7302007F7302007F7302007F73020060
:107060007F7302007F7302007F7302007F73020050
:107070007F7302007F7302007F7302007F73020040
:107080007F7302007F7302007F7302007F73020030
:107090007F7302007F7302007F7302007F73020020
:1070A0007F7302007F7302007F7302007F73020010
:1070B0007F7302007F7302000000000000000000E8
:1070C0007F7302007F7302007F7302007F730200F0
:1070D0007F7302007F7302007F7302007F730200E0
:1070E0007F7302007F7302007F73020000000000C4
:1070F000000000007F730200000000007F730200A8
:10710000000000000000000000000000000000007F
:10711000000000000000000000000000000000006F
:10712000000000000000000000000000000000005F
:10713000000000000000000000000000000000004F
:10714000000000000000000000000000000000003F
:10715000000000000000000000000000000000002F
:10716000000000000000000000000000000000001F
:10717000000000000000000000000000000000000F
:1071800000000000000000000000000000000000FF
:1071900000000000000000000000000000000000EF
:1071A00000000000000000000000000000000000DF
:1071B00000000000000000000000000000000000CF
:1071C00000000000000000000000000000000000BF
:1071D00000000000000000000000000000000000AF
:1071E000000000000000000000000000000000009F
:1071F000000000000000000000000000000000008F
:1072000039493A480A1A02D0072291438D46384933
:1072100038480A1A06D00722914381F309880222CE
:1072200082F3148834483549354A00F03EF8354831
:107230003549364A00F039F835483649364A00F0C3
:1072400034F836483649374A00F02FF8364837497F
:10725000374A00F02AF837483749384A00F025F80D
:1072600037483849384A00F020F838483849002271
:1072700000F033F837483849002200F02EF837483C
:107280003749091A03F07AF8364A904724482549C5
:10729000884205D00268043003B4904703BCF7E786
:1072A00000200021304A9047FEE7884214D0521A4D
:1072B00012D003460B4313430324234206D1036831
:1072C00004300B600431043AF9D17047037801307F
:1072D0000B700131013AF9D17047884202D0027037
:1072E0000130FAE7704700000000042000E00320AE
:1072F000000004200000042004A8020060220020F6
:1073000084220020E0730200E073020018A402004F
:1073100004A80200602200206022002018A40200BD
:1073200018A4020018A4020018A4020018A4020065
:1073300018A4020018A4020018A4020002A8020067
:1073400028A8020084220020842200208422002019
:10735000082A0020082A0020082A0020082A0020E5
:10736000084A0020AD730200819A0200FEE7FEE7A2
:10737000FEE7FEE7FEE7FEE7FEE7FEE7FEE7FEE7E5
:1073800000F002B8FFF7FCBF0F484FF00701884339
:1073900085460E4880470E48016841F4700101603F
:1073A000BFF34F8FBFF36F8FFFF72ABF09480A491A
:1073B0000A4A884207D0521A05D0037801300B7070
:1073C0000131013AF9D1704700000420E59E020026
:1073D00088ED00E018A40200602200206022002056
:1073E000BFF34F8F00BF064BDB6803F4E062044934
:1073F000044B1343CB60BFF34F8F00BF00BFFDE7CB
:1074000000ED00E00400FA0500B583B00190019B97
:107410001B68184600F0C3F80346002B04D10B4943
:107420004FF4F67000F03DFD019B1B681F2B02D846
:107430004FF0A04306E0019B1B6803F01F02019B75
:107440001A60034B184603B05DF804FB18A4020051
:107450000003005000B585B00190084611461A4659
:1074600003468DF803300B468DF8023013468DF835
:10747000013001AB1846FFF7C7FF03909DF80320CA
:107480009DF802305B001A439DF801309B001A43BF
:107490009DF818301B0242EA03019DF81C301B04C2
:1074A000019A1943039B02F5E07243F8221000BFD2
:1074B00005B05DF804FB00B585B00390002301938F
:1074C000002300930023012201210398FFF7C2FF4C
:1074D00000BF05B05DF804FB00B585B003900B4616
:1074E0008DF80B309DF80B300022019200220092A3
:1074F000002200210398FFF7ADFF00BF05B05DF843
:1075000004FB00B585B0019001AB1846FFF77CFF86
:107510000390019B012202FA03F31946039800F03D
:107520002AF800BF05B05DF804FB00B585B00190F6
:1075300001AB1846FFF768FF0390019B012202FA96
:1075400003F31946039800F020F800BF05B05DF87A
:1075500004FB00B583B001900091009B002B03D188
:107560000198FFF7E2FF02E00198FFF7CAFF00BFB2
:1075700003B05DF804FB82B001900091019B009A7A
:10758000C3F8082500BF02B0704782B00190009197
:10759000019B009AC3F80C2500BF02B0704784B06D
:1075A0000190019B5B09029300230393029B002B34
:1075B00003D0029B012B04D007E04FF0FF3303936D
:1075C00003E04FF6FF73039300BF019B03F01F031B
:1075D0000193039A019B22FA03F303F00103DBB248
:1075E000184604B07047000000B583B00190019BBD
:1075F000032B03D90749472000F053FC064A019B9F
:1076000013441B7801211846FFF7A3FF00BF03B006
:107610005DF804FB48A402008CA4020000B583B00E
:107620000023019305E00198FFF7DEFF019B013382
:107630000193019B032BF6D900BF00BF03B05DF897
:1076400004FB000008B54FF01023D3F8043303F017
:107650000703072B21D1124B0122C3F8042500BFD9
:107660000F4BD3F80034002BFAD04FF01023D3F88F
:10767000043323F007034FF0102243F00403C2F851
:107680000433074B0022C3F8042500BF044BD3F892
:107690000034002BFAD0FFF7A3FE00BF08BD00BFE7
:1076A00000E0014000B583B04FF08043D3F840368E
:1076B00003F00103002B01D0FFF7C4FF0023019367
:1076C00009E0094A019B13441B781846FFF7F3FEB3
:1076D000019B01330193019B032BF2D9FFF79EFF1E
:1076E00000BF03B05DF804FB8CA4020000B583B0BA
:1076F0000023019307E0262303211846FFF7ECFE41
:10770000019B01330193019B002BF4D000BF00BF0C
:1077100003B05DF804FB00B583B00190019B03F05A
:107720000103002B01D0FFF7BDFF019B03F0020313
:10773000002B01D0FFF7DAFF00BF03B05DF804FBB8
:1077400086B003900291019201238DF817309DF8C5
:107750001730204A039B13601E4A029B53601D4A48
:10776000019B9360039B44F20102934212D0039B5E
:1077700044F20202934220D1019B164AD360154B7A
:10778000DB681B68134A9361124BDB685B68114A24
:10779000D36112E0019B0F4A13610E4B1B699B687A
:1077A0000C4A53610B4B1B691B680A4A9361094BD6
:1077B0001B695B68074AD36100BF72B600BF00BF98
:1077C0009DF81730DBB2002BFAD162B600BF00BFC4
:1077D00006B070478422002000B583B0029000916B
:1077E000019244F2010071466A4600F003F803B0CA
:1077F00000BD00BF00B587B003900291019272B640
:1078000000BF039B44F20102934207D0039B44F262
:107810000202934205D1019B059303E0019B04936F
:1078200000E000BF074B1B6803F00103002B00D0F2
:1078300000BE019A02990398FFF782FF00BF07B0CC
:107840005DF804FBF0ED00E084B00190019B9B68C3
:107850000393019BDA68039BD31A184604B0704760
:1078600082B001900B468DF80330019B1A68019B92
:10787000DB68019989880B4013449DF803201A7036
:10788000019BDB685A1C019BDA6000BF02B07047A5
:1078900084B003900B460192ADF80A30039B1A683E
:1078A000039B9968BDF80A300B44039989880B4003
:1078B00013441A78019B1A7000BF04B0704700B5DA
:1078C00083B001900091009A00210198FFF7E0FF3A
:1078D000019B9B685A1C019B9A6000BF03B05DF836
:1078E00004FB84B0039002911346ADF80630029B6E
:1078F000002B01D10E231DE0BDF80630002B07D070
:10790000BDF806305A1EBDF806301340002B01D0DA
:1079100009230FE0039B029A1A60BDF80630013B71
:107920009AB2039B9A80039B00229A60039B0022D9
:10793000DA600023184604B0704700B583B00190A8
:107940000B468DF803300198FFF77EFF0246019B3E
:107950009B889A4207D89DF8033019460198FFF793
:107960007FFF002300E00423184603B05DF804FB0A
:1079700000B583B0019000910198FFF765FF0346C1
:10798000002B05D000990198FFF799FF002300E034
:107990000523184603B05DF804FB000000B587B06E
:1079A0000390029113468DF8073000230593039B43
:1079B0001B781A46114B9B5C002B09D0039B0433A8
:1079C0009DF807200299184601F040FD05900FE050
:1079D000039B1B781A46094B9B5C002B08D1039B29
:1079E0000C339DF807200299184600F0D3FE05904D
:1079F000059B184607B05DF804FB00BFE422002099
:107A000000B585B0019000238DF80F30019B1B78E5
:107A10001A46114B9B5C002B08D0019B043318467F
:107A200001F0D4FD03468DF80F300EE0019B1B786A
:107A30001A46094B9B5C002B07D1019B0C3318465F
:107A400000F030FF03468DF80F309DF80F301846D8
:107A500005B05DF804FB00BFE422002000B587B04C
:107A60000390029113468DF8073000230593039B82
:107A70001B781A46114B9B5C002B09D0039B0433E7
:107A80009DF807200299184601F0B8FD05900FE017
:107A9000039B1B781A46094B9B5C002B08D1039B68
:107AA0000C339DF807200299184600F053FF05900B
:107AB000059B184607B05DF804FB00BFE4220020D8
:107AC00084B00190019B9B680393019BDA68039B40
:107AD000D31A184604B0704700B587B001900091E2
:107AE000019B1B78022B45D0022B6ADC002B52D065
:107AF000012B66D1019B1B7A002B05D10122334952
:107B00003348FFF7ABFF5DE0019B5B681B781946CC
:107B10003048FFF712FF0590059B002B0AD0012388
:107B20008DF80C30059B04932B4B1B6803AA104661
:107B300098470DE02748FFF7C3FF0346002B07D007
:107B400000238DF80C30244B1B6803AA104698477D
:107B50002048FFF7B5FF03461E4A9288934205D896
:107B600001221A491A48FFF779FF2BE01B4B01222B
:107B70001A7027E002238DF80C30019BDB68049318
:107B8000012212491248FFF769FF134B1B6803AA31
:107B90001046984716E012491248FFF7E9FE0346DF
:107BA000002B05D101220E490948FFF7F7FE09E035
:107BB00003238DF80C30084B1B6803AA1046984726
:107BC00000E000BF00BF07B05DF804FBAC2200205E
:107BD00060220020B0220020A4220020AD2200203C
:107BE000A8220020C022002030B591B0039002915D
:107BF00001928DF803303C4A019B1360029B002BDD
:107C000001D107236DE0029B1968029B5B689BB260
:107C10001A463648FFF765FE0F900F9B0E930E9B9A
:107C2000002B01D00E9B5CE0029B9968029BDB68F5
:107C30009BB21A462E48FFF754FE0F900F9B0D93F0
:107C40000D9B002B01D00D9B4BE02A4B04AC1D4635
:107C50000FCD0FC495E80F0084E80F00039B5B690C
:107C60000A93039B1B7C002B14BF01230023DBB270
:107C70008DF824309DF803308DF82C30039B5B7C0D
:107C8000002B01D00E2300E000238DF82530039B4C
:107C9000DB680693039B9B680793039B1B68059314
:107CA000039B5B68049304AB134A1946134800F026
:107CB0005FF90F900F9B0C930C9B002B01D00C9B3A
:107CC0000FE00F4B00221A70039B1B68B3F1FF3FBC
:107CD00006D001220B490948FFF7C0FE034600E029
:107CE0000023184611B030BDA4220020B02200208D
:107CF000C022002090A40200D97A02006022002055
:107D0000AD220020AC22002000B587B00190019B7D
:107D1000002B03D11449CA2000F0C3F8134B1B7881
:107D20008DF8173001991248FFF722FE04909DF854
:107D30001730002B12D00D4B00221A7001220D4972
:107D40000D48FFF78BFE0390039B0293029B002BD1
:107D500004D0054AD6210298FFF73EFD049B184641
:107D600007B05DF804FB00BFB0A40200AD22002004
:107D7000B0220020AC2200206022002000B585B097
:107D800003468DF807309DF8073019461048FFF775
:107D9000D4FD0390039B002B15D10E48FFF730FE56
:107DA000034683F00103DBB2002B0CD00A490848DC
:107DB000FFF7DEFD0346002B05D1012206490548E9
:107DC000FFF7ECFD0390039B184605B05DF804FB3C
:107DD000C022002060220020A822002072B600BF2E
:107DE000034B1B680133024A136000BF704700BF9A
:107DF000D0220020064B1B68013B054A1360044B50
:107E00001B68002B01D162B600BF00BF704700BFE6
:107E1000D022002000B583B0019000F025F8034681
:107E2000012B03D00449432000F03BF8FFF7D6FFB5
:107E300000BF03B05DF804FB04A5020000B583B0E9
:107E400003468DF8073000F00FF80346012B03D0EE
:107E50000449512000F025F8FFF7CCFF00BF03B024
:107E60005DF804FB04A5020084B0EFF305830193E1
:107E7000019BC3F308030393039B002B0DD1EFF386
:107E800014830093009B0293029B03F00103002BD9
:107E90000CBF01230023DBB200E00123184604B02D
:107EA000704700B585B003460091ADF80630BDF8C7
:107EB00006300293009B039302AB1A46002144F262
:107EC0000200FFF797FC00BF05B05DF804FB00005F
:107ED00000B589B001900091009B0793019B1B782E
:107EE0008DF80C30019B5B680493019B9B68DBB2AF
:107EF0008DF81430019BDB680693074A079B52F804
:107F000023300649079A51F8221003AA10469847D1
:107F100000BF09B05DF804FBD4220020DC22002061
:107F200000B589B001900091009B0793019B1B78DD
:107F30008DF80C30019B5B680493019B9B68DBB25E
:107F40008DF81430019BDB680693074A079B52F8B3
:107F500023300649079A51F8221003AA1046984781
:107F600000BF09B05DF804FBD4220020DC22002011
:107F700030B58FB0039002910192039B1B780C9354
:107F80002C490C9B019A41F82320029B1A692A492B
:107F90000C9B41F823200C9B012B07D1029B5B7F9C
:107FA000002B03D125497620FFF77BFF029B5B7FE7
:107FB0001946234A0C9B13440A461A70029B04ACD0
:107FC0001D460FCD0FC495E80F0084E80F000C9BF1
:107FD000089300230D93039B1B781A46184B9B5C58
:107FE000002B0DD0039B181D019B002B01D0154ABF
:107FF00000E0002204AB194601F0C2F90D9014E034
:10800000039B1B781A460E4B9B5C002B0DD1039BE8
:1080100003F10C00019B002B01D00B4A00E0002271
:1080200004AB194600F002FB0D900D9B18460FB0F3
:1080300030BD00BFD4220020DC2200205CA502005D
:10804000E4220020D17E0200217F020008B5064B09
:108050001B68002B03D105495120FFF722FF024B7B
:108060001B68984708BD00BFE8220020ACA50200AD
:1080700082B00190019B044A934201D1034B00E07E
:108080000023184602B0704700200040E82200207C
:1080900000B587B001900091019B002B03D11849D6
:1080A0007720FFF7FEFE0198FFF7E2FF0490049BA4
:1080B000002B1ED000238DF817300020FFF7AAFEFA
:1080C000049B1B79002B03D001238DF8173005E0AA
:1080D000049B009A1A60049B01221A710020FFF78A
:1080E000ADFE9DF81730002B03D011230393039BA3
:1080F00002E000230393039B184607B05DF804FBDE
:10810000ACA5020082B003468DF807309DF9073018
:10811000002B0CDB9DF8073003F01F0205499DF989
:1081200007305B09012000FA02F241F8232000BF6A
:1081300002B0704700E100E082B0034600918DF884
:1081400007309DF90730002B0ADB009BDAB20C499F
:108150009DF907305201D2B20B4483F800230BE0A3
:10816000009BDAB207499DF8073003F00F03043B88
:108170005201D2B20B441A7600BF02B0704700BF62
:1081800000E100E000ED00E082B00190019B1B0BDC
:108190005BB2184602B0704700B583B003460A468A
:1081A0008DF8073013468DF806309DF80630072B02
:1081B00003D908496B20FFF774FE9DF806209DF94E
:1081C000073011461846FFF7B7FF00BF03B05DF850
:1081D00004FB00BFFCA5020000B583B003468DF888
:1081E00007309DF907301846FFF78CFF00BF03B03A
:1081F0005DF804FB84B001900B46ADF80230BDF889
:108200000230019A134400221A60BDF80230019A2C
:1082100013441B680393039B00BF04B0704782B0F4
:1082200001900B46ADF80230BDF80230019A1344BC
:108230001B68002B14BF01230023DBB2184602B0D9
:10824000704782B001900091019B009AC3F804230B
:1082500000BF02B0704782B001900091019BD3F83B
:108260000423009B1340002B14BF01230023DBB227
:10827000184602B0704782B001900091019B009AAD
:10828000C3F8082300BF02B0704784B00190019B7F
:10829000D3F880340393019B039AC3F88024039B93
:1082A000184604B0704782B00190019B0422C3F8C5
:1082B000002500BF02B0704784B003900291019284
:1082C000039B019AC3F81425039B029AC3F80C255B
:1082D00000BF04B0704784B0039002910192039BE9
:1082E000029AC3F80825039B019AC3F8102500BF22
:1082F00004B0704782B00190019BD3F81835DBB20F
:10830000184602B0704782B001900B468DF80330DA
:108310009DF80320019BC3F81C2500BF02B07047E5
:1083200082B001900B468DF803309DF80330019A1E
:10833000134401221A6000BF02B0704782B001905E
:108340000B468DF8033013468DF802309DF803205C
:108350009DF802301343DBB21A46019BC3F86C252B
:1083600000BF02B0704782B001900091019B009A5B
:10837000C3F8242500BF02B07047000000B583B0E9
:108380000190019B1B68184600F093F80346002BF0
:1083900004D10B494FF4F670FFF783FD019B1B6876
:1083A0001F2B02D84FF0A04306E0019B1B6803F08F
:1083B0001F02019B1A60034B184603B05DF804FBD3
:1083C0002CA602000003005000B585B001900846BD
:1083D00011461A4603468DF803300B468DF80230DD
:1083E00013468DF8013001AB1846FFF7C7FF039025
:1083F0009DF803209DF802305B001A439DF8013080
:108400009B001A439DF818301B0242EA03019DF8B5
:108410001C301B04019A1943039B02F5E07243F8D8
:10842000221000BF05B05DF804FB00B585B00390D5
:1084300000230193002300930023012201210398CC
:10844000FFF7C2FF00BF05B05DF804FB00B585B0C3
:1084500003900B468DF80B309DF80B3000220192F3
:1084600000220092002200210398FFF7ADFF00BF19
:1084700005B05DF804FB00B585B0019001AB18466E
:10848000FFF77CFF0390019B012202FA03F31946D8
:10849000039800F004F800BF05B05DF804FB82B05B
:1084A00001900091019B009AC3F8082500BF02B01B
:1084B000704784B00190019B5B09029300230393F2
:1084C000029B002B03D0029B012B04D007E04FF04E
:1084D000FF33039303E04FF6FF73039300BF019B49
:1084E00003F01F030193039A019B22FA03F303F0A5
:1084F0000103DBB2184604B0704700B583B00190A9
:108500000091009B1B68B3F1FF3F09D0009B1B68E3
:108510001846FFF7B0FF009B1B681846FFF785FF62
:10852000009B5B68B3F1FF3F05D0009B5B680021B7
:108530001846FFF78BFF019B1A68009B9B69194641
:108540001046FFF710FF019B1868009B597D009BA8
:108550001B7D1A46FFF7F2FE019B1868009B196805
:10856000009B5B681A46FFF7A7FE009B1B7D012B53
:1085700022D1009B9B68B3F1FF3F05D0009B9B6815
:1085800000211846FFF762FF009BDB68B3F1FF3F55
:1085900009D0009BDB681846FFF76DFF009BDB6886
:1085A0001846FFF742FF019B1868009BD968009BA3
:1085B0009B681A46FFF78FFE00BF03B05DF804FB0F
:1085C00000B583B001900B468DF80330019B1B680A
:1085D0004FF48E711846FFF70DFE019B1B684FF498
:1085E000A2711846FFF706FE019B1B680E4918464C
:1085F000FFF727FE019B1B681846FFF7C5FD0346E2
:108600001A469DF8033019461046FFF7C5FD019B39
:108610001B681846FFF7B8FD03461846FFF7DCFD58
:1086200000BF03B05DF804FB8000020000B587B016
:10863000039002910192029B002B03D12D49AA20A5
:10864000FFF72FFC039B1B791A462C2302FB03F335
:10865000294A1344059300230493059B93F82A3079
:10866000002B03D008230493049B3EE0039B1A686D
:10867000039B1B791946214B53F8213019461046AC
:10868000FFF706FD0346002B03D011230493049B40
:108690002BE002990398FFF730FF059B019A5A607F
:1086A000029B1A69059B1A60059B5B68002B05D02D
:1086B000029B1B7F19460398FFF782FF039B1B68F1
:1086C0001846FFF7F0FD059B00229A61059B0022EA
:1086D000DA61059B002283F82920059B00225A615C
:1086E000059B012283F82A20049B184607B05DF8F9
:1086F00004FB00BF5CA60200F0220020ACA6020032
:1087000000B585B0019000914FF48E710198FFF78C
:1087100071FD009B9A68009B1B6A13441B788DF8BF
:108720000F30009B1B6A5A1C009B1A629DF80F3089
:1087300019460198FFF7E7FD00BF05B05DF804FB9F
:1087400000B585B001900091009B5B69039316E032
:10875000009B93F82830DBB2002B01D0002314E0FB
:108760004FF48E710198FFF75AFD034683F0010321
:10877000DBB2002BECD100990198FFF7C1FF009B01
:108780001B6A039A9A42EBD80123184605B05DF89C
:1087900004FB000000B587B0039002910192039B97
:1087A0001B791A462C2302FB03F33C4A134404931F
:1087B000049B93F82A30012B04D039494FF48C7074
:1087C000FFF76FFB029B002B04D1354940F21910D3
:1087D000FFF767FB019B002B04D131494FF48D70EB
:1087E000FFF75FFB039800F05DF80346002B03D012
:1087F00011230593059B4CE0049B019A5A61049B4D
:10880000029A9A60049B00221A62049B002283F859
:10881000282000230593039B1B684FF48E71184694
:10882000FFF7E8FC039B1B6808211846FFF778FD5B
:10883000039B1B6804991846FFF762FF049B5B6863
:10884000002B25D1039B1B6804991846FFF778FF7E
:10885000034683F00103DBB2002B02D00F23059304
:1088600013E000BF039B1B684FF48E711846FFF79F
:10887000D6FC034683F00103DBB2002BF2D1039B4D
:108880001B680C211846FFF74BFD049B00225A6120
:10889000059B184607B05DF804FB00BFF0220020DE
:1088A0005CA6020082B00190019B1B791946074A21
:1088B0002C2301FB03F3134414331B68002B14BF58
:1088C00001230023DBB2184602B07047F0220020DB
:1088D00000B583B00190019B1B684FF4927118465C
:1088E000FFF788FC019B1B684FF484711846FFF763
:1088F00081FC019B1B6800211846FFF711FD00BF9A
:1089000003B05DF804FB10B582B001900091009BAC
:108910009B69002B08D14FF484710198FFF76AFC22
:108920000198FFF7E7FC13E04FF484710198FFF71B
:1089300061FC009BDA68009B5B6AD4180198FFF722
:10894000D9FC03462370009B5B6A5A1C009B5A6249
:1089500002B010BD00B589B0039002910192039B53
:108960001B791A462C2302FB03F37F4A1344069318
:10897000039B1B7919467C4A2C2301FB03F3134408
:108980002A331B78012B04D078494FF4B670FFF7D7
:1089900088FA029B002B04D1744940F26D10FFF756
:1089A00080FA019B002B04D170494FF4B770FFF798
:1089B00078FA00238DF81F30069B5B68002B06D0E9
:1089C000039B1B684FF401711846FFF754FC069B8C
:1089D0009B69002B15D0069BDB69002B0ED0069BF4
:1089E0005B68002B06D0039B1B684FF4017118468F
:1089F000FFF727FC11230593059BB0E001238DF8B9
:108A00001F309DF81F3083F00103DBB2002B0CD028
:108A1000069B019A9A61069B029ADA60069B0022E5
:108A20005A62069B0022DA6105E0069B029A1A61EF
:108A3000069B019ADA61069B93F8293083F00103C3
:108A4000DBB2002B09D09DF81F3083F00103DBB2AD
:108A5000002B02D00398FFF73BFF069B5B68002BBF
:108A600073D1039B1B684FF4A2711846FFF7C2FB3A
:108A7000039B1B684FF492711846FFF7D0FB034627
:108A80008DF81330039B1B684FF484711846FFF771
:108A9000C6FB03468DF81230039B1B684FF4A2718E
:108AA0001846FFF7BCFB03468DF811309DF81230D5
:108AB00083F00103DBB2002B0DD09DF8113083F061
:108AC0000103DBB2002B06D09DF8133083F00103C5
:108AD000DBB2002BCCD19DF81330002B0FD19DF8C9
:108AE0001130002B0BD1039B1B6806991846FFF72A
:108AF0000AFF069B9A69069B5B6A9A42B8D8069B56
:108B000000229A619DF81330002B03D003230593B4
:108B1000059B24E09DF81130002B03D00F23059313
:108B2000059B1CE0069B93F82930002B06D0039B85
:108B30001B6800211846FFF7F3FB0DE0039B1B6841
:108B400004211846FFF7ECFB06E0039B1B684FF47B
:108B500001711846FFF775FB00230593059B184626
:108B600009B05DF804FB00BFF02200205CA6020003
:108B700000B589B003900291019201238DF8103065
:108B8000029B0693019B0593039B5B68039A116804
:108B900004AA1046984700BF09B05DF804FB00B571
:108BA00087B00190009100238DF80830009B04935A
:108BB000019B9B680393019B00225A61019B5B68A8
:108BC000019A116802AA1046984700BF07B05DF8E5
:108BD00004FB00B58BB0019000914FF40071019837
:108BE000FFF739FB0346002B39D04FF492710198FF
:108BF000FFF715FB0346002B31D04FF4927101981B
:108C0000FFF7F8FA4FF401710198FFF734FB009B6E
:108C100093F8293083F00103DBB2002B03D0042149
:108C20000198FFF77DFB02238DF80C300198FFF7C8
:108C30002CFB03460693009B9B690593009BDB6816
:108C40000493009B00229A61009B0022DA61009B42
:108C50005B68009A116803AA1046984752E0042105
:108C60000198FFF7F8FA0346002B4BD04FF48471BC
:108C70000198FFF7D4FA0346002B43D000990198DE
:108C8000FFF741FE009B9A69009B5B6A9A4239D1CB
:108C9000009BDB69002B19D0009BDB680993009BCC
:108CA0005B6A0893009BDA69009B9A61009B1A69D2
:108CB000009BDA60009B0022DA61009B00225A626E
:108CC000099A08990098FFF753FF1BE0009B93F85F
:108CD000293083F00103DBB2002B03D0042101987B
:108CE000FFF71EFB4FF401710198FFF7C4FA009BD8
:108CF00000229A61009B596A009BDB681A46009823
:108D0000FFF736FF4FF48E710198FFF788FA03469C
:108D1000002B24D0009B5B690793009B1B6A079A7A
:108D20009A420DD9009B93F82830DBB283F00103FF
:108D3000DBB2002B04D000990198FFF7E1FC0EE0B4
:108D40004FF48E710198FFF755FA009B5B69002B79
:108D500005D0009B5B6919460098FFF720FF4FF490
:108D6000A2710198FFF75BFA0346002B1CD04FF469
:108D7000A2710198FFF73EFA009B93F82930002B6F
:108D800003D000210198FFF7CBFA009B9B69002BD1
:108D90000AD0009B00229A61009B596A009BDB6805
:108DA0001A460098FFF7E4FE00BF0BB05DF804FB25
:108DB00008B503490348FFF70CFF00BF08BD00BF1B
:108DC000F02200200020004082B003468DF80730DA
:108DD0009DF90730002B0CDB9DF8073003F01F02D4
:108DE00005499DF907305B09012000FA02F241F8BC
:108DF000232000BF02B0704700E100E082B00346CC
:108E000000918DF807309DF90730002B0ADB009B9D
:108E1000DAB20C499DF907305201D2B20B4483F803
:108E200000230BE0009BDAB207499DF8073003F0FE
:108E30000F03043B5201D2B20B441A7600BF02B0BA
:108E4000704700BF00E100E000ED00E082B001905B
:108E5000019B03F06043B3F1005F0CBF01230023CB
:108E6000DBB2184602B0704782B00190019B1B0B29
:108E70005BB2184602B0704700B583B003460A469D
:108E80008DF8073013468DF806309DF80630072B15
:108E900003D908496B20FFF704F89DF806209DF9D7
:108EA000073011461846FFF7A9FF00BF03B05DF871
:108EB00004FB00BFB0A6020000B583B003468DF8E6
:108EC00007309DF907301846FFF77EFF00BF03B05B
:108ED0005DF804FB84B001900B46ADF80230BDF89C
:108EE0000230019A134400221A60BDF80230019A40
:108EF00013441B680393039B00BF04B0704782B008
:108F000001900B46ADF80230BDF80230019A1344CF
:108F10001B68002B14BF01230023DBB2184602B0EC
:108F2000704782B001900091019BD3F80022009B12
:108F30001A43019BC3F8002200BF02B0704782B001
:108F400001900091019BD3F80022009BDB431A4063
:108F5000019BC3F8002200BF02B0704782B00190AD
:108F60000091019B009AC3F8042300BF02B0704730
:108F700082B001900091019B009AC3F8082300BFC2
:108F800002B0704784B00190019BD3F88034039302
:108F9000019B039AC3F88024039B184604B07047D2
:108FA00082B00190019B0822C3F8002500BF02B0E7
:108FB000704784B0039002910192039B029AC3F818
:108FC0000C25039B019AC3F8142500BF04B0704719
:108FD00084B0039002910192039B029AC3F8082582
:108FE000039B019AC3F8102500BF04B0704782B0FC
:108FF00001900B468DF803309DF80330019A13441D
:1090000001221A6000BF02B0704782B001900B4687
:109010008DF8033013468DF802309DF803209DF83B
:1090200002301343DBB21A46019BC3F86C2500BF24
:1090300002B0704782B001900091019B009AC3F882
:10904000242500BF02B0704784B0039002910192C2
:10905000029A039BC3F84425039B019AC3F8482551
:1090600000BF04B0704782B00190019BD3F84C352B
:10907000184602B0704784B0039002910192029AA0
:10908000039BC3F83425039B019AC3F8382500BF1E
:1090900004B0704782B00190019BD3F83C3518466C
:1090A00002B0704700B583B00190019B1B68184661
:1090B00000F093F80346002B04D10B494FF4F670EF
:1090C000FEF7EFFE019B1B681F2B02D84FF0A04359
:1090D00006E0019B1B6803F01F02019B1A60034B13
:1090E000184603B05DF804FBE0A602000003005040
:1090F00000B585B00190084611461A4603468DF822
:1091000003300B468DF8023013468DF8013001AB69
:109110001846FFF7C7FF03909DF803209DF8023023
:109120005B001A439DF801309B001A439DF81830EC
:109130001B0242EA03019DF81C301B04019A1943EB
:10914000039B02F5E07243F8221000BF05B05DF802
:1091500004FB00B585B00390002301930023009326
:109160000023012201210398FFF7C2FF00BF05B0D1
:109170005DF804FB00B585B003900B468DF80B300D
:109180009DF80B3000220192002200920022002163
:109190000398FFF7ADFF00BF05B05DF804FB00B515
:1091A00085B0019001AB1846FFF77CFF0390019B4F
:1091B000012202FA03F31946039800F004F800BFF5
:1091C00005B05DF804FB82B001900091019B009A0C
:1091D000C3F8082500BF02B0704784B00190019B1E
:1091E0005B09029300230393029B002B03D0029B95
:1091F000012B04D007E04FF0FF33039303E04FF659
:10920000FF73039300BF019B03F01F030193039AB5
:10921000019B22FA03F303F00103DBB2184604B00A
:10922000704700B583B001900091009B1B68B3F1BB
:10923000FF3F09D0009B1B681846FFF7B0FF009B5B
:109240001B681846FFF785FF009B5B68B3F1FF3F83
:1092500005D0009B5B6800211846FFF78BFF019B40
:109260001A68009B9B6919461046FFF7E3FE019BB5
:109270001868009B597D009B1B7D1A46FFF7C5FEB1
:10928000019B1868009B1968009B5B681A46FFF7F2
:1092900090FE009B1B7D012B22D1009B9B68B3F1AC
:1092A000FF3F05D0009B9B6800211846FFF762FF37
:1092B000009BDB68B3F1FF3F09D0009BDB681846D9
:1092C000FFF76DFF009BDB681846FFF742FF019B2D
:1092D0001868009BD968009B9B681A46FFF778FEC8
:1092E00000BF03B05DF804FB00B583B001900B46EE
:1092F0008DF80330019B1B684FF488711846FFF707
:10930000E9FD019B1B684FF490711846FFF7E2FDE1
:10931000019B1B684FF492711846FFF7DBFD019B20
:109320001B684FF4A2711846FFF7D4FD019B1B6820
:109330004FF4AC711846FFF7CDFD019B1B680F4938
:109340001846FFF70BFE019B1B681846FFF78CFDC4
:1093500003461A469DF8033019461046FFF78CFD68
:10936000019B1B681846FFF77FFD03461846FFF771
:10937000A3FD00BF03B05DF804FB00BF1003420073
:1093800000B587B0039002910192029B002B03D19C
:109390002B49CF20FEF785FD039B1B791A46134608
:1093A000DB0013449B00274A1344059300230493D6
:1093B000059B93F82030002B03D008230493049BD3
:1093C0003AE0039B1A68039B1B7919461E4B53F81E
:1093D000213019461046FEF75BFE0346002B03D0F2
:1093E00011230493049B27E002990398FFF719FFC8
:1093F000059B019A5A60029B1A69059B1A60059B9E
:109400005B68002B05D0029B1B7F19460398FFF772
:109410006BFF039B1B681846FFF7C2FD059B0022EC
:109420009A61059B0022DA61059B00225A61059B27
:10943000012283F82020049B184607B05DF804FB46
:1094400010A702001C23002060A7020000B589B00D
:10945000039002910192039B1B791A461346DB008D
:1094600013449B00574A13440693069B93F82030FD
:10947000012B04D0544940F25310FEF712FD029B19
:10948000002B04D150494FF4AA70FEF70AFD019B4E
:10949000002B04D14C4940F25510FEF702FD039B0E
:1094A0001B79002B03D1019BB3F5803F04D34649C0
:1094B0004FF4AB70FEF7F5FC0298FFF7C7FC0346CC
:1094C00083F00103DBB2002B03D010230793079B2B
:1094D00073E0039800F07AF80346002B03D01123C1
:1094E0000793079B69E0069B019A5A61069B029AC3
:1094F0009A6000230793039B1B684FF490711846F2
:10950000FFF7E8FC039B1B684FF4AC711846FFF7AC
:10951000E1FC039B1868069B9968069B5B691A46E9
:10952000FFF792FD039B1B6808211846FFF75FFDBC
:10953000069B5B68002B3FD1039B1B684FF4907127
:109540001846FFF7DCFC03468DF81730039B1B68B9
:109550004FF4AC711846FFF7D2FC03468DF8163075
:109560009DF8173083F00103DBB2002B06D09DF885
:10957000163083F00103DBB2002BDDD19DF81630ED
:10958000002B02D00F23079313E0039B1B680C21D1
:109590001846FFF72CFD00BF039B1B684FF4AC710E
:1095A0001846FFF7ACFC034683F00103DBB2002B47
:1095B000F2D1069B00225A61079B184609B05DF85C
:1095C00004FB00BF1C23002010A7020082B0019002
:1095D000019B1B791946084A0B46DB000B449B0094
:1095E000134414331B68002B14BF01230023DBB288
:1095F000184602B0704700BF1C23002000B589B098
:10960000039002910192039B1B791A461346DB00DB
:1096100013449B00864A13440593039B1B79194608
:10962000834A0B46DB000B449B00134420331B781A
:10963000012B04D07F494FF4D370FEF732FC029B1C
:10964000002B04D17B4940F2A710FEF72AFC019BB6
:10965000002B04D177494FF4D470FEF722FC039B12
:109660001B79002B03D1019BB3F5803F04D37149D3
:1096700040F2A910FEF715FC0298FFF7E7FB03463E
:1096800083F00103DBB2002B03D010230793079B69
:10969000CAE000238DF81B30059B5B68002B06D0C9
:1096A000039B1B684FF404711846FFF761FC059B90
:1096B0009B69002B15D0059BDB69002B0ED0059B09
:1096C0005B68002B06D0039B1B684FF4047118469F
:1096D000FFF744FC11230793079BA5E001238DF8B6
:1096E0001B309DF81B3083F00103DBB2002B09D047
:1096F000059B019A9A61059B029ADA60059B0022FC
:10970000DA6105E0059B029A1A61059B019ADA610C
:1097100000230793039B1B684FF488711846FFF7DB
:10972000D9FB039B1B684FF4A2711846FFF7D2FBCD
:10973000039B1B68019A02991846FFF79CFC9DF851
:109740001B3083F00103DBB2002B06D0039B1B68A8
:1097500000211846FFF74BFC05E0039B1B68202106
:109760001846FFF7DEFB039B1B791946304A0B4670
:10977000DB000B449B00134404331B68002B4BD1CC
:10978000039B1B684FF488711846FFF7B8FB03462C
:109790008DF81330039B1B684FF4A2711846FFF736
:1097A000AEFB03468DF81230039B1B684FF4927199
:1097B0001846FFF7A4FB03468DF811309DF81330CF
:1097C00083F00103DBB2002B0DD09DF8123083F043
:1097D0000103DBB2002B06D09DF8113083F00103AA
:1097E000DBB2002BCCD1039B1B791946104A0B46E8
:1097F000DB000B449B001344183300221A609DF8D1
:109800001130002B01D0032307939DF81230002B59
:1098100009D00F23079306E0039B1B684FF40471E4
:109820001846FFF79BFB079B184609B05DF804FB41
:109830001C23002010A7020000B589B003900291FC
:10984000019201238DF81030029B0693019B059332
:10985000039B5B68039A116804AA1046984700BFEF
:1098600009B05DF804FB00B587B0019000910023BA
:109870008DF80830009B0493019B9B680393019B28
:1098800000225A61019B5B68019A116802AA104686
:10989000984700BF07B05DF804FB00B589B00190A0
:1098A00000914FF492710198FFF729FB0346002BBA
:1098B00022D04FF492710198FFF70CFB02238DF830
:1098C00008300198FFF75EFB034605930198FFF708
:1098D000E1FB03460493009BDB680393009B00229B
:1098E0009A61009B0022DA61009B5B68009A116814
:1098F00002AA104698473BE04FF488710198FFF7A1
:10990000FEFA0346002B33D04FF488710198FFF71D
:10991000E1FA0198FFF7BEFB0790009B9B69079A4D
:109920009A4225D1009BDB69002B17D0009BDB6896
:10993000069320210198FFF702FB009BDA69009B48
:109940009A61009B1A69009BDA60009B0022DA6131
:10995000069A07990098FFF76FFF09E0009B002225
:109960009A61009BDB681A4607990098FFF764FF2D
:109970004FF4A2710198FFF7C2FA0346002B18D0EA
:109980004FF4A2710198FFF7A5FA009B9B69002B89
:109990000FD0009B00229A61009B0022DA6101989F
:1099A000FFF778FB0146009BDB681A460098FFF73B
:1099B00043FF4FF490710198FFF7A1FA0346002B83
:1099C00014D04FF490710198FFF784FA0C2101989C
:1099D000FFF70DFB009B5B69002B07D00198FFF799
:1099E00042FB034619460098FFF73DFF4FF4AC7168
:1099F0000198FFF784FA0346002B10D04FF4AC71A6
:109A00000198FFF767FA009B5B69002B07D001986C
:109A1000FFF729FB034619460098FFF724FF00BF14
:109A200009B05DF804FB000008B503490348FFF7DF
:109A300034FF00BF08BD00BF1C23002000200040F1
:109A400000B583B00190019B1B78022B07D1019BCD
:109A50005B680A4A4C211846FDF7BEFE0AE0019BEE
:109A60001B78012B06D1019B5B68044A50211846E4
:109A7000FDF7B2FE00BF03B05DF804FB64A702006F
:109A800030B58FB00120FDF746FE224B06AC1D46D7
:109A90000FCD0FC495E8030084E803001E4B02932A
:109AA0004FF4807303931D4B04934FF4807305931D
:109AB00002A906A807231A4AFEF796F80D900D9BF7
:109AC0000C930C9B002B04D0164AA4210C98FDF794
:109AD00083FE154800F032FB00BF0DF10703184666
:109AE000FEF712F90346002BF7D100BF9DF80730AF
:109AF0001846FEF743F90346002BF7D19DF80730CF
:109B0000712B03D09DF80730512BE5D1074800F0A9
:109B100015FBFEE7D0A702004023002040240020D0
:109B2000419A020064A70200A8A70200C4A702008D
:109B3000BFF34F8F00BF064BDB6803F4E0620449BC
:109B4000044B1343CB60BFF34F8F00BF00BFFDE753
:109B500000ED00E00400FA0582B0164B1B6801938B
:109B6000154B1B680093019B082B1FD1009B052BF5
:109B70001AD801A252F823F0919B0200959B020093
:109B8000999B02009D9B0200A19B0200A59B0200E5
:109B900001230CE001230AE0012308E0012306E091
:109BA000012304E0012302E0012300E00023184622
:109BB00002B07047300100103401001082B0164B23
:109BC0001B680193154B1B680093019B082B1FD149
:109BD000009B052B1AD801A252F823F0F59B020036
:109BE000F99B0200FD9B0200019C0200059C020003
:109BF000099C020001230CE001230AE0012308E094
:109C0000012306E0012304E0012302E0012300E038
:109C10000023184602B070473001001034010010D4
:109C200082B0164B1B680193154B1B680093019B78
:109C3000082B1FD1009B052B1AD801A252F823F044
:109C4000599C02005D9C0200619C0200659C020020
:109C5000699C02006D9C020001230CE000230AE0D5
:109C6000002308E0002306E0002304E0002302E0D4
:109C7000002300E00023184602B0704730010010B6
:109C80003401001082B0164B1B680193154B1B6802
:109C90000093019B082B1FD1009B052B1AD801A212
:109CA00052F823F0BD9C0200C19C0200C59C02003A
:109CB000C99C0200CD9C0200D19C020001230CE053
:109CC00000230AE0002308E0002306E0002304E06C
:109CD000002302E0002300E00023184602B0704792
:109CE000300100103401001082B0164B1B68019344
:109CF000154B1B680093019B082B1FD1009B052B64
:109D00001AD801A252F823F0219D0200259D0200DD
:109D1000299D02002D9D0200319D0200359D02000B
:109D200001230CE000230AE0002308E0002306E002
:109D3000002304E0002302E0002300E00023184693
:109D400002B07047300100103401001082B0164B91
:109D50001B680193154B1B680093019B082B1FD1B7
:109D6000009B052B1AD801A252F823F0859D020012
:109D7000899D02008D9D0200919D0200959D02002B
:109D8000999D020001230CE000230AE0002308E073
:109D9000002306E0002304E0002302E0002300E0AB
:109DA0000023184602B07047300100103401001043
:109DB00082B0164B1B680193154B1B680093019BE7
:109DC000082B1FD1009B052B1AD801A252F823F0B3
:109DD000E99D0200ED9D0200F19D0200F59D02004B
:109DE000F99D0200FD9D020001230CE001230AE021
:109DF000012308E0012306E0012304E0012302E03F
:109E0000012300E00023184602B070473001001023
:109E10003401001082B0164B1B680193154B1B6870
:109E20000093019B082B1FD1009B052B1AD801A280
:109E300052F823F04D9E0200519E0200559E0200F2
:109E4000599E02005D9E0200619E020000230CE00C
:109E500000230AE0002308E0002306E0012304E0D9
:109E6000012302E0012300E00023184602B07047FE
:109E7000300100103401001008B5FFF7CBFF034696
:109E8000002B07D04FF010234FF08042D3F8083258
:109E9000C2F8583500BF08BD00BF044BD3F80034EA
:109EA000002BFAD000BF00BF704700BF00E00140A8
:109EB00000B583B00190054A019BC2F80435FFF755
:109EC000EBFF00BF03B05DF804FB00BF00E0014002
:109ED000024B034A1A6000BF704700BF7422002083
:109EE0000090D00308B5FFF737FE0346002B0ED0D5
:109EF0004FF080430022C3F80C214FF08043002232
:109F0000C3F810214FF080430022C3F83825FFF733
:109F100055FE0346002B76D04FF08053734AD3F89A
:109F20000434C2F820354FF08053704AD3F8083417
:109F3000C2F824354FF080536C4AD3F80C34C2F881
:109F400028354FF08053694AD3F81034C2F82C35C5
:109F50004FF08053654AD3F81434C2F830354FF0CF
:109F60008053624AD3F81834C2F834354FF0805326
:109F70005E4AD3F81C34C2F840354FF080535B4A38
:109F8000D3F82034C2F844354FF08053574AD3F801
:109F90002434C2F848354FF08053544AD3F828345B
:109FA000C2F84C354FF08053504AD3F82C34C2F8E5
:109FB00050354FF080534D4AD3F83034C2F8543501
:109FC0004FF08053494AD3F83434C2F860354FF02B
:109FD0008053464AD3F83834C2F864354FF0805382
:109FE000424AD3F83C34C2F868354FF080533F4AB8
:109FF000D3F84034C2F86C354FF080533B4AD3F865
:10A000004434C2F87035FFF70BFE0346002B02D034
:10A01000374B384A1A60FFF735FE0346002B03D052
:10A02000354BFB22C3F81825FFF75EFE0346002BD5
:10A030000AD0324B1B6823F00F02314B1B6803F030
:10A040000F032E4913430B60FFF780FE0346002BDE
:10A0500003D02C4B4FF400721A60FFF7A9FE0346A1
:10A06000002B0DD04FF08043D3F8003403F00103F0
:10A07000002B05D04FF080436FF00102C3F800249D
:10A08000214BD3F88830204A43F47003C2F888305B
:10A09000BFF34F8F00BFBFF36F8F00BFFFF7ECFE22
:10A0A0004FF01023D3F80032002B05DB4FF01023C4
:10A0B000D3F80432002B15DA0120FFF7F9FE4FF038
:10A0C00010231222C3F80022FFF7E6FE4FF0102300
:10A0D0001222C3F80422FFF7DFFE0020FFF7E8FE9C
:10A0E000FFF726FDFFF7F4FE00BF08BD00C00040EB
:10A0F0008C5600404881030000F00040E40E004010
:10A10000580200104096024000ED00E042F27C212F
:10A11000C2F20001096800F000B880B50B468DF866
:10A1200003000DF103000121012200F01FF80028B7
:10A130009DF8030008BF4FF0FF3008BD38B5044656
:10A1400042F27C20C2F200000568204600F021F9AE
:10A1500002462846214600F03CF8013004D00A208F
:10A16000BDE83840FFF7D2BFC04338BDF8B51D4643
:10A1700017460C460646184600F00FF8002803D490
:10A1800007FB04F2A24201D20020F8BD2846314666
:10A1900000F01FF8B0FBF4F0F8BD42F27C21C2F2EF
:10A1A000000142F278220968091AC2F2000218BFBF
:10A1B00001211268121A18BF0122114042F28022B6
:10A1C000C2F200021268101A18BF01200840404273
:10A1D0007047006800F0B7B842F24C50C2F200007D
:10A1E0000321016141614AF2F971C0F2020181610A
:10A1F00042F2F452C2F20002C2614FF48062026283
:10A20000002282624262C262016642F6F411C2F228
:10A2100000014166102181660267C2664267BFF392
:10A220005F8F0F214AF2E872C0F20202535C00F81D
:10A23000013B0139FAD2BFF35F8F70470146C06816
:10A240000A6982426FEA000010449CBF8968084492
:10A2500070472DE9F0411546884604464068D4E928
:10A26000021630448F1BBA42414605D200F0A6F8D0
:10A270003544BFF35F8F0BE03A4600F09FF808EBE0
:10A280000701ED1B60682A4600F098F8BFF35F8F66
:10A29000E560BDE8F0812DE9F8431446884605469F
:10A2A000C7684FF000092869F943B8420844A96813
:10A2B00098BF0844CE1BB04238BF06466868A64225
:10A2C000384428BF26464146324600F077F8A86851
:10A2D000F1190F1A18BF0F46BFF35F8FEF60A41B71
:10A2E000B044B144DFD14846BDE8F88370B50D46AF
:10A2F00000EB400042F24C51C2F2000101EBC00001
:10A3000000F11806C06A022817D01446012807D0A9
:10A3100020B93046FFF792FFA04207D200240AE09E
:10A320003046FFF78BFFA04238BF0446304629462F
:10A330002246FFF78EFF204670BD30462946BDE815
:10A340007040FFF7A8BFF8B51446064642F24C50DD
:10A35000C2F200000D460078002808BFFFF73CFF5E
:10A36000EFF311874FF0200181F311883046294621
:10A370002246FFF7BBFF87F31188F8BD082907D3F2
:10A38000416042F60421C2F2000108600021016030
:10A390007047017881B100214FF001324358C2FA71
:10A3A00053F30431002BF9D093FAA3F0B0FA80F004
:10A3B00001EBD00004387047002070475AB3844640
:10A3C00090EA01039B071FD1830707D011F8013BD7
:10A3D00000F8013B013AF7D11CE08446203A09D34A
:10A3E0002DE9F007B1E8F807A0E8F807203AF9D21C
:10A3F000BDE8F0071C3205D451F8043B40F8043B9B
:10A40000043AF9D2043205D011F8013B00F8013BBF
:08A41000013AF9D160467047E2
:10A418002E2E2F2E2E2F2E2E2F2E2E2F2E2E2F2E4F
:10A428002E2F6D6F64756C65732F6E7266782F684A
:10A43800616C2F6E72665F6770696F2E680000002E
:10A44800433A5C55736572735C48495C4465736B49
:10A45800746F705C70696B6161615C6E5246353215
:10A468005F646F6E676C655C636F6D706F6E656E51
:10A4780074735C626F617264735C626F617264733F
:10A488002E6300000608290CFFFFFFFFFFFFFFFFF8
:10A49800FFFFFFFFFFFFFFFF0000000000000000BC
:10A4A8000000D60106010000433A5C5573657273DB
:10A4B8005C48495C4465736B746F705C70696B6170
:10A4C80061615C6E524635325F646F6E676C655CC5
:10A4D800636F6D706F6E656E74735C6C69627261C8
:10A4E800726965735C756172745C6170705F7561C7
:10A4F80072745F6669666F2E63000000433A5C55AC
:10A50800736572735C48495C4465736B746F705C07
:10A5180070696B6161615C6E524635325F646F6E63
:10A52800676C655C636F6D706F6E656E74735C6C81
:10A5380069627261726965735C7574696C5C61707B
:10A54800705F7574696C5F706C6174666F726D2E84
:10A5580063000000433A5C55736572735C48495C5C
:10A568004465736B746F705C70696B6161615C6E7C
:10A57800524635325F646F6E676C655C696E7465F0
:10A5880067726174696F6E5C6E7266785C6C656721
:10A598006163795C6E72665F6472765F756172740E
:10A5A8002E630000433A5C55736572735C48495CDE
:10A5B8004465736B746F705C70696B6161615C6E2C
:10A5C800524635325F646F6E676C655C6D6F64759B
:10A5D8006C65735C6E7266785C64726976657273BA
:10A5E8005C7372635C7072735C6E7266785F7072B3
:10A5F800732E63002E2E2F2E2E2F2E2E2F2E2E2F23
:10A608002E2E2F2E2E2F696E746567726174696FF6
:10A618006E2F6E7266782F6E7266785F676C7565DE
:10A628002E6800002E2E2F2E2E2F2E2E2F2E2E2F60
:10A638002E2E2F2E2E2F6D6F64756C65732F6E72F4
:10A6480066782F68616C2F6E72665F6770696F2E0F
:10A6580068000000433A5C55736572735C48495C56
:10A668004465736B746F705C70696B6161615C6E7B
:10A67800524635325F646F6E676C655C6D6F6475EA
:10A688006C65735C6E7266785C6472697665727309
:10A698005C7372635C6E7266785F756172742E6348
:10A6A80000000000B18D02002E2E2F2E2E2F2E2EF0
:10A6B8002F2E2E2F2E2E2F2E2E2F696E7465677239
:10A6C8006174696F6E2F6E7266782F6E7266785F2E
:10A6D800676C75652E6800002E2E2F2E2E2F2E2EBD
:10A6E8002F2E2E2F2E2E2F2E2E2F6D6F64756C650C
:10A6F800732F6E7266782F68616C2F6E72665F6753
:10A7080070696F2E68000000433A5C557365727378
:10A718005C48495C4465736B746F705C70696B610D
:10A7280061615C6E524635325F646F6E676C655C62
:10A738006D6F64756C65735C6E7266785C64726963
:10A74800766572735C7372635C6E7266785F75614E
:10A758007274652E63000000299A0200433A5C5522
:10A76800736572735C48495C4465736B746F705CA5
:10A7780070696B6161615C6E524635325F646F6E01
:10A78800676C655C6578616D706C65735C6A657330
:10A798006963615C756172745C6D61696E2E6300DA
:10A7A8000D0A55415254206578616D706C652073AF
:10A7B8007461727465642E0D00000000200D0A4556
:10A7C800786974210D0000002A0000002D000000A7
:10A7D8002B0000002C0000000000000000E0D70162
:10A7E800000000000000545452205245474745538A
:0AA7F800005465726D696E616C001B
:10A804000000000000200040000000000020004084
:10A81400000000000090D0034025002044250020C3
:04A8240048250020A3
:0400000320007385E1
:00000001FF
