:020000022000DC
:10700000000004201972020001720200F104030062
:1070100005720200077202000972020000000000FF
:107020000000000000000000000000000B720200E1
:107030000D720200000000000F72020011720200C7
:10704000319102001372020041910200137202009A
:1070500013720200137202008D8B02001372020081
:107060001372020013720200137202001372020004
:1070700013720200137202001372020013720200F4
:1070800013720200D504030013720200137202008F
:1070900013720200137202001372020013720200D4
:1070A00013720200137202001372020013720200C4
:1070B00013720200137202000000000000000000C2
:1070C00013720200137202001372020013720200A4
:1070D00013720200137202001372020019B402004C
:1070E000137202001372020013720200000000000B
:1070F0000000000013720200000000001372020082
:10710000000000000000000000000000000000007F
:10711000000000000000000000000000000000006F
:10712000000000000000000000000000000000005F
:10713000000000000000000000000000000000004F
:10714000000000000000000000000000000000003F
:10715000000000000000000000000000000000002F
:10716000000000000000000000000000000000001F
:10717000000000000000000000000000000000000F
:1071800000000000000000000000000000000000FF
:1071900000000000000000000000000000000000EF
:1071A00000000000000000000000000000000000DF
:1071B00000000000000000000000000000000000CF
:1071C00000000000000000000000000000000000BF
:1071D00000000000000000000000000000000000AF
:1071E000000000000000000000000000000000009F
:1071F000000000000000000000000000000000008F
:10720000FEE7FEE7FEE7FEE7FEE7FEE7FEE7FEE756
:10721000FEE7FEE700F002B8FFF7FCBF0F484FF0B3
:107220000701884385460E4880470E48016841F4AF
:1072300070010160BFF34F8FBFF36F8F00F01AB87A
:1072400009480A490A4A884207D0521A05D00378E9
:1072500001300B700131013AF9D170470000042070
:10726000257E020088ED00E0E83303006022002064
:107270007C22002039493A480A1A02D00722914359
:107280008D46384938480A1A06D00722914381F3BF
:107290000988022282F3148834483549354A00F0BF
:1072A0003EF835483549364A00F039F83548364910
:1072B000364A00F034F836483649374A00F02FF89D
:1072C00036483749374A00F02AF837483749384AAC
:1072D00000F025F837483849384A00F020F8384897
:1072E0003849002200F033F837483849002200F0CE
:1072F0002EF837483749091A0BF0D2FE364A904724
:1073000024482549884205D00268043003B49047D8
:1073100003BCF7E700200021304A9047FEE788428F
:1073200014D0521A12D003460B43134303242342B2
:1073300006D1036804300B600431043AF9D1704778
:10734000037801300B700131013AF9D1704788425E
:1073500002D002700130FAE77047000000000420FC
:1073600000E003200000042000000420804B030004
:107370007C220020C0220020E0730200E0730200A3
:10738000AE330300804B03007C2200207C220020CF
:107390000434030004340300043403000434030001
:1073A00004340300043403000434030004340300F1
:1073B0007D4B0300C44B0300C0220020C0220020EC
:1073C000C0220020AC280020AC280020AC280020DF
:1073D000AC280020AC48002041720200DD7402009D
:1073E00082B00190019B184602B0704700B583B08F
:1073F00003468DF807309DF807300E2B45D801A2C3
:1074000052F823F08B7402008B7402004174020066
:107410004D7402008B7402008B7402008B740200A6
:107420008B740200697402007F740200857402008C
:107430008B7402008B740200557402005D740200AC
:1074400005F02BFC062000F0EDF921E0062000F00D
:10745000CFF91DE0062000F0CBF919E005F0D6FBCE
:10746000062000F0DFF913E004F0E0F9034683F0B2
:107470000103DBB2002B0AD005F0C2FB07E005F0E8
:10748000FFFB05E005F0D6FB02E000BF00E000BF17
:1074900000BF03B05DF804FB08B5012204210248D7
:1074A00008F0DFF800BF08BD5834030008B500221B
:1074B0000421024808F0D5F800BF08BD5834030085
:1074C00008B5032000F06DFA00BF08BD08B5002024
:1074D00000F02AFA0346184608BD000000B587B040
:1074E000FFF7EEFF00F0D4FD0590059B0493049B8D
:1074F000002B04D02A4A6321049804F095FD294802
:1075000005F0A6FA2848FFF76BFF0390039805F0F3
:107510000BFF0590059B0293029B002B04D0204A91
:107520007521029804F080FD05F040FB0590059B55
:107530000193019B002B04D0194A7A21019804F091
:1075400073FD00BF05F076FE0346002BFAD1FFF76E
:10755000BDFF03468DF803309DF80330002B0CD09F
:10756000124B1B7883F00103DBB2002B05D0FFF731
:1075700093FF0E4B01221A700FE09DF8033083F049
:107580000103DBB2002B08D0084B1B78002B04D082
:10759000FFF78CFF054B00221A7020BFD1E700BF18
:1075A0008C340300DC34030058340300C022002074
:1075B000BFF34F8F00BF064BDB6803F4E062044962
:1075C000044B1343CB60BFF34F8F00BF00BFFDE7F9
:1075D00000ED00E00400FA0500B583B00190019BC6
:1075E0001B68184600F0E0F80346002B04D10B4955
:1075F0004FF4F67008F0E0FF019B1B681F2B02D8C8
:107600004FF0A04306E0019B1B6803F01F02019BA3
:107610001A60034B184603B05DF804FBE83403001E
:107620000003005000B585B00190084611461A4687
:1076300003468DF803300B468DF8023013468DF863
:10764000013001AB1846FFF7C7FF03909DF80320F8
:107650009DF802305B001A439DF801309B001A43ED
:107660009DF818301B0242EA03019DF81C301B04F0
:10767000019A1943039B02F5E07243F8221000BF00
:1076800005B05DF804FB00B585B0039000230193BD
:10769000002300930023012201210398FFF7C2FF7A
:1076A00000BF05B05DF804FB00B585B003900B4644
:1076B0008DF80B309DF80B300022019200220092D1
:1076C000002200210398FFF7ADFF00BF05B05DF871
:1076D00004FB00B585B0019001AB1846FFF77CFFB5
:1076E0000390019B012202FA03F31946039800F06C
:1076F00047F800BF05B05DF804FB00B585B0019008
:1077000001AB1846FFF768FF0390019B012202FAC4
:1077100003F31946039800F03DF800BF05B05DF88B
:1077200004FB00B583B001900091009B002B03D1B6
:107730000198FFF7E2FF02E00198FFF7CAFF00BFE0
:1077400003B05DF804FB00B585B0019001AB1846AD
:10775000FFF742FF0390039800F00AF80246019BEE
:1077600022FA03F303F00103184605B05DF804FBA9
:1077700082B00190019BD3F81035184602B07047D3
:1077800082B001900091019B009AC3F8082500BFC8
:1077900002B0704782B001900091019B009AC3F83B
:1077A0000C2500BF02B0704784B00190019B5B09BB
:1077B000029300230393029B002B03D0029B012B17
:1077C00004D007E04FF0FF33039303E04FF6FF735D
:1077D000039300BF019B03F01F030193039A019BD6
:1077E00022FA03F303F00103DBB2184604B070473A
:1077F00000B583B00190019B032B03D907494120B9
:1078000008F0DAFE064A019B13441B780021184653
:10781000FFF787FF00BF03B05DF804FB18350300D6
:107820005435030000B583B00190019B032B03D9AD
:107830000749472008F0C0FE064A019B13441B7805
:1078400001211846FFF76DFF00BF03B05DF804FB90
:10785000183503005435030000B583B000230193AD
:1078600005E00198FFF7DEFF019B01330193019BC7
:10787000032BF6D900BF00BF03B05DF804FB000086
:1078800008B54FF01023D3F8043303F00703072B98
:1078900021D1124B0122C3F8042500BF0F4BD3F8AE
:1078A0000034002BFAD04FF01023D3F8043323F028
:1078B00007034FF0102243F00403C2F80433074BD0
:1078C0000022C3F8042500BF044BD3F80034002B7A
:1078D000FAD0FFF76DFE00BF08BD00BF00E0014019
:1078E00000B583B04FF08043D3F8403603F0010376
:1078F000002B01D0FFF7C4FF0023019309E0094AE0
:10790000019B13441B781846FFF7BDFE019B013312
:107910000193019B032BF2D9FFF79EFF00BF03B039
:107920005DF804FB5435030000B585B00190019B60
:10793000002B03D00F49AC2008F03EFE262318464A
:10794000FFF701FF0346002B14BF012300238DF82E
:107950000F309DF80F30002B14BF01230023DBB242
:1079600083F00103DBB203F00103DBB2184605B07C
:107970005DF804FB1835030000B583B000230193C4
:1079800007E0262303211846FFF78EFE019B0133F3
:107990000193019B002BF4D000BF00BF03B05DF842
:1079A00004FB00B583B00190019B03F00103002BA1
:1079B00001D0FFF795FF019B03F00203002B01D0DC
:1079C000FFF7DAFF00BF03B05DF804FB00B587B036
:1079D0000390029101920F4B1B68002B03D10E49BB
:1079E0002F2008F0E9FD019B04331B6804AA0B4912
:1079F00018460BF01DF9049BDBB20E338DF81730DF
:107A0000044B1B689DF817201046984700BF07B02D
:107A10005DF804FB1C230020583503009C3503004F
:107A200000B587B00390029101920E4B1B68002BAA
:107A300003D10D49392008F0BFFD019B04331B68B9
:107A400004AA0A4918460BF0F3F8049B8DF8173086
:107A5000044B1B689DF817201046984700BF07B0DD
:107A60005DF804FB1C230020583503009C350300FF
:107A7000BFF34F8F00BF064BDB6803F4E06204499D
:107A8000044B1343CB60BFF34F8F00BF00BFFDE734
:107A900000ED00E00400FA0582B0164B1B6801936C
:107AA000154B1B680093019B082B1FD1009B052BD6
:107AB0001AD801A252F823F0D17A0200D57A020036
:107AC000D97A0200DD7A0200E17A0200E57A02004A
:107AD00001230CE001230AE0012308E0012306E072
:107AE000012304E0012302E0012300E00023184603
:107AF00002B07047300100103401001082B0164B04
:107B00001B680193154B1B680093019B082B1FD129
:107B1000009B052B1AD801A252F823F0357B0200F6
:107B2000397B02003D7B0200417B0200457B020065
:107B3000497B020001230CE001230AE0012308E055
:107B4000012306E0012304E0012302E0012300E019
:107B50000023184602B070473001001034010010B5
:107B600082B0164B1B680193154B1B680093019B59
:107B7000082B1FD1009B052B1AD801A252F823F025
:107B8000997B02009D7B0200A17B0200A57B020085
:107B9000A97B0200AD7B020001230CE000230AE078
:107BA000002308E0002306E0002304E0002302E0B5
:107BB000002300E00023184602B070473001001097
:107BC0003401001082B0164B1B680193154B1B68E3
:107BD0000093019B082B1FD1009B052B1AD801A2F3
:107BE00052F823F0FD7B0200017C0200057C0200BC
:107BF000097C02000D7C0200117C020001230CE0D4
:107C000000230AE0002308E0002306E0002304E04C
:107C1000002302E0002300E00023184602B0704772
:107C2000300100103401001082B0164B1B68019324
:107C3000154B1B680093019B082B1FD1009B052B44
:107C40001AD801A252F823F0617C0200657C020080
:107C5000697C02006D7C0200717C0200757C020070
:107C600001230CE000230AE0002308E0002306E0E3
:107C7000002304E0002302E0002300E00023184674
:107C800002B07047300100103401001082B0164B72
:107C90001B680193154B1B680093019B082B1FD198
:107CA000009B052B1AD801A252F823F0C57C0200D4
:107CB000C97C0200CD7C0200D17C0200D57C020090
:107CC000D97C020001230CE000230AE0002308E035
:107CD000002306E0002304E0002302E0002300E08C
:107CE0000023184602B07047300100103401001024
:107CF00082B0164B1B680193154B1B680093019BC8
:107D0000082B1FD1009B052B1AD801A252F823F093
:107D1000297D02002D7D0200317D0200357D0200AB
:107D2000397D02003D7D020001230CE001230AE0C1
:107D3000012308E0012306E0012304E0012302E01F
:107D4000012300E00023184602B070473001001004
:107D50003401001082B0164B1B680193154B1B6851
:107D60000093019B082B1FD1009B052B1AD801A261
:107D700052F823F08D7D0200917D0200957D020076
:107D8000997D02009D7D0200A17D020000230CE090
:107D900000230AE0002308E0002306E0012304E0BA
:107DA000012302E0012300E00023184602B07047DF
:107DB000300100103401001008B5FFF7CBFF034677
:107DC000002B07D04FF010234FF08042D3F8083239
:107DD000C2F8583500BF08BD00BF044BD3F80034CB
:107DE000002BFAD000BF00BF704700BF00E0014089
:107DF00000B583B00190054A019BC2F80435FFF736
:107E0000EBFF00BF03B05DF804FB00BF00E00140E2
:107E1000024B034A1A6000BF704700BF8422002053
:107E20000090D00308B5FFF737FE0346002B0ED0B5
:107E30004FF080430022C3F80C214FF08043002212
:107E4000C3F810214FF080430022C3F83825FFF714
:107E500055FE0346002B76D04FF08053734AD3F87B
:107E60000434C2F820354FF08053704AD3F80834F8
:107E7000C2F824354FF080536C4AD3F80C34C2F862
:107E800028354FF08053694AD3F81034C2F82C35A6
:107E90004FF08053654AD3F81434C2F830354FF0B0
:107EA0008053624AD3F81834C2F834354FF0805307
:107EB0005E4AD3F81C34C2F840354FF080535B4A19
:107EC000D3F82034C2F844354FF08053574AD3F8E2
:107ED0002434C2F848354FF08053544AD3F828343C
:107EE000C2F84C354FF08053504AD3F82C34C2F8C6
:107EF00050354FF080534D4AD3F83034C2F85435E2
:107F00004FF08053494AD3F83434C2F860354FF00B
:107F10008053464AD3F83834C2F864354FF0805362
:107F2000424AD3F83C34C2F868354FF080533F4A98
:107F3000D3F84034C2F86C354FF080533B4AD3F845
:107F40004434C2F87035FFF70BFE0346002B02D015
:107F5000374B384A1A60FFF735FE0346002B03D033
:107F6000354BFB22C3F81825FFF75EFE0346002BB6
:107F70000AD0324B1B6823F00F02314B1B6803F011
:107F80000F032E4913430B60FFF780FE0346002BBF
:107F900003D02C4B4FF400721A60FFF7A9FE034682
:107FA000002B0DD04FF08043D3F8003403F00103D1
:107FB000002B05D04FF080436FF00102C3F800247E
:107FC000214BD3F88830204A43F47003C2F888303C
:107FD000BFF34F8F00BFBFF36F8F00BFFFF7ECFE03
:107FE0004FF01023D3F80032002B05DB4FF01023A5
:107FF000D3F80432002B15DA0120FFF7F9FE4FF019
:1080000010231222C3F80022FFF7E6FE4FF01023E0
:108010001222C3F80422FFF7DFFE0020FFF7E8FE7C
:10802000FFF726FDFFF7F4FE00BF08BD00C00040CB
:108030008C5600404881030000F00040E40E0040F0
:10804000580200104096024000ED00E0044BD3F8C7
:108050000034002B14BF01230023DBB21846704705
:108060000000014008B500F0F1FA00BF08BD0000B3
:1080700008B500F005FB024B00225A7000BF08BD96
:1080800020230020014B1B78184670472023002036
:1080900000B583B000230193144B1B78002B02D052
:1080A0008523019314E0114B00229A600F4B0022AC
:1080B0005A600E4B00221A610C4B0022DA600C4809
:1080C00000F084FA019000F0A7FA084B01221A7020
:1080D000FFF7BCFF0346002B02D0044B01229A702D
:1080E000019B184603B05DF804FB00BF202300206D
:1080F0008D82020084B001900091019B1B68039364
:1081000006E0039A009B9A420DD0039B1B680393E1
:10811000039B002BF5D1019B1A68009B1A60019B01
:10812000009A1A6000E000BF04B0704784B001906C
:10813000019B1B680393039B002B03D0039B1A68CE
:10814000019B1A60039B184604B0704700B583B0CA
:108150000190234B1B78002B04D1224940F23310AD
:1081600008F02AFA1E4B5B78DBB2002B12D0019B81
:10817000002B03D0019B5B6800209847002008F08B
:1081800045F9174B5B680133154A5360002008F02E
:1081900051F917E0002008F039F9019B002B03D0BA
:1081A00001991148FFF7A6FF0D4B5B68002B01D129
:1081B000FFF758FF0A4B5B680133094A5360002000
:1081C00008F038F9064B5B68002B04D1054940F2F2
:1081D0004F1008F0F1F900BF03B05DF804FB00BFD9
:1081E000202300201C3603002823002008B5124B52
:1081F0001B78002B04D111494FF4AA7008F0DCF968
:108200000D4B5B68002B04D10C4940F2551008F06F
:10821000D3F9002008F0FAF8074B5B68013B064AE7
:108220005360054B5B68002B01D1FFF721FF002055
:1082300008F000F900BF08BD202300201C36030011
:1082400000B585B003468DF807309DF80730002B48
:1082500002D10C4B039301E00B4B03930398FFF700
:1082600065FF0290029B002B06D0029B5B689DF885
:10827000072010469847F1E700BF00BF05B05DF842
:1082800004FB00BF282300203023002000B583B06A
:1082900003468DF807309DF80730002B05D10A4BB7
:1082A00001225A700020FFF7CBFF9DF80730012B09
:1082B00005D1054B01229A700120FFF7C1FF00BFD5
:1082C00003B05DF804FB00BF2023002000B585B09B
:1082D00001900D4B1B78002B01D085230FE0019BF3
:1082E000002B01D1094B0193019800F01BFE039074
:1082F000039B002B02D1044B01221A70039B1846EA
:1083000005B05DF804FB00BF34230020683603008D
:1083100000B583B0019000F00AF8019800F030FE3B
:1083200000F04AFE0023184603B05DF804FB08B5D0
:1083300000F049FE00F04EFE00BF08BD10B487B04B
:1083400001900091019B009A53E8004F04EA02005B
:1083500043E8000191F0000FF6D1059404900391D9
:10836000059B184607B05DF8044B704782B0034682
:108370008DF807309DF90730002B0CDB9DF8073096
:1083800003F01F0205499DF907305B09012000FA3F
:1083900002F241F8232000BF02B0704700E100E084
:1083A00082B0034600918DF807309DF90730002B0D
:1083B0000ADB009BDAB20C499DF907305201D2B2B8
:1083C0000B4483F800230BE0009BDAB207499DF8C9
:1083D000073003F00F03043B5201D2B20B441A766C
:1083E00000BF02B0704700BF00E100E000ED00E018
:1083F00082B00190019B1B0B5BB2184602B0704724
:1084000000B583B003460A468DF8073013468DF851
:1084100006309DF80630072B03D908496B2008F079
:10842000CBF89DF806209DF9073011461846FFF756
:10843000B7FF00BF03B05DF804FB00BF6C3603005C
:1084400000B583B003468DF807309DF90730184614
:10845000FFF78CFF00BF03B05DF804FB82B003465A
:108460008DF807300F4A9DF90730002B00DA1F33D3
:108470005B115BB252F823209DF90730594203F09B
:108480001F0301F01F0158BF4B425BB222FA03F3F6
:1084900003F00103002B14BF01230023DBB21846B5
:1084A00002B0704700E100E082B001904FF08042DE
:1084B000019BC2F8043300BF02B0704782B0019044
:1084C0004FF08042019BC2F8083300BF02B07047F2
:1084D00082B003468DF807309DF8073003F18043E2
:1084E00001221A6000BF02B0704784B00346ADF8A5
:1084F0000630BDF8063003F1804300221A60BDF853
:10850000063003F180431B680393039B00BF04B054
:10851000704782B00346ADF80630BDF8063003F16F
:1085200080431B68002B14BF01230023DBB21846D5
:1085300002B0704782B001904FF08042019BC2F8B8
:10854000183500BF02B0704782B003468DF807307F
:108550004FF08043D3F80C3403F001129DF807303C
:1085600043F480339A420CBF01230023DBB2184648
:1085700002B0704700B583B006238DF807304FF086
:108580008040FFF735FF03461846FFF767FF0346B5
:1085900083F00103DBB2002B13D04FF08040FFF7D4
:1085A00027FF03461A469DF8073019461046FFF785
:1085B00027FF4FF08040FFF71BFF03461846FFF7E9
:1085C0003FFF00BF03B05DF804FB000000B585B0BD
:1085D0000190019B002B03D10D49A42007F0ECFF73
:1085E000002303930B4B1B79002B02D085230393AD
:1085F00008E0084A019B1360064B01221A71054BE3
:1086000000225A71039B184605B05DF804FB00BFB9
:108610009C3603003823002008B5094B1B79002B3A
:1086200003D10849BD2007F0C7FFFFF7A3FF0120D2
:10863000FFF780FF044B01221A7000BF08BD00BF86
:10864000382300209C3603004023002008B50A4B45
:108650001B79002B04D109494FF4817007F0ACFF5E
:108660004FF48070FFF741FF0120FFF71DFF00204E
:10867000FFF72EFF00BF08BD382300209C36030003
:1086800008B50F4B1B79002B04D10E494FF48570B0
:1086900007F092FF0120FFF711FF4FF48070FFF702
:1086A00024FF0420FFF714FF00BF0120FFF74CFF59
:1086B0000346002BF9D1024B00225A7100BF08BDBE
:1086C000382300209C36030008B54FF48070FFF774
:1086D00020FF0346002B14D04FF48070FFF705FFF6
:1086E0000120FFF7EBFE114B5B7983F00103DBB256
:1086F000002B06D00D4B01225A710C4B1B68002039
:1087000098474FF48270FFF704FF0346002B0AD00E
:108710004FF48270FFF7E9FE0220FFF7CFFE034B14
:108720001B680120984700BF08BD00BF3823002008
:1087300000B583B00346ADF80630BDF806301846E4
:1087400000F026F803461B68012B0CBF0123002311
:10875000DBB2184603B05DF804FB00B585B00346F4
:10876000ADF80630BDF80630184600F011F80346A3
:108770001A4600231360BDF80630184600F008F8CA
:1087800003461B680393039B00BF05B05DF804FB21
:1087900082B00346ADF80630BDF8063003F18043E1
:1087A00003F5C043184602B07047000082B0019044
:1087B000034BD3F80423019B1340184602B07047C3
:1087C0000060004082B00190054A019B03F5A2734E
:1087D00052F823301B0A03F03F03184602B07047DB
:1087E0000060004082B00190064A019B03F5A2732D
:1087F00052F823301B0C03F00303DBB2184602B01F
:10880000704700BF0060004000B583B00190019B3D
:108810001B68184600F0AAF80346002B04D10B4948
:108820004FF4F67007F0C8FE019B1B681F2B02D89F
:108830004FF0A04306E0019B1B6803F01F02019B61
:108840001A60034B184603B05DF804FB14370300AD
:108850000003005000B585B001900B468DF8033041
:1088600001AB1846FFF7D0FF0390019A039B02F576
:10887000E07253F82230019A23F44031039B02F551
:10888000E07243F82210019A039B02F5E07253F85C
:1088900022109DF803301B04019A1943039B02F533
:1088A000E07243F8221000BF05B05DF804FB00B58C
:1088B00085B0019001AB1846FFF7A6FF0390019A1F
:1088C000039B02F5E07253F822301B0C03F0030304
:1088D000DBB2184605B05DF804FB000088B00390D9
:1088E00002910192164A05AB92E8030083E8030067
:1088F000039B079319E0079B9B0020336B4453F8BD
:108900000C3CD3F82025019B1A60079B9B00203369
:108910006B4453F80C3C019A1268C3F82025019B64
:1089200004330193079B01330793039A029B13447B
:10893000079A9A42DFD300BF00BF08B0704700BF5C
:108940004437030000B585B0019001AB1846FFF72E
:108950005BFF0390019B012202FA03F31A46039B7B
:10896000C3F8202500BF05B05DF804FB84B001907A
:10897000019B5B09029300230393029B002B03D00E
:10898000029B012B04D007E04FF0FF33039303E079
:108990004FF6FF73039300BF019B03F01F03019386
:1089A000039A019B22FA03F303F00103DBB218469A
:1089B00004B0704784B001900091009B0393019B29
:1089C000DB080293019B03F0070301930122019B43
:1089D00002FA03F30399029A0A44127813401846E4
:1089E00004B0704782B00190044A019B13443033B5
:1089F00093F90030184602B0704700BF44230020AE
:108A000082B00190034A019B52F82330184602B00D
:108A1000704700BF4423002084B00190074A019BA7
:108A20001344603393F900308DF80F309DF80F3008
:108A300023F0C003184604B0704700BF4423002051
:108A400084B00190074A019B1344603393F90030CE
:108A50008DF80F309DF80F309B09DBB2184604B03B
:108A6000704700BF4423002000B585B00190019AF3
:108A700002210020FFF732FF002303930BE0039B4A
:108A80009B00019A13441B68002B01D0012306E0D0
:108A9000039B01330393039B012BF0D9002318465A
:108AA00005B05DF804FB000000B587B0019000231D
:108AB00005935BE0344A059B1344603393F900301F
:108AC000B3F1FF3F4ED00598FFF7A6FF0490019940
:108AD0000498FFF76FFF0346002B44D00598FFF77B
:108AE000AFFF03468DF80F300498FFF7E0FE034612
:108AF0008DF80E309DF80E30022B01D1032300E0DB
:108B000002238DF80D309DF80D3019460498FFF7BB
:108B1000A1FE0498FFF716FF0498FFF763FF0346D2
:108B20001846FFF76DFF0290029B002B1BD09DF8AB
:108B30000F30032B0FD09DF80E30022B03D19DF880
:108B40000F30012B07D09DF80E30032B0BD19DF871
:108B50000F30022B07D19DF80F20029B114604987D
:108B6000984700E000BF059B01330593059B032B4D
:108B7000A0D90198FFF778FF0346002B97D100BFDB
:108B800000BF07B05DF804FB4423002000B58BB0A4
:108B90000023099301AB00221A605A604FF48073DE
:108BA000ADF81E30012306930023089321E0BDF8A1
:108BB0001E301846FFF7BCFD0346002B0ED006986A
:108BC000FFF7F4FD0346002B08D0BDF81E30184611
:108BD000FFF7C3FD099A069B13430993069B5B00AD
:108BE0000693BDF81E300433ADF81E30089B0133E8
:108BF0000893089B072BDAD94FF4BE70FFF798FD56
:108C00000346002B0DD04FF4BE70FFF7A6FD099B65
:108C100043F00043099301AB1A4602210020FFF7FD
:108C20005DFE099BDBB2002B29D0012306930023B4
:108C3000089321E0069A099B1340002B16D0089850
:108C4000FFF7C0FD05900898FFF7CCFD03468DF8AF
:108C500013300898FFF7D4FE0390039B002B05D038
:108C60009DF81320039B114605989847069B5B00CF
:108C70000693089B01330893089B072BDAD9099BBD
:108C8000002B03DA01AB1846FFF70EFF00BF0BB055
:108C90005DF804FB82B003468DF807309DF907307C
:108CA000002B0CDB9DF8073003F01F0205499DF9EE
:108CB00007305B09012000FA02F241F8232000BFCF
:108CC00002B0704700E100E082B0034600918DF8E9
:108CD00007309DF90730002B0ADB009BDAB20C4904
:108CE0009DF907305201D2B20B4483F800230BE008
:108CF000009BDAB207499DF8073003F00F03043BED
:108D00005201D2B20B441A7600BF02B0704700BFC6
:108D100000E100E000ED00E082B00190019B1B0B40
:108D20005BB2184602B0704700B583B003460A46EE
:108D30008DF8073013468DF806309DF80630072B66
:108D400003D908496B2007F037FC9DF806209DF9F0
:108D5000073011461846FFF7B7FF00BF03B05DF8B4
:108D600004FB00BF9437030000B583B003468DF8C1
:108D700007309DF907301846FFF78CFF00BF03B09E
:108D80005DF804FB82B003468DF807300F4A9DF969
:108D90000730002B00DA1F335B115BB252F823203F
:108DA0009DF90730594203F01F0301F01F0158BF1E
:108DB0004B425BB222FA03F303F00103002B14BF12
:108DC00001230023DBB2184602B0704700E100E047
:108DD00084B00346ADF80630BDF8063003F1804399
:108DE00000221A60BDF8063003F180431B6803932C
:108DF000039B00BF04B0704782B00346ADF8063055
:108E0000BDF8063003F180431B68002B14BF01231B
:108E10000023DBB2184602B0704700B585B00346A8
:108E2000ADF80630BDF806301846FFF7E5FF0346FB
:108E30008DF80F309DF80F30002B04D0BDF80630B0
:108E40001846FFF7C5FF9DF80F30184605B05DF8CE
:108E500004FB82B001904FF08042019BC2F80433C2
:108E600000BF02B070474FF08043D3F80433184678
:108E7000704782B001904FF08042019BC2F80833E6
:108E800000BF02B0704782B003468DF807309DF8EE
:108E90000730002B01D0012300E000234FF0804277
:108EA000C2F8783500BF02B0704782B003468DF833
:108EB00007309DF80730002B01D0012300E000238C
:108EC0004FF08042C2F8803500BF02B0704700B555
:108ED00083B006238DF807304FF08040FFF71CFF6A
:108EE00003461846FFF74EFF034683F00103DBB24B
:108EF000002B13D04FF08040FFF70EFF03461A46B9
:108F00009DF8073019461046FFF70EFF4FF08040DE
:108F1000FFF702FF03461846FFF726FF00BF03B026
:108F20005DF804FB00B583B00190019B002B03D1D9
:108F30001149702007F040FB104B1B78002B01D02B
:108F4000852315E0019B1B78C3F34003DBB2184671
:108F5000FFF7ABFF019B1B78C3F30003DBB218469E
:108F6000FFF791FFFFF7B3FF044B01221A700023B4
:108F7000184603B05DF804FBF4370300B02300206B
:108F800000B583B00190019B002B03D10849ED206F
:108F900007F012FB00F01EF8019B1B68002B03D0AA
:108FA000019B1B68034A136000BF03B05DF804FB1C
:108FB000F4370300BC23002008B54FF46070FFF7BE
:108FC00048FF00BF08BD08B54FF46070FFF751FFC0
:108FD00000BF08BD024B00221A6000BF704700BFEF
:108FE000BC23002000B583B0FFF73DFF0190019B3B
:108FF00003F00403002B12D04FF48470FFF70DFF31
:109000000346002B0BD0464B1B68002B04D145496F
:109010004FF48B7007F0D0FA414B1B689847019BC7
:1090200003F02003002B13D04FF48A70FFF7F5FEF6
:109030000346002B0CD03C4B1B68002B04D1394954
:1090400040F21F1007F0B8FA374B1B680020984712
:10905000019B03F04003002B13D04FF48C70FFF7FB
:10906000DCFE0346002B0CD02F4B1B68002B04D1D9
:109070002C494FF4937007F09FFA2B4B1B6801208B
:109080009847019B03F08003002B13D04FF48E70A0
:10909000FFF7C3FE0346002B0CD0244B1B68002BAC
:1090A00004D1204940F22F1007F086FA1F4B1B68AD
:1090B00000209847019B03F48073002B13D04FF4DA
:1090C0009070FFF7AAFE0346002B0CD0174B1B68CD
:1090D000002B04D113494FF49B7007F06DFA134B2A
:1090E0001B6801209847019B03F40073002B13D0E9
:1090F0004FF49270FFF791FE0346002B0CD00B4B00
:109100001B68002B04D1074940F23D1007F054FAC8
:10911000064B1B680220984700BF03B05DF804FBB4
:10912000B4230020F4370300B8230020BC23002020
:1091300008B5FFF757FFFFF7C7FA00BF08BD0000EB
:1091400008B5064B1B68002B03D10549512007F0D9
:1091500033FA024B1B68984708BD00BFC0230020AC
:109160003C38030082B003468DF807309DF9073084
:10917000002B0CDB9DF8073003F01F0205499DF919
:1091800007305B09012000FA02F241F8232000BFFA
:1091900002B0704700E100E082B003468DF807306E
:1091A0009DF90730002B13DB9DF8073003F01F02F9
:1091B00009499DF907305B09012000FA02F22033CA
:1091C00041F82320BFF34F8F00BFBFF36F8F00BF65
:1091D00000BF02B0704700BF00E100E082B003466C
:1091E0008DF807309DF90730002B0DDB9DF8073017
:1091F00003F01F0206499DF907305B09012000FAC0
:1092000002F2403341F8232000BF02B0704700BF94
:1092100000E100E082B003468DF807309DF9073089
:10922000002B0DDB9DF8073003F01F0206499DF966
:1092300007305B09012000FA02F2603341F8232075
:1092400000BF02B0704700BF00E100E082B00346FB
:1092500000918DF807309DF90730002B0ADB009B49
:10926000DAB20C499DF907305201D2B20B4483F8AF
:1092700000230BE0009BDAB207499DF8073003F0AA
:109280000F03043B5201D2B20B441A7600BF02B066
:10929000704700BF00E100E000ED00E082B0019007
:1092A000019B03F06043B3F1005F0CBF0123002377
:1092B000DBB2184602B0704782B00190019B9A0061
:1092C000024B1B681344184602B07047BC390300B8
:1092D00000B583B003460A468DF8073013468DF873
:1092E00006309DF80630072B03D908496B2007F09C
:1092F00063F99DF806209DF9073011461846FFF7DF
:10930000A5FF00BF03B05DF804FB00BF8838030071
:1093100000B583B003468DF807309DF90730184635
:10932000FFF720FF00BF03B05DF804FB82B00346E7
:109330008DF807300F4A9DF90730002B00DA1F33F4
:109340005B115BB252F823209DF90730594203F0BC
:109350001F0301F01F0158BF4B425BB222FA03F317
:1093600003F00103002B14BF01230023DBB21846D6
:1093700002B0704700E100E000B583B003468DF80D
:1093800007309DF907301846FFF706FF00BF03B00E
:109390005DF804FB00B583B003468DF807309DF9F6
:1093A00007301846FFF71AFF00BF03B05DF804FB53
:1093B00000B583B003468DF807309DF90730184695
:1093C000FFF728FF00BF03B05DF804FB82B00190F7
:1093D000019B03F1804303F51C33184602B070472C
:1093E00082B00190019B03F1804303F51C331846C2
:1093F00002B0704700B583B003468DF807309DF882
:1094000007301846FFF7E2FF034601221A60BFF358
:109410006F8F00BFBFF34F8F00BF00BF03B05DF879
:1094200004FB00B583B00346ADF80630BDF8063046
:109430001846FFF7CBFF034600221A60BFF36F8F79
:1094400000BFBFF34F8F00BF00BF03B05DF804FB48
:1094500000B583B00346ADF80630BDF806301846B7
:10946000FFF7BEFF03461B68002B14BF0123002338
:10947000DBB2184603B05DF804FB00B585B00346C7
:10948000ADF80630BDF806301846FFF7E1FF034699
:109490008DF80F309DF80F30002B04D0BDF806304A
:1094A0001846FFF7BEFF9DF80F30184605B05DF86F
:1094B00004FB000082B00190034A019BC2F8043310
:1094C00000BF02B0704700BF00700240024BD3F8EB
:1094D00004331846704700BF0070024082B001900C
:1094E000034A019BC2F8083300BF02B0704700BFB7
:1094F00000700240054B0122C3F80025BFF36F8FB7
:1095000000BFBFF34F8F00BF00BF70470070024025
:10951000054B0022C3F80025BFF36F8F00BFBFF3D8
:109520004F8F00BF00BF704700700240024BD3F85E
:1095300000341846704700BF0070024082B00190AE
:10954000064A019BC2F80034BFF36F8F00BFBFF320
:109550004F8F00BF00BF02B0704700BF00700240D5
:1095600000B583B0FFF7E2FF01900198FFF7E6FF37
:10957000BFF36F8F00BFBFF34F8F00BF019B184633
:1095800003B05DF804FB000000B585B003468DF81C
:1095900007309DF8073003F00F038DF80F309DF969
:1095A0000730002B10DA9DF80F30072B04D9114932
:1095B0004FF4816007F000F80F4A9DF80F3003F573
:1095C000847352F8233010E09DF80F30072B04D934
:1095D000084940F20D4006F0EFFF074A9DF80F30B2
:1095E00003F588739B0013445B68184605B05DF86B
:1095F00004FB00BFB83803000070024000B583B020
:1096000003468DF807309DF8073003F00803002B60
:1096100001D000230AE09DF807301846FFF7B4FF99
:109620000346012B0CBF01230023DBB2184603B015
:109630005DF804FB024BD3F86C341846704700BF4A
:109640000070024082B00190064A019BC2F86C345F
:10965000BFF36F8F00BFBFF34F8F00BF00BF02B0DB
:10966000704700BF0070024000B583B0FFF7E2FF13
:1096700001900198FFF7E6FF019B184603B05DF8E3
:1096800004FB0000024BD3F88034DBB2184670476D
:1096900000700240024BD3F88434DBB218467047A6
:1096A0000070024082B0094BD3F88834ADF8063020
:1096B000064BD3F88C349BB21B029AB2BDF806302D
:1096C00013439BB2184602B0704700BF00700240BF
:1096D00082B0094BD3F89034ADF80630064BD3F87E
:1096E00094349BB21B029AB2BDF8063013439BB26E
:1096F000184602B0704700BF0070024082B0094BAC
:10970000D3F89834ADF80630064BD3F89C349BB2AE
:109710001B029AB2BDF8063013439BB2184602B042
:10972000704700BF0070024000B585B003468DF859
:1097300007309DF90730002B05DA9DF8073003F05C
:109740000F03082B0EDD9DF90730002B05DB9DF87C
:10975000073003F00F03082B04DD1C4940F25F4083
:1097600006F02AFF9DF90730002B04DA17494FF461
:109770008C6006F021FF9DF8073003F00803002BF2
:109780000CD0134BD3F8C0340393039B03F4803302
:10979000002B01D000230393039B13E09DF80730B7
:1097A00003F00803002B04D0084940F26B4006F098
:1097B00003FF074A9DF8073003F00F0303F5947386
:1097C00052F82330184605B05DF804FBB8380300A2
:1097D0000070024000B585B003468DF807309DF952
:1097E0000730002B05DA9DF8073003F00F03082B34
:1097F0000EDD9DF90730002B05DB9DF8073003F0E7
:109800000F03082B04DD184940F2714006F0D4FE26
:109810009DF90730002B04DA134940F2724006F03C
:10982000CBFE9DF8073003F00803002B04D10E494E
:1098300040F2734006F0C0FE0C4BD3F8C0340393E3
:10984000039B002B03D14FF0FF33039306E0039BF0
:1098500003F48033002B01D000230393039B1846AD
:1098600005B05DF804FB00BFB8380300007002408B
:1098700000B583B003468DF807309DF90730002B03
:1098800005DB9DF8073003F00803002B04D00C49DA
:1098900040F2834006F090FE0A4A9DF8073003F03C
:1098A0000F0303F59473002142F82310BFF36F8F69
:1098B00000BFBFF34F8F00BF00BF03B05DF804FBD4
:1098C000B838030000700240054B0122C3F804259C
:1098D000BFF36F8F00BFBFF34F8F00BF00BF704754
:1098E00000700240054B0022C3F80425BFF36F8FC0
:1098F00000BFBFF34F8F00BF00BF70470070024032
:1099000082B003468DF80730034A9DF80730C2F84D
:10991000083500BF02B070470070024000B583B048
:1099200003460A468DF8073013468DF806309DF938
:109930000730002B05DA9DF8073003F00F03082BE2
:109940000EDD9DF90730002B05DB9DF8073003F095
:109950000F03082B04DD154940F2A34006F02CFE4E
:109960009DF8073003F00803002B04D00F4940F2A4
:10997000A44006F021FE0E4A9DF80730C2F80C35CF
:10998000BFF34F8F00BF9DF807209DF806301B02E4
:109990001A43074BC3F80C25BFF36F8F00BFBFF30B
:1099A0004F8F00BF00BF03B05DF804FBB838030061
:1099B0000070024000B585B003468DF807309DF970
:1099C0000730002B05DA9DF8073003F00F03082B52
:1099D0000EDD9DF90730002B05DB9DF8073003F005
:1099E0000F03082B04DD184940F2B74006F0E4FDF0
:1099F0009DF8073003F00F038DF80F309DF9073005
:109A0000002B0EDA114BD3F810259DF80F3022FAF7
:109A100003F303F00103002B14BF01230023DBB287
:109A20000DE00A4BD3F814259DF80F3022FA03F30A
:109A300003F00103002B14BF01230023DBB21846FF
:109A400005B05DF804FB00BFB838030000700240A9
:109A500000B585B003468DF807309DF90730002B1F
:109A600005DA9DF8073003F00F03082B0EDD9DF992
:109A70000730002B05DB9DF8073003F00F03082BA0
:109A800004DD194940F2C64006F096FD9DF8073006
:109A900003F00F038DF80F309DF90730002B0CDA1F
:109AA000124BD3F810259DF80F30012101FA03F372
:109AB0000E491343C1F810350BE00C4BD3F81425B5
:109AC0009DF80F30012101FA03F308491343C1F84F
:109AD0001435BFF36F8F00BFBFF34F8F00BF00BFC0
:109AE00005B05DF804FB00BFB83803000070024009
:109AF00000B585B003468DF807309DF90730002B7F
:109B000005DA9DF8073003F00F03082B0EDD9DF9F1
:109B10000730002B05DB9DF8073003F00F03082BFF
:109B200004DD1A4940F2D74006F046FD9DF80730A3
:109B300003F00F038DF80F309DF90730002B0DDA7D
:109B4000134BD3F810259DF80F30012101FA03F3D0
:109B5000DB430F491340C1F810350CE00C4BD3F830
:109B600014259DF80F30012101FA03F3DB43084966
:109B70001340C1F81435BFF36F8F00BFBFF34F8F91
:109B800000BF00BF05B05DF804FB00BFB83803009C
:109B90000070024000B583B003468DF807309DF891
:109BA000073003F00803002B04D00B494FF49E60EC
:109BB00006F002FD9DF80730084A43F48073C2F8AE
:109BC0001835BFF36F8F00BFBFF34F8F00BF00BFCB
:109BD00003B05DF804FB00BFB8380300007002401A
:109BE00000B583B003468DF807309DF8073003F0C9
:109BF0000803002B04D00A494FF49F6006F0DCFCF8
:109C0000084A9DF80730C2F81835BFF36F8F00BFC0
:109C1000BFF34F8F00BF00BF03B05DF804FB00BF70
:109C2000B83803000070024082B003468DF8073058
:109C3000034A9DF80730C2F81C3500BF02B07047D8
:109C400000700240024BD3F81C35DBB21846704757
:109C500000700240024BD3F820351846704700BF11
:109C600000700240024B0122C3F82C2500BF704750
:109C700000700240024B0022C3F82C2500BF704741
:109C800000700240044BD3F82C35002B14BF012385
:109C90000023DBB2184670470070024082B00346D2
:109CA0008DF80730034A9DF80730C2F8303500BF01
:109CB00002B070470070024000B587B003460291C1
:109CC00001928DF80F309DF90F30002B36DA9DF898
:109CD0000F3003F00803002B08D0354A029BC2F86E
:109CE000A036334A019BC2F8A4365DE09DF80F30E0
:109CF00003F00F038DF816309DF81630072B04D9AA
:109D00002C4940F2345006F057FC29499DF81620A2
:109D100013469B0013449B000B4403F5C063029A57
:109D20001A6023499DF8162013469B0013449B009C
:109D30000B4403F20463019A1A6035E09DF80F307A
:109D400003F00803002B08D0194A029BC2F8A03781
:109D5000174A019BC2F8A43726E09DF80F3003F0A4
:109D60000F038DF817309DF81730072B04D91149D0
:109D700040F2435006F020FC0D499DF81720134691
:109D80009B0013449B000B4403F5E063029A1A60A6
:109D900007499DF8172013469B0013449B000B4472
:109DA00003F20473019A1A6000BF07B05DF804FB68
:109DB00000700240B838030082B0164B1B68019354
:109DC000154B1B680093019B082B1FD1009B052B93
:109DD0001AD801A252F823F0F19D0200F59D02006D
:109DE000F99D0200FD9D0200019E0200059E0200F9
:109DF00001230CE001230AE0012308E0012306E02F
:109E0000012304E0012302E0012300E000231846BF
:109E100002B07047300100103401001082B0164BC0
:109E20001B680193154B1B680093019B082B1FD1E6
:109E3000009B052B1AD801A252F823F0559E020070
:109E4000599E02005D9E0200619E0200659E020016
:109E5000699E020001230CE001230AE0012308E0CF
:109E6000012306E0012304E0012302E0012300E0D6
:109E70000023184602B07047300100103401001072
:109E800082B0164B1B680193154B1B680093019B16
:109E9000082B1FD1009B052B1AD801A252F823F0E2
:109EA000B99E0200BD9E0200C19E0200C59E020036
:109EB000C99E0200CD9E020000230CE001230AE0AF
:109EC000012308E0012306E0012304E0012302E06E
:109ED000012300E00023184602B070473001001053
:109EE0003401001082B0164B1B680193154B1B68A0
:109EF0000093019B082B1FD1009B052B1AD801A2B0
:109F000052F823F01D9F0200219F0200259F0200AE
:109F1000299F02002D9F0200319F020001230CE0C7
:109F200001230AE0012308E0012306E0012304E005
:109F3000012302E0012300E00023184602B070472D
:109F4000300100103401001000231846704708B596
:109F5000FFF732FF0346184608BD08B5FFF75EFF5E
:109F60000346184608BD08B5FFF78AFF03461846A2
:109F700008BD08B5FFF7B6FF0346184608BD08B58B
:109F8000FFF7E2FF0346184608BD000000B583B0A6
:109F900003468DF807309DF90730002B05DA9DF850
:109FA000073003F00F03082B0EDD9DF90730002B5F
:109FB00005DB9DF8073003F00F03082B04DD0B4988
:109FC0004FF4B97006F0F8FA9DF90730002B01DA6A
:109FD000074A00E0074A9DF8073003F00F035B00D3
:109FE00013441B88184603B05DF804FBE8380300EF
:109FF00094390300A839030000B583B003468DF8F7
:10A0000007309DF90730002B05DA9DF8073003F083
:10A010000F03082B0EDD9DF90730002B05DB9DF8A3
:10A02000073003F00F03082B04DD0C4940F29B10AE
:10A0300006F0C2FA9DF90730002B01DA084A00E069
:10A04000084A9DF8073003F00F0313441B781A46A3
:10A0500001239340184603B05DF804FBE838030081
:10A06000C0390300CC39030000B587B003900291DA
:10A0700001920093029B0493019A009B9A4204D29E
:10A0800024494FF4E97006F097FA049B1B68002BF3
:10A090000CD0049B1B681846FFF700F90346002B01
:10A0A00004D11C4940F2D31006F086FA049B5B6889
:10A0B0000593059A009B9A4207D2039B00225A609F
:10A0C000039B049A12681A6013E0039B009A5A607B
:10A0D000039B049A12681A60059A009BD31A059391
:10A0E000049B059A5A60049B1A68009B1A44049BBF
:10A0F0001A60019A009B9A4204D1059B002B01D063
:10A10000012300E0002303F00103DBB2184607B08F
:10A110005DF804FBE838030000B587B003900291B6
:10A120000192029B0493049B1B681846FFF7B6F844
:10A130000346002B04D1164940F2F91006F03CFA10
:10A14000049B5B680593059A019B9A4201D9019B88
:10A150000593039B049A12681A60039B059A5A6040
:10A16000049B5A68059BD21A049B5A60049B1A6888
:10A17000059B1A44049B1A60049B5B68002B14BF68
:10A1800001230023DBB2184607B05DF804FB00BFD3
:10A19000E838030000B587B0039002910192029B5A
:10A1A0000493049B1B681846FFF778F80346002BBE
:10A1B00004D1184940F21A2006F0FEF9049B5B68AE
:10A1C0000593059A019B9A4201D9019B0593059B32
:10A1D000002B02D0049B1B6800E00023039A13604D
:10A1E000039B059A5A60049B5A68059BD21A049BEC
:10A1F0005A60049B1A68059B1A44049B1A60059BCD
:10A20000002B14BF01230023DBB2184607B05DF812
:10A2100004FB00BFE838030000B589B00390029149
:10A220000192029B0693069B1B681846FFF736F8BF
:10A23000034683F00103DBB2002B04D11E494FF427
:10A240000E7006F0B9F9069B5B68079301F0B8FD44
:10A250000590079A019B9A4201D9019B0793079B9E
:10A26000402B04D9144940F2422006F0A5F9069B80
:10A270001B68079A1946059808F08CFF039B059AFE
:10A280001A60039B079A5A60069B5A68079BD21A6A
:10A29000069B5A60069B1A68079B1A44069B1A6025
:10A2A000069B5B68002B14BF01230023DBB218461A
:10A2B00009B05DF804FB00BFE838030000B589B0C1
:10A2C000039002910192029B0693069B1B6818461D
:10A2D000FEF7E4FF034683F00103DBB2002B04D159
:10A2E000214940F25B2006F067F9069B5B68079303
:10A2F00001F066FD0590079A019B9A4201D9019BE6
:10A300000793079B402B04D9174940F2652006F0BC
:10A3100053F9079B002B0AD0069B1B68079A194626
:10A32000059808F037FF039B059A1A6002E0039B2B
:10A3300000221A60039B079A5A60069B5A68079B83
:10A34000D21A069B5A60069B1A68079B1A44069B02
:10A350001A60079B002B14BF01230023DBB21846B1
:10A3600009B05DF804FB00BFE838030000B583B016
:10A3700003468DF807309DF90730002B05DA9DF86C
:10A38000073003F00F03082B0EDD9DF90730002B7B
:10A3900005DB9DF8073003F00F03082B04DD0549AA
:10A3A00040F2852006F008F99DF80730184603B002
:10A3B0005DF804FBE838030000B583B003468DF870
:10A3C00007309DF90730002B05DA9DF8073003F0C0
:10A3D0000F03082B0EDD9DF90730002B05DB9DF8E0
:10A3E000073003F00F03082B04DD0C4940F29220E4
:10A3F00006F0E2F89DF90730002B01DA042200E0B4
:10A4000028229DF8073003F00F03DBB29B00DBB27C
:10A410001344DBB2184603B05DF804FBE8380300D0
:10A4200000B583B003468DF807309DF90730002B47
:10A4300005DA9DF8073003F00F03082B0EDD9DF9B8
:10A440000730002B05DB9DF8073003F00F03082BC6
:10A4500004DD0B4940F2A22006F0AEF89DF907306A
:10A46000002B01DA074A00E0074A9DF8073003F0A5
:10A470000F031B011344184603B05DF804FB00BF33
:10A48000E838030070240020E023002000B583B0EA
:10A4900003468DF807309DF90730002B05DA9DF84B
:10A4A000073003F00F03082B0EDD9DF90730002B5A
:10A4B00005DB9DF8073003F00F03082B04DD0B4983
:10A4C00040F2B52006F078F89DF90730002B01DA4C
:10A4D000002200E010229DF8073003F00F03DBB2EA
:10A4E0001344DBB2184603B05DF804FBE838030000
:10A4F00082B003468DF807309DF807300F2B04D942
:10A500009DF80730103BDBB204E09DF8073063F0A4
:10A510007F03DBB2184602B07047000008B5FFF7B2
:10A5200028FD0346002B02D0034B82221A60034B06
:10A5300001221A7000BF08BD1C7C0240DC230020F1
:10A5400008B5FFF716FD0346002B02D0034B00228F
:10A550001A60034B00221A7000BF08BD1C7C024029
:10A56000DC23002000B583B003468DF807309DF84A
:10A5700007301846FFF720FF03461846FEF73AFF5C
:10A5800000BF03B05DF804FB00B583B003468DF84F
:10A5900007309DF807301846FFF780FB00BF03B077
:10A5A0005DF804FB10B586B003468DF80730002037
:10A5B00005F02CFF9DF807301846FFF731FF059096
:10A5C0009DF90730002B39DB614B1B68DC439DF89C
:10A5D00007301846FFF75AFF03461A4601239340F7
:10A5E0002340002B05D09DF80730184601F09AFC57
:10A5F00020E0059B00221A609DF807301846FFF7FF
:10A6000045FF03461A4601239340DA43504B1B682B
:10A6100013404F4A13609DF807301846FFF736FF86
:10A6200003461A4601239340DA434A4B1B68134002
:10A63000484A1360059B03229A7383E09DF8073014
:10A6400003F00803002B37D19DF80730802B1CD076
:10A650009DF8073003F00F0303F2DA333E4A5B0044
:10A6600013603E4B1B688DF812309DF8123043F09A
:10A6700002038DF81230394B1A689DF812303749B1
:10A6800013430B60354B1B6816E0334B40F2B4723A
:10A690001A60324B1B688DF813309DF8133043F06D
:10A6A00004038DF813302D4B1A689DF813302B4995
:10A6B00013430B60294B1B68264B1B68DA43244B62
:10A6C0001B6842EA03049DF807301846FFF7DEFED8
:10A6D00003461A46012393402340002B32D09DF8B5
:10A6E00007301846FFF7D2FE03461A46012393406F
:10A6F000DA43174B1B681340154A13609DF8073067
:10A700001846FFF7C3FE03461A46012303FA02F276
:10A71000104B1B6813430F4A1360059B00221A60FD
:10A72000059B03229A7306238DF80C309DF80730A1
:10A730008DF80E3003238DF80F30094B1B6803AAE8
:10A7400010469847002005F075FE00BF06B010BD0A
:10A75000D8230020D423002000780240047802404F
:10A76000CC23002000B587B0214B1B681B0C1B04B9
:10A77000204A1268134305932EE0059B0293029B27
:10A7800093FAA3F30193019B0393039B002B01D145
:10A79000202303E0039BB3FA83F3DBB28DF813307D
:10A7A0009DF813301846FFF7A3FE034603F0080395
:10A7B000002B08D19DF813301846FFF799FE034689
:10A7C0001846FFF7EFFE9DF81330012202FA03F35B
:10A7D000DB43059A13400593059B002BCDD1044B19
:10A7E00040F2FF121A6000BF07B05DF804FB00BF23
:10A7F000D4230020D823002008B52720FEF7CAFD67
:10A8000000BF08BD00B583B0094B00221A70094B88
:10A8100000221A700023019301238DF80430064BA7
:10A820001B6801AA1046984700BF03B05DF804FBFF
:10A83000D0230020D1230020CC23002000BF70476C
:10A8400000B583B080238DF80730FFF779FE9DF8BF
:10A8500007301846FFF7E4FD0090009B9B7B032B1D
:10A860000ED19DF807301846FFF710FE03461A4632
:10A8700001239340DB4319460C48FDF75FFD11E0CF
:10A88000009B1B68002B0DD19DF807301846FFF781
:10A89000FDFD03461A4601239340DB431946034856
:10A8A000FDF74CFD00BF03B05DF804FBD82300208A
:10A8B00000B585B003468DF807309DF90730002BB1
:10A8C00004DB264940F2B63005F076FE9DF80730ED
:10A8D00003F00803002B04D0204940F2B73005F004
:10A8E0006BFE9DF8073003F00F03002B04DC1B49BF
:10A8F0004FF46E7005F060FEFFF722FE9DF8073002
:10A900001846FFF78DFD0390039B9B7B032B0ED115
:10A910009DF807301846FFF7B9FD03461A46012394
:10A920009340DB4319460E48FDF708FD11E0039BF9
:10A930001B68002B0DD19DF807301846FFF7A6FDC8
:10A9400003461A4601239340DB4319460448FDF7AA
:10A95000F5FC00BF05B05DF804FB00BFE83803005C
:10A96000D823002000B585B003468DF807309DF947
:10A970000730002B04DB28494FF4757005F01CFEEE
:10A980009DF8073003F00803002B04D1224940F260
:10A99000D53005F011FEFFF7D3FD9DF807301846BE
:10A9A000FFF73EFD0390039B9B7B032B0ED19DF88D
:10A9B00007301846FFF76AFD03461A460123934005
:10A9C000DB4319461548FDF7B9FC20E0039B1B68E3
:10A9D000002B1CD19DF807301846FFF757FD0346A2
:10A9E0001A4601239340DB4319460C48FDF7A6FCA9
:10A9F00006238DF808309DF807308DF80A300023C3
:10AA00008DF80B30064B1B6802AA1046984700BF12
:10AA100005B05DF804FB00BFE8380300D823002030
:10AA2000CC23002000B585B000238DF80F30FFF750
:10AA300087FD9DF80F301846FFF7F2FC0290029B4D
:10AA40009B7B032B0ED19DF80F301846FFF71EFDA0
:10AA500003461A4601239340DB4319461548FDF788
:10AA60006DFC23E0029B1B68002B1DD19DF80F306D
:10AA70001846FFF70BFD03461A4601239340DB43BC
:10AA800019460C48FDF75AFC06238DF804309DF852
:10AA90000F308DF8063000238DF80730064B1B6809
:10AAA00001AA1046984701E001F024FA00BF05B062
:10AAB0005DF804FBD8230020CC23002000B585B02E
:10AAC00003468DF807309DF90730002B04DA2E4934
:10AAD00040F2144005F070FD9DF8073003F00803C4
:10AAE000002B04D0284940F2154005F065FD9DF883
:10AAF000073003F00F03002B04DC234940F216401B
:10AB000005F05AFDFFF71CFD9DF807301846FFF7CA
:10AB100087FC0390039B9B7B032B0ED19DF8073092
:10AB20001846FFF7B3FC03461A4601239340DB4364
:10AB300019461648FDF702FC20E0039B1B68002B1A
:10AB40001CD19DF807301846FFF7A0FC03461A46B3
:10AB500001239340DB4319460C48FDF7EFFB062326
:10AB60008DF808309DF807308DF80A3000238DF8F5
:10AB70000B30074B1B6802AA1046984700F096FA64
:10AB800000BF05B05DF804FBE8380300D8230020BF
:10AB9000CC23002000B585B003468DF807309DF822
:10ABA000073003F00803002B04D11B4940F23A4060
:10ABB00005F002FDFFF7C4FC9DF807301846FFF7CB
:10ABC0002FFC0390039B9B7B032B20D0039B1B68D4
:10ABD000002B1CD19DF807301846FFF757FC0346A1
:10ABE0001A4601239340DB4319460C48FDF7A6FBA8
:10ABF00006238DF808309DF807308DF80A300023C1
:10AC00008DF80B30064B1B6802AA1046984700BF10
:10AC100005B05DF804FB00BFE8380300D82300202E
:10AC2000CC23002008B5FFF70BFE00BF08BD08B518
:10AC30008120FFF73DFE00BF08BD08B58220FFF769
:10AC400037FE00BF08BD08B58320FFF731FE00BF07
:10AC500008BD08B58420FFF72BFE00BF08BD08B56E
:10AC60008520FFF725FE00BF08BD08B58620FFF749
:10AC70001FFE00BF08BD08B58720FFF719FE00BF03
:10AC800008BD08B58820FFF76DFE00BF08BD08B5F8
:10AC9000FFF7C8FE00BF08BD08B50120FFF70EFF93
:10ACA00000BF08BD08B50220FFF708FF00BF08BDC0
:10ACB00008B50320FFF702FF00BF08BD08B5042058
:10ACC000FFF7FCFE00BF08BD08B50520FFF7F6FE44
:10ACD00000BF08BD08B50620FFF7F0FE00BF08BDA5
:10ACE00008B50720FFF7EAFE00BF08BD08B5082039
:10ACF000FFF750FF00BF08BD00B583B000238DF8FB
:10AD00000030FEF7A7FF03469BB2ADF80230882063
:10AD1000FFF7BCFB03461A4601239340019308202A
:10AD2000FEF758FD0346B3F1FF3F09D00820FFF7B7
:10AD3000ADFB03461A4601239340019A1343019346
:10AD4000074B1A68019B1343054A1360054B1B68A8
:10AD50006A461046984700BF03B05DF804FB00BF89
:10AD6000D4230020CC23002000B585B003460A463A
:10AD70008DF8073013468DF806309DF80630012215
:10AD80009A402B4B1B681343294A13609DF90730E7
:10AD9000002B30DA9DF807301846FFF7F7F8034626
:10ADA0001846FEF76AFB0346002B0BD09DF80730D0
:10ADB000802B05D09DF807301846FFF779FD01E09C
:10ADC000FFF73EFD9DF8063001229A40194B1B68A3
:10ADD0001340002B27D106238DF80C309DF8073047
:10ADE0008DF80E3000238DF80F30134B1B6803AA2B
:10ADF0001046984717E09DF8063001229A400D4B07
:10AE00001B681340002B0ED106238DF808309DF8E7
:10AE100007308DF80A3001238DF80B30064B1B6884
:10AE200002AA1046984700BF05B05DF804FB00BFBA
:10AE3000D4230020D8230020CC23002010B5074BBA
:10AE40001C78064B1B781846FFF720FB0346194673
:10AE50002046FFF789FF00BF10BD00BFD1230020AF
:10AE600010B582B0FEF70EFC03468DF80730284B74
:10AE70001B68DB439AB2274B1B6842EA0304264B4C
:10AE80001B781846FFF702FB03461A46012393403E
:10AE90002340002B04D0204B1B781846FFF782FB81
:10AEA0009DF90730002B01DB002200E080221A4BC5
:10AEB0001A700020FFF7EAFA03461A46012303FA44
:10AEC00002F48020FFF7E2FA03461A46012393407A
:10AED0002343DB4319460F48FDF730FA8020FFF784
:10AEE000D5FA03461A46012303FA02F2084B1B68FF
:10AEF0001343074A13600023009305238DF80030A5
:10AF0000064B1B686A461046984700BF02B010BD4A
:10AF1000D4230020D8230020D1230020CC230020DC
:10AF200000B585B0FEF71CFB0390039B03F4807310
:10AF3000002B0CD0264B01221A700023029302230F
:10AF40008DF80830234B1B6802AA10469847039BD4
:10AF500003F40073002B0CD01D4B00221A70002349
:10AF6000019303238DF804301A4B1B6801AA104685
:10AF70009847039B03F48063002B24D0144B1B7869
:10AF8000DBB2002B1FD0FEF77DFE034683F00103EA
:10AF9000DBB2002B04D1104940F2F54005F00CFB68
:10AFA0000B4B00221A700120FEF7AAFC5820FEF776
:10AFB00021FA0023009304238DF80030054B1B6811
:10AFC0006A461046984700BF05B05DF804FB00BF15
:10AFD000D0230020CC230020E838030000B587B040
:10AFE000FEF742FB05902BE0059B0293029B93FA30
:10AFF000A3F30193019B0393039B002B01D1202317
:10B0000003E0039BB3FA83F3DBB28DF813309DF8B2
:10B0100013301846FFF76CFA03468DF812309DF88E
:10B020001330012202FA03F3DB43059A1340059320
:10B030009DF813209DF8123011461846FFF794FE34
:10B04000059B002BD0D100F031F800BF07B05DF8B0
:10B0500004FB86B00190019B0493049B93FAA3F335
:10B060000393039B0593059B002B01D1202303E051
:10B07000059BB3FA83F3DBB2184606B0704700B500
:10B0800085B003468DF80730FEF7DCFD03468DF8EA
:10B090000F309DF80F30802B02D14FF4007301E088
:10B0A0004FF48063184605B05DF804FB10B58AB014
:10B0B000764B1B7883F00103DBB2002B00F0E280BB
:10B0C000D4E0089B03F00123002B09D0089B03F078
:10B0D00001231846FFF7BDFF03468DF8273005E032
:10B0E0000898FFF7B6FF03468DF827309DF8273004
:10B0F0001846FFF7FDF903468DF81F309DF81F3005
:10B100001846FFF78DF90690069B1B68002B04D1AB
:10B110005F4940F2615005F04FFA9DF91F30002B56
:10B1200015DA069B1B68069A5168069A928902A84E
:10B13000984703468DF813309DF8133083F00103D0
:10B14000DBB2002B57D0069B00221A6053E09DF81B
:10B150001F30184600F03AFE0590069B1C68069BBF
:10B160005968069B9B891A4602A8059BA04703467F
:10B170008DF81330029B002B08D1039B002B30D09D
:10B18000434940F27D5005F017FA2AE0039B059AE7
:10B190009A421DD9069B02229A739DF827300122FC
:10B1A00002FA03F3DB4319463A48FDF7C7F80623D2
:10B1B0008DF804309DF81F308DF8063002238DF88D
:10B1C0000730354B1B6801AA1046984700BF4DE079
:10B1D000039B059A9A4204D02D4940F28C5005F009
:10B1E000EBF99DF8133083F00103DBB2002B02D0A2
:10B1F000069B00221A60FFF791F99DF82730012283
:10B2000002FA03F3DA43254B1B681340234A136009
:10B21000069B9A68039B1A44069B9A600299039ABC
:10B220009DF81F301846FEF747FD9DF81F30184661
:10B23000FFF798F900BF9DF81F301846FEF7A6FEED
:10B2400003461846FEF704F9034683F00103DBB218
:10B25000002B16D04FF48070FEF7FAF8034683F007
:10B260000103DBB2002BE6D100BF0BE0094B1A68EB
:10B270000A4B1B6813400893089B002B7FF421AFF7
:10B2800000E000BF00BF0AB010BD00BFDC230020FB
:10B29000E8380300D8230020CC230020D42300204A
:10B2A00010B582B00346ADF8063000BFBDF80640C9
:10B2B000FEF73CF903462340002BF7D0BDF80630DB
:10B2C0001846FEF73BF900BF02B010BD08B50020DC
:10B2D00005F09CF80B4B1B68002B0BD1094B49F276
:10B2E00075321A60084BC0221A60064B49F275325B
:10B2F0001A6002E0044BC0221A60002005F09AF8A0
:10B3000000BF08BD00EC064014EC064008B5002064
:10B3100005F07CF80B4B1B68002B0BD1094B49F255
:10B3200075321A60084B00221A60064B49F27532DA
:10B330001A6002E0044B00221A60002005F07AF83F
:10B3400000BF08BD00EC064014EC064008B5002024
:10B3500005F05CF80B4B1B68002B0BD1094B49F235
:10B3600075321A60084B03221A60064B49F2753297
:10B370001A6002E0044B03221A60002005F05AF81C
:10B3800000BF08BD00EC064014ED064008B50020E3
:10B3900005F03CF80B4B1B68002B0BD1094B49F215
:10B3A00075321A60084B00221A60064B49F275325A
:10B3B0001A6002E0044B00221A60002005F03AF8FF
:10B3C00000BF08BD00EC064014ED064008B5FEF7CE
:10B3D000CAFD0346002B01D0FFF7B8FFFEF7BDFD05
:10B3E0000346002B01D0FFF771FFFEF783F84FF4FF
:10B3F0000060FFF755FFFEF7B0FD0346002B01D0BC
:10B40000FFF784FFFEF7AFFD0346002B01D0FFF7E7
:10B41000BDFF00BF08BD000000B58BB0FEF756F8B9
:10B420000790079B09930023089330E0099B04933E
:10B43000049B93FAA3F30393039B0593059B002BB3
:10B4400001D1202303E0059BB3FA83F3DBB28DF82F
:10B4500019309DF819301846FDF72EFF03469BB2B0
:10B460001846FEF70AF80346002B07D09DF819305E
:10B47000012202FA03F3089A134308939DF8193046
:10B48000012202FA03F3DB43099A13400993099B53
:10B49000002BCBD1089B03F40003002B14BF012326
:10B4A00000238DF81B30089B23F40003089321E050
:10B4B000089B0193019B93FAA3F30093009B0293D3
:10B4C000029B002B01D1202303E0029BB3FA83F3FC
:10B4D000DBB28DF81A309DF81A300E4A52F823303C
:10B4E00098479DF81A30012202FA03F3DB43089AC9
:10B4F00013400893089B002BDAD1FFF7D7FD9DF886
:10B500001B30002B01D0044B984700BF0BB05DF8F7
:10B5100004FB00BF3039030061AE020000B587B004
:10B520000190019B002B04D13B4940F2856005F05E
:10B5300043F83A4B1B78002B01D0082368E0384AC7
:10B54000019B1360354B01221A7000238DF81730D0
:10B5500029E09DF8173063F07F038DF80F309DF8D8
:10B560000F3003F00803002B02D04FF4007200E00C
:10B5700040229DF80F301146184600F001FA9DF860
:10B580000F301846FEF74CFF0290029B00229A7380
:10B59000029B00221A60029B00229A609DF81730DD
:10B5A00001338DF817309DF81730082BD1D90023BF
:10B5B0008DF8173027E09DF817308DF816309DF87C
:10B5C000163003F00803002B02D04FF4007200E0A5
:10B5D00040229DF816301146184600F0D1F99DF82A
:10B5E00016301846FEF71CFF0490049B00229A7345
:10B5F000049B00221A60049B00229A609DF8173079
:10B6000001338DF817309DF81730082BD3D900235C
:10B61000184607B05DF804FBE8380300C823002093
:10B62000CC23002008B5084B1B78012B04D0074918
:10B6300040F2AA6004F0C0FF054B00221A60024BE2
:10B6400000221A7000BF08BDC8230020E83803009C
:10B65000CC23002008B52B4B1B78012B04D02A49A2
:10B6600040F2B36004F0A8FF4FF40060FDF766FFFE
:10B67000FFF7ACFEFEF783FC0346002B0AD0234BFA
:10B680001B78002B06D0FDF743FFFFF79FFE1F4BF3
:10B6900000221A70FEF767FC0346002B01D0FFF76B
:10B6A00055FEFEF754FC0346002B0CD0184B40F21D
:10B6B000E3721A60174B40221A60BFF36F8F00BF0E
:10B6C000BFF34F8F00BF8020FEF7AEFA0020FEF7D9
:10B6D0005BFF114B40F2FF121A60104B00221A6000
:10B6E000FEF72EFF0E4B00221A70064B02221A7034
:10B6F000FEF739FC0346002B01D0FFF747FE00BFE1
:10B7000008BD00BFC8230020E838030088220020BD
:10B710000078024004780240D4230020D82300207F
:10B72000D123002008B50D4B1B78002B04D10C4908
:10B7300040F2F26004F040FF00F048F8FDF7C6FE6A
:10B7400003461846FDF7CAFEFDF7E2FEFEF7F8FED7
:10B75000024B01221A7000BF08BD00BFC8230020A1
:10B76000E838030000B585B003468DF80730134B69
:10B770001B78022B04D0124940F2077004F01CFF22
:10B78000104B00221A70104B03939DF80730002BCA
:10B7900003D0039B43F4001303930398FDF78AFE41
:10B7A00006212720FDF794FD2720FDF7B1FDFEF7C8
:10B7B0008BF800BF05B05DF804FB00BFC823002074
:10B7C000E8380300D02300200714C00108B50F4B50
:10B7D0001B78022B04D00E4940F2267004F0ECFED8
:10B7E0002720FDF7E5FD2720FDF7A0FD0346002BF0
:10B7F0000AD0FEF7B7FFFEF775F82720FDF7BCFD6E
:10B800004FF0FF30FDF76AFE00BF08BDC8230020DF
:10B81000E8380300044B1B78002B14BF01230023DE
:10B82000DBB21846704700BFC8230020044B1B78CA
:10B83000012B8CBF01230023DBB21846704700BFE9
:10B84000C823002008B5FFF7F1FF0346002B07D0FF
:10B850002720FDF76BFD0346002B01D0012300E0FC
:10B86000002303F00103DBB2184608BD00B583B026
:10B8700000238DF80730002004F0C8FD124B1B7820
:10B88000DBB2002B17D0FEF76DFFFDF74FFE03462E
:10B8900003F40073002B0ED1FEF7E4F9FDF746FE2A
:10B8A000034603F40073002B02D0FEF7E3F902E035
:10B8B00001238DF80730002004F0BCFD9DF807300F
:10B8C000184603B05DF804FBD023002000B583B018
:10B8D00000238DF80730002004F098FD174B1B78EB
:10B8E000DBB2002B21D0FEF7CDF90346002B1CD094
:10B8F000FEF7C0F901238DF80730FEF72EFB034653
:10B90000002B12D00E4B1B68002B0BD10C4B49F2B5
:10B9100075321A600B4BC0221A60094B49F275321E
:10B920001A6002E0074BC0221A60002004F082FD7A
:10B930009DF80730184603B05DF804FBD0230020C3
:10B9400000EC064014EC064008B5034B1846FDF722
:10B95000C5FD00BF08BD00BF0414800108B5034B3E
:10B960001846FDF7A7FD00BF08BD00BF0414800105
:10B97000024B00221A7000BF704700BFD023002086
:10B9800010B584B003460A468DF807301346ADF86B
:10B990000430BDF8043003F00103002B04D020492B
:10B9A00040F29F7004F008FEBDF80430002B0AD16D
:10B9B0009DF8073003F00803002B04D1184940F22A
:10B9C000A17004F0F9FD9DF8073003F00803002B87
:10B9D00009D0BDF804409DF807301846FFF74FFB2B
:10B9E00003469C420ED99DF8073003F00803002B54
:10B9F00003D1BDF80430402B04D9094940F2A370AB
:10BA000004F0DAFD9DF807301846FEF709FD0390B3
:10BA1000039BBDF804209A8100BF04B010BD00BF95
:10BA2000E838030000B585B003468DF807309DF86F
:10BA300007301846FEF7F4FC0390039B9B891846D9
:10BA400005B05DF804FB00B583B003468DF8073000
:10BA50009DF807301846FEF789FC03461846FDF7A7
:10BA6000A9FF0346184603B05DF804FB00B583B098
:10BA700003468DF807309DF807301846FEF7BCFAEC
:10BA800003461846FDF716FD9DF807301846FDF7EA
:10BA900091FF0346002B33D19DF807301846FEF77F
:10BAA00065FC03461846FDF7D3FF9DF8073003F009
:10BAB0000F03002B25D09DF90730002B21DB9DF8CB
:10BAC000073003F00803002B1BD1002004F09EFC7C
:10BAD0009DF80730184600F025FA9DF80730184603
:10BAE000FEF7D4FC03461A4601239340DA43064B83
:10BAF0001B681340044A1360002004F09BFC00E024
:10BB000000BF03B05DF804FBD823002000B583B06C
:10BB100003468DF807309DF807301846FEF742FDC2
:10BB20009DF807301846FEF721FC03461846FDF73E
:10BB3000DFFF9DF807301846FEF75EFA0346184609
:10BB4000FDF7CCFC00BF03B05DF804FB00B587B087
:10BB5000034600918DF807309DF807301846FEF730
:10BB600095FC03468DF80F30009B002B04D1534900
:10BB700040F2EE7004F020FD002004F047FC9DF838
:10BB8000073003F00F03002B08D14D4B1B789DF8B5
:10BB900007209A4202D01023059386E0494B1B6888
:10BBA000DB439AB2484B1B681A439DF80F300121C2
:10BBB00001FA03F31340002B02D01123059374E024
:10BBC0009DF807301846FEF72BFC02909DF90730D0
:10BBD000002B2FDA9DF8073003F00F0213465B00AD
:10BBE00013449B001A46394B13440493009B1B6873
:10BBF0001846FDF753FB0346002B0DD0009B9B68B6
:10BC000003F00103002B03D1029B314A1A6031E09B
:10BC1000029B304A1A602DE0009B9B6803F00103F1
:10BC2000002B03D1029B2C4A1A6023E0029B2B4A73
:10BC30001A601FE09DF8073003F00F0213465B0007
:10BC400013449B001A46264B13440493009B1B6825
:10BC5000002B0CD0009B1B681846FDF71FFB03460A
:10BC6000002B04D1154940F6480004F0A5FC029BC6
:10BC70001C4A1A60049B009A07CA83E80700029BCB
:10BC8000049A5A60029B00229A60029B00229A73D7
:10BC90009DF80F3001229A400B4B1B6813430A4A50
:10BCA000136000230593FEF7A7FD002004F0C2FBFC
:10BCB000059B184607B05DF804FB00BFE838030099
:10BCC000D1230020D4230020D823002000250020E9
:10BCD00019A1020095A1020019A20200BDA2020052
:10BCE0006C25002069A0020000B587B003460091D2
:10BCF0008DF807309DF807301846FEF7C7FB03465E
:10BD00008DF81330009B002B04D1294940F65E00CA
:10BD100004F052FC002004F079FB9DF8073003F09A
:10BD20000F03002B08D1234B1B789DF807209A4264
:10BD300002D01023059332E01F4B1B68DB439AB2FD
:10BD40001E4B1B681A439DF81330012101FA03F3BF
:10BD50001340002B02D01123059320E09DF80730FB
:10BD60001846FEF75DFB0390039B00229A60039B3D
:10BD7000009A12681A60009B5A68039B5A60039BE2
:10BD800000229A739DF8133001229A400B4B1B68D6
:10BD900013430A4A136000230593FEF72DFD00208C
:10BDA00004F048FB059B184607B05DF804FB00BF94
:10BDB000E8380300D1230020D4230020D82300201A
:10BDC000014B1846704700BFD825002000B583B04E
:10BDD00003468DF807309DF807301846FEF7C6FA7F
:10BDE00003461846FDF7A0FC0346184603B05DF86D
:10BDF00004FB00B583B003468DF807309DF807308B
:10BE00001846FEF7B3FA03461846FDF7C3FE00BF17
:10BE100003B05DF804FB00B583B003468DF807302E
:10BE20009DF90730002B0CDB9DF80730184600F019
:10BE300015F80346002B04D09DF80730184600F093
:10BE400071F89DF807301846FEF790FA0346184639
:10BE5000FDF7C6FE00BF03B05DF804FB00B583B07C
:10BE600003468DF807309DF807301846FEF77EFA36
:10BE700003461846FDF7C2FB0346184603B05DF8BB
:10BE800004FB00B583B003468DF807309DF80730FA
:10BE900001211846FDF742FD00BF03B05DF804FB29
:10BEA00000B583B0019008220021019807F0A4F9A1
:10BEB000FDF7E8FB03461A46019B1A70FDF7EAFB03
:10BEC00003461A46019B5A70FDF7ECFB03461A46DF
:10BED000019B5A80FDF7FCFB03461A46019B9A80A2
:10BEE000FDF70CFC03461A46019BDA8000BF03B045
:10BEF0005DF804FB08B54C20FDF77CFA00BF08BDD7
:10BF000008B55020FDF776FA00BF08BD08B55420EB
:10BF1000FDF770FA00BF08BD014B1B78184670474B
:10BF2000D123002000B583B003468DF807309DF97A
:10BF30000730002B04DA144940F6DF0004F03CFB24
:10BF4000002004F063FA9DF807301846FEF79EFAC9
:10BF500003461A4601239340DA430C4B1B681340F7
:10BF60000A4A13609DF8073003F00803002B04D140
:10BF70009DF807301846FDF77BFC002004F05AFAC4
:10BF800000BF03B05DF804FBE8380300D4230020B1
:10BF900086B003900291019201238DF817309DF82D
:10BFA0001730204A039B13601E4A029B53601D4AB0
:10BFB000019B9360039B44F20102934212D0039BC6
:10BFC00044F20202934220D1019B164AD360154BE2
:10BFD000DB681B68134A9361124BDB685B68114A8C
:10BFE000D36112E0019B0F4A13610E4B1B699B68E2
:10BFF0000C4A53610B4B1B691B680A4A9361094B3E
:10C000001B695B68074AD36100BF72B600BF00BFFF
:10C010009DF81730DBB2002BFAD162B600BF00BF2B
:10C0200006B070471826002000B583B0029000913A
:10C03000019244F2010071466A4600F003F803B031
:10C0400000BD00BF00B587B003900291019272B6A7
:10C0500000BF039B44F20102934207D0039B44F2CA
:10C060000202934205D1019B059303E0019B0493D7
:10C0700000E000BF074B1B6803F00103002B00D05A
:10C0800000BE019A02990398FFF782FF00BF07B034
:10C090005DF804FBF0ED00E0024BD3F88034DBB236
:10C0A0001846704700700240024BD3F88434DBB26C
:10C0B000184670470070024008B5FFF7B3FA002336
:10C0C000184608BD00B585B003468DF807300B460D
:10C0D0008DF8063013468DF805309DF8073003F0D3
:10C0E0001F029DF806305B0103F060031A439DF8C0
:10C0F0000530DB01DBB213430393039BFF2B04D911
:10C1000005494FF4AC7004F057FA039BDBB21846B4
:10C1100005B05DF804FB00BFD839030082B0019080
:10C12000019B1B7A184602B07047000000B585B02D
:10C1300001900B468DF80330019B002B04D10F4971
:10C140004FF4887004F038FA0198FFF7E7FF0346D0
:10C150001A469DF80330934201D3002309E0019B66
:10C16000093303939DF8032013465B001344039A9D
:10C170001344184605B05DF804FB00BF283A0300DD
:10C1800082B00190019B1B78184602B0704782B0C4
:10C190000190019B5B78184602B0704700B585B0EE
:10C1A00001900B468DF80330019B002B04D10D4903
:10C1B00040F2431004F000FA019B5B789DF80320E5
:10C1C0009A4201D3002309E0019B9B781A46019B08
:10C1D000134403939DF80330039A1344184605B0A3
:10C1E0005DF804FB283A030082B00190019B1B78A4
:10C1F000184602B0704782B00190019B1B68184638
:10C2000002B0704700B583B00190019B002B04D1B0
:10C21000064940F2432004F0CFF90198FFF7EBFF05
:10C2200003461B68184603B05DF804FB7C3A030024
:10C2300000B583B00190019B002B04D1064940F268
:10C240005F2004F0B9F90198FFF7D5FF03465B685A
:10C25000184603B05DF804FB7C3A030000B583B0D8
:10C260000190019B002B04D1064940F27B2004F091
:10C27000A3F90198FFF7BFFF03465B68184603B0B8
:10C280005DF804FB7C3A0300014B1846704700BF81
:10C29000003C03004FF08043D3F838341846704711
:10C2A00008B5FFF7F7FF034603F00103002B14BFA7
:10C2B00001230023DBB2184608BD08B5FFF7EAFFEB
:10C2C000034603F00203002B14BF01230023DBB25B
:10C2D000184608BD00B583B001900091019B002B6A
:10C2E00004D1114940F20F1004F066F9019B5B681C
:10C2F000002B04D10C494FF4887004F05DF9019BC8
:10C300005B681B68002B04D1074940F2111004F050
:10C3100053F9019B5B681B68009901989847034695
:10C32000184603B05DF804FBC43A030000B583B0BF
:10C3300001900091019B002B04D1114940F219108A
:10C3400004F03AF9019B1B68002B04D10C494FF40F
:10C350008D7004F031F9019B1B689B68002B04D1A0
:10C36000074940F21B1004F027F9019B1B689B68EA
:10C37000009A52881046984700BF03B05DF804FB4E
:10C38000C43A030000B583B001900B468DF803302A
:10C39000074B1B68002B06D0054B1B689DF803203C
:10C3A00011460198984700BF03B05DF804FB00BF39
:10C3B000F827002000B583B003468DF80730074BFF
:10C3C0005B68002B05D0054B5B689DF80720104685
:10C3D000984700BF03B05DF804FB00BFF8270020BA
:10C3E00010B58EB0039001930B468DF80B301346B9
:10C3F0008DF80A300023099300230D9302E00D9B72
:10C4000001330D93039B5B685C6809A8012300223C
:10C410000399A0470346002BF1D100238DF8233068
:10C4200000230C9300238DF82F30002306934FE058
:10C43000039B5B685C680DF1230206A80123039946
:10C44000A047039B5B685C680DF1170206A80123F7
:10C450000399A0479DF817309DF80B209A4227D1E9
:10C460009DF82F209DF80A309A421CD19DF8233068
:10C470001A46109B1A60019B5A1C01929DF82320BA
:10C480001A70019B5A1C01929DF80B201A70039B95
:10C490005B685C689DF82330023B06A8019A03990B
:10C4A000A047002319E09DF82F3001338DF82F307D
:10C4B000039B5B685C689DF82330023B06A8002262
:10C4C0000399A0479DF823301A460C9B13440C9304
:10C4D0000C9A0D9B9A42ABD3052318460EB010BDA3
:10C4E00000B585B003468DF807309DF90730002B65
:10C4F00014DA9DF8073003F00F038DF80E309DF825
:10C500000E30082B04D911494FF4CC7004F054F8C4
:10C510009DF80E30DB000E4A134413E09DF80730FF
:10C5200003F00F038DF80F309DF80F30082B04D95E
:10C5300006494FF4CF7004F03FF89DF80F30DB0050
:10C54000044A1344184605B05DF804FBC43A0300DE
:10C5500058270020A027002000B583B003468DF89F
:10C5600007309DF807301846FFF7BAFF03461B68EF
:10C57000184603B05DF804FB00B585B00346009192
:10C580008DF807309DF807301846FFF7A9FF039094
:10C59000039B009A1A60009B002B10D19DF8073076
:10C5A000002B03D09DF80730802B04D108494FF4AD
:10C5B000E17004F001F8039B00225A6004E0009B44
:10C5C0005B681A68039B5A6000BF05B05DF804FB06
:10C5D000C43A030000B583B00190064B5B68054A7E
:10C5E00012680199104698470346184603B05DF853
:10C5F00004FB00BFA027002000B589B00190019B7B
:10C600000793079B1B78052B1AD1FFF74DFD0346B7
:10C610008DF81730FFF740FD03468DF816300022E5
:10C6200000210020FFF74EFD03461A469DF8163004
:10C63000934205D19DF81730052B01D1334B079359
:10C64000079B1B78002B27D101F080F8069007E0AC
:10C6500007990698FFF76AFE0698FFF7FFFD069018
:10C66000069B002BF4D1002003F0D0FE284B1B6862
:10C67000002B03D1079B5A88264B1A80012124489E
:10C6800004F011F9002003F0D5FE01210798FFF70F
:10C6900079FE1F4B1B6835E01F4A02AB1946104656
:10C6A00004F048F80490049B002B2BD0049A079BBD
:10C6B0001B681360002003F0A9FE164B1A88144B68
:10C6C0001B689BB2D31A9BB201339AB2049BDA80E7
:10C6D00000210F4804F088F803469AB2049B9A8020
:10C6E000002003F0A7FE0C4A02AB1946104604F0E6
:10C6F0003AF803468DF80F309DF80F301946079829
:10C70000FFF740FE09B05DF804FB00BF183B0300D3
:10C7100050270020542700204027002000B583B078
:10C7200003468DF807309DF80730022B0ED0022B00
:10C7300010DC002B02D0012B04D00BE00A48FFF7DD
:10C740005BFF0DE00948FFF757FF09E00848FFF7D6
:10C7500053FF05E0074940F2622003F02DFF00BFC0
:10C7600000BF03B05DF804FB0C3B0300103B03006B
:10C77000143B0300C43A030000B583B00190019854
:10C78000FFF73AFF00BF03B05DF804FB00B583B0CC
:10C7900003468DF807309DF80730002B04D006497A
:10C7A00040F27B2003F008FF0448FFF725FF00BF9D
:10C7B00003B05DF804FB00BFC43A03001C3B030058
:10C7C00082B003468DF807309DF80730082B27D834
:10C7D00001A252F823F000BFFDC7020001C8020009
:10C7E00005C8020009C802000DC8020011C80200F5
:10C7F00015C8020019C802001DC80200002310E07D
:10C8000000230EE001230CE000230AE0002308E0EF
:10C81000012306E0012304E0012302E0012300E0FC
:10C820000023184602B0704782B003468DF80730E7
:10C830009DF80730082B27D801A252F823F000BF3B
:10C8400065C8020069C802006DC8020071C8020014
:10C8500075C8020079C802007DC8020081C80200C4
:10C8600085C80200002310E000230EE001230CE045
:10C8700000230AE0002308E0002306E0002304E090
:10C88000002302E0012300E00023184602B07047B5
:10C89000014B1B7818467047F427002010B582B072
:10C8A00003468DF807309DF807301846FFF788FFDC
:10C8B00003461C461C4B1B781846FFF781FF0346B6
:10C8C0009C420DD09DF807301846FFF779FF0346CC
:10C8D000002B03D01548FBF739FC01E0FBF786FC81
:10C8E0009DF807301846FFF79FFF03461C460E4B86
:10C8F0001B781846FFF798FF03469C420CD09DF822
:10C9000007301846FFF790FF0346002B02D0FFF7D1
:10C9100025F801E0FFF718F8034A9DF80730137077
:10C9200000BF02B010BD00BFF42700208C22002001
:10C9300000B587B001900B468DF8033013468DF893
:10C9400002300198FFF7EAFB03461A469DF80330D0
:10C95000934204D91B4940F2F92003F02DFE9DF8C3
:10C960000230002B01D0072328E09DF80330194640
:10C970000198FFF7DBFB04900498FFF708FC0346DF
:10C980008DF80F3000238DF8173010E09DF8173028
:10C9900019460498FFF702FC0290029B1B78184688
:10C9A00000F09CFE9DF8173001338DF817309DF88C
:10C9B00017209DF80F309A42E8D30023184607B09D
:10C9C0005DF804FBC43A030000B587B001900B4644
:10C9D0008DF803300198FFF7A1FB03461A469DF836
:10C9E0000330934204D919494FF4467003F0E4FD33
:10C9F0009DF8033019460198FFF798FB04900498BE
:10CA0000FFF7C5FB03468DF80F3000238DF8173074
:10CA100010E09DF8173019460498FFF7BFFB02900D
:10CA2000029B1B78184600F077FE9DF81730013303
:10CA30008DF817309DF817209DF80F309A42E8D3F3
:10CA400000BF00BF07B05DF804FB00BFC43A03009D
:10CA500000B589B00190FBF715FB0346002B04D10C
:10CA6000484940F2313003F0A7FD474808234FF40E
:10CA70008472464903F02BFE0690069B002B01D0E2
:10CA800003237BE04248FEF749FD0690069B002BFE
:10CA900001D0069B72E03F4B00221A703E4B0022F1
:10CAA0001A603E4B00221A60482200213C4806F0E2
:10CAB000A3FB482200213B4806F09EFB019B002B74
:10CAC00009D1394B00221A60374B00225A60364B8D
:10CAD00000221A7204E0344B019A07CA83E8070067
